:100000000C94DC000C94F9000C94F9000C94F900A9
:100010000C94F9000C94430B0C94F9000C94F90027
:100020000C94F9000C94F9000C94F9000C94F9006C
:100030000C94F9000C94F9000C94F9000C94F9005C
:100040000C94F9000C94F9000C94F9000C94F9004C
:100050000C94F9000C94F9000C94F9000C94F9003C
:100060000C94F9000C94F9006E616E00696E6600E4
:100070006364696E6F70737578585B656667454633
:100080004700616E006E66696E69747900CDCCCCF4
:100090003D0AD7233C17B7D13877CC2B329595E65C
:1000A000241FB14F0A000020410000C84200401C3C
:1000B0004620BCBE4CCA1B0E5AAEC59D7400407A89
:1000C00010F35A00A0724E18090010A5D4E80000E1
:1000D000E87648170000E40B54020000CA9A3B007F
:1000E0000000E1F505000080969800000040420FF6
:1000F000000000A08601000000102700000000E8BA
:1001000003000000006400000000000A000000007E
:10011000000100000000002C76D888DC674F08231F
:10012000DFC1DFAE59E1B1B796E5E3E453C63AE685
:1001300051997696E8E6C28426EB898C9B62ED4065
:100140007C6FFCEFBC9C9F40F2BAA56FA5F49005B4
:100150005A2AF75C936B6CF9676DC11BFCE0E40DE8
:1001600047FEF520E6B500D0ED902E0300943577DC
:10017000050080841E080000204E0A000000C80C04
:10018000333333330F986E12831141EF8D2114896D
:100190003BE65516CFFEE6DB18D1844B381BF77CC7
:1001A0001D901DA4BBE424203284725E228100C90C
:1001B000F124ECA1E53D270011241FBECFEFD8E0CC
:1001C000DEBFCDBF13E0A0E0B1E0E0E9FEE602C093
:1001D00005900D92A232B107D9F716E0A2E2B3E082
:1001E00001C01D92AC31B107E1F70E9419090C94CE
:1001F00046370C940000A1E1B0E0E1E0F1E00C949E
:10020000FC363C017F876E876A01FC0117821682EB
:10021000838181FD03C06FEF7FEF71C39E012F5F6C
:100220003F4F398B288BF3012381EE85FF8523FD1A
:10023000859123FF8191FF87EE87882309F45CC3B2
:10024000853251F4EE85FF8523FD859123FF819151
:10025000FF87EE87853229F490E0B3010E94533581
:10026000E2CF982F10E0882499241032B0F49B320A
:1002700069F09C3228F4903251F0933271F40BC043
:100280009D3239F0903349F4116028C01260146037
:1002900025C0186023C0106121C017FD2AC0892F16
:1002A00080538A3078F416FF06C0FAE09F9E902CA7
:1002B0001124980E13C03AE0839E802C1124880EDE
:1002C00010620CC09E3221F416FD16C3106406C0E5
:1002D0009C3611F4106802C0983659F4EE85FF85FB
:1002E00023FD959123FF9191FF87EE87992309F0D4
:1002F000BCCF892F8554833020F4812F8061905E9C
:1003000007C0892F8556833008F0A1C1812F8F7EC9
:1003100086FD02C076E0972E6FE3F62EF822953622
:1003200019F4F0E4FF2A07C0963619F420E8F22AFF
:1003300002C091109A94F7FE0BC03BE3391520F4EC
:1003400027E05CE3B52E0EC0B92CB39427E00AC0B9
:1003500047E0491528F427E0BB2447E0942E02C06B
:10036000292DBB24C60104969D878C87F6016081E8
:10037000718182819381AE014F5F5F4F0B2D0E948F
:100380000F346C010981202E332400FF04C003FDCB
:1003900002C01DE209C0F1FE02C01BE205C0F2FC72
:1003A00002C010E001C010E2C1018C709070892B76
:1003B000B9F1112311F483E001C084E0881510F035
:1003C00088240AC0881AF3FC07C080E290E0B301D9
:1003D0000E9453358A94C9F7112329F0812F90E0A8
:1003E000B3010E94533523FE03C008E610E00EC09F
:1003F0000CE610E00BC0E114F10409F0805290E02B
:10040000B3010E9453350F5F1F4F05C0EF2CFF242F
:10041000F0E1EF22FF24F8018491882361F714C1F1
:10042000F7FE12C0BC0C24FE04C08A81813309F49B
:10043000BA941B141CF0BB24B3942DC0F8E0FB1538
:1004400050F538E0B32E27C0F6FC25C0892D90E08A
:100450008C159D054CF02CEFC2162FEFD20624F020
:1004600030E8F32A01C09A94992049F0E2E0F0E0E4
:10047000EC0FFD1FE90DF11D80818033A1F3F7FE24
:100480000AC0B92CB394892D90E0C816D90614F08F
:10049000992401C09C18F7FC03C025E030E009C096
:1004A0001C141D041CF021E030E003C096012F5FF6
:1004B0003F4F112311F02F5F3F4F992029F0892DD5
:1004C00090E00196280F391F882D90E028173907F2
:1004D00014F0882401C0821A4F2C5524C20189705F
:1004E0009070892B39F008C080E290E0B3010E943F
:1004F00053358A948820C1F7112329F0812F90E089
:10050000B3010E94533543FE07C008C080E390E06A
:10051000B3010E9453358A948820C1F7F7FE46C084
:100520008601D7FE02C000E010E076010894E11CCD
:10053000F11CE01AF10A41E050E04C0F5D1FE40E9F
:10054000F51E26014B185108892D90E0AA24BB24E2
:10055000A81AB90A5FEF0F3F150729F48EE290E061
:10056000B3010E945335C016D10634F0401651062F
:100570001CF4F701808101C080E301501040089411
:10058000E11CF11C0A151B052CF090E0B3010E9440
:100590005335E0CF0C151D0539F49A81963318F4C4
:1005A000953311F424FE81E390E04BC08A818133BE
:1005B00009F00F7E90E0B3010E9453359920A1F01D
:1005C0008EE290E0B3010E94533512E0E1E0F0E0EA
:1005D000EC0FFD1FE10FF11D1F5F808190E0B30163
:1005E0000E9453359A9491F744FC03C085E690E04D
:1005F00002C085E490E0B3010E945335D7FC05C0EA
:10060000C114D10441F404FF06C0D094C194D108B0
:10061000D3948DE201C08BE290E0B3010E94533588
:1006200080E305C08F5F26EF3FEFC20ED31E3AE096
:10063000C316D104BCF790E0B3010E945335C60144
:10064000C096B3010E945335CC84DD8452C19336E9
:1006500031F0933799F0933509F059C023C0F60172
:10066000808189835E010894A11CB11C22E030E0E6
:10067000C20ED31E21E0E22EF12C12C0F601A080A2
:10068000B18016FD03C06FEF7FEF02C0692D70E0EF
:1006900022E030E0C20ED31EC5010E9406357C0167
:1006A0001F7713C0F601A080B18016FD03C06FEF65
:1006B0007FEF02C0692D70E022E030E0C20ED31E51
:1006C000C5010E94F2347C01106813FF07C01BC0F3
:1006D00080E290E0B3010E9453358A94882D90E027
:1006E000E816F906A8F30FC0F50117FD859117FF6D
:1006F00081915F0190E0B3010E94533581108A948B
:100700000894E108F108E114F10471F7F2C094369D
:1007100011F0993689F517FF08C0F6012081318163
:100720004281538184E090E00AC0F601808191818A
:100730009C01442737FD4095542F82E090E0C80E7D
:10074000D91E9FE6F92EF12257FF09C0509540951A
:10075000309521953F4F4F4F5F4F90E8F92ACA01DE
:10076000B901AE014F5F5F4F2AE030E00E9499353A
:10077000E82EE889EE1A41C0953721F41F7E2AE061
:1007800030E01CC0197F9F3661F0903720F4983517
:1007900009F0B2C00FC0903739F0983709F0ACC0FB
:1007A00004C028E030E00AC0106114FD146020E1AC
:1007B00030E004C014FD166020E132E017FF08C0ED
:1007C000F601608171818281938144E050E008C02C
:1007D000F60180819181BC0180E090E042E050E030
:1007E000C40ED51EAE014F5F5F4F0E949935E82EB3
:1007F0005889E51A8FE7F82EF122F6FE0BC08EEF2E
:10080000F822E91438F4F4FE07C0F2FC05C09FEEAC
:10081000F92202C01E2D01C0192DF4FE0DC0FE01EB
:10082000EE0DF11D8081803319F4E9EEFE2208C03F
:100830001F5FF2FE05C003C08F2D867809F01F5F91
:100840000F2DF3FC14C0F0FE0FC0181510F09E2CF5
:100850000BC09E2C980C911A182D06C080E290E0D7
:10086000B3010E9453351F5F1815C0F304C018155B
:1008700010F4811A01C0882404FF0FC080E390E0C7
:10088000B3010E94533502FF1DC001FD03C088E77C
:1008900090E00EC088E590E00BC0802F867891F044
:1008A00001FF02C08BE201C080E2F7FC8DE290E024
:1008B000B3010E94533506C080E390E0B3010E946B
:1008C00053359A94E914C0F3EA94E1E0F0E0EC0FB8
:1008D000FD1FEE0DF11D808190E0B3010E945335A4
:1008E000EE2091F706C080E290E0B3010E945335FC
:1008F0008A948820C1F797CCF30166817781CB0178
:100900006196E2E10C941837FC0120FD08C023FD3C
:1009100005C022FF02C07383628351834083089520
:10092000EF92FF920F931F9344FF02C033E011C078
:1009300046FF02C034E00DC0DB01FC01AA0FBB1F63
:10094000EE1FFF1F1094D1F76A0F7B1F8E1F9F1F92
:1009500031E0660F771F881F991F3150D1F77B0157
:100960008C01E20EF11C011D111DA8019701B701B8
:10097000CA011F910F91FF90EF9008950F931F935D
:10098000CF93DF938C01C8010E941135EC0197FDD4
:1009900008C00E943337892BB1F7CE01B8010E94FD
:1009A0007F35CE01DF91CF911F910F9108958F92E6
:1009B0009F92AF92BF92DF92EF92FF920F931F939D
:1009C000CF93DF935C01EB014A01122F0E94113596
:1009D000AC018B3219F08D3251F41068219709F473
:1009E0006DC0C5010E941135AC0197FD67C06DEF68
:1009F000D62ED1228D2D807301F54033F1F421974D
:100A000009F447C0C5010E941135AC0197FD41C0F2
:100A100082E0D82A483711F0483559F480E4D82AC2
:100A20002197B9F1C5010E941135AC0199232CF42D
:100A300030C0D6FC02C080E1D82AEE24FF24870112
:100A4000242F2053283088F0D4FC09C02A3068F0C5
:100A5000D6FE05C02F7D822F8151863028F0CA0135
:100A6000B5010E947F3512C02750C801B7014D2D36
:100A70000E9490047B018C0182E0D82A219761F0CA
:100A8000C5010E941135AC0197FFDACFD1FC04C03B
:100A900015C0EE24FF248701D7FE08C010950095ED
:100AA000F094E094E11CF11C011D111DC401B8017A
:100AB000A7012D2D0E94840481E001C080E0DF9118
:100AC000CF911F910F91FF90EF90DF90BF90AF906B
:100AD0009F908F900895A0E2B0E0E1E7F5E00C94DC
:100AE00000375C016B018A017901FE01319680E2D9
:100AF000DF011D928A95E9F770E030E060E040E0A8
:100B000050E03F01A1E0B0E0F5018381F70183FDF2
:100B1000259183FF21917F01222309F481C02E3585
:100B200019F44115510569F1872F90E08417950755
:100B300044F42D3551F12D3221F4332329F431E0E1
:100B400021C0332309F4622F322F832F8695869597
:100B50008695F301E80FF11D832F87704D0102C0C8
:100B6000880C991C8A95E2F7208128292083361762
:100B700011F430E007C0361710F43F5FE6CF315074
:100B8000E4CF71E04F5F5F4FBFCF332319F08E8109
:100B900080628E83772359F0FE0131969E012F5D8E
:100BA0003F4F808180958193E217F307D1F7992415
:100BB00093943E010894611C711CC5010E9411357B
:100BC000AC0197FD25C0869586958695F301E80FC3
:100BD000F11D808190E09A012770307002C09595D8
:100BE00087952A95E2F780FD05C0CA01B5010E94EC
:100BF0007F350EC00115110519F0D8014D938D01F7
:100C00000894C108D1089924C114D104B1F602C0D6
:100C1000992031F40115110529F0F801108202C064
:100C2000EE24FF24C701A096EEE00C941C372F920F
:100C30003F925F926F927F928F929F92AF92BF92FC
:100C4000CF92DF92EF92FF920F931F93CF93DF9398
:100C50003C017B011A010E941135EC018B3239F005
:100C60008D3211F0552411C0B0E85B2E01C055241F
:100C70000894E108F108E114F10409F418C1C30172
:100C80000E941135EC0197FD12C1CE010E943B3745
:100C90008936910521F08E36910599F51DC005E83C
:100CA00010E01CC00894E108F108E114F10471F0AF
:100CB000C3010E941135EC0197FD08C00E943B372B
:100CC000D81661F0CE01B3010E947F3520E00838CC
:100CD000120709F0ECC008C002E810E0F8010F5F4D
:100CE0001F4FD490DD20F1F60558104029F080E028
:100CF00090E0A0E8BFE7CFC080E090E0A0ECBFE7C5
:100D0000CAC0CC24DD24882499245401AE01405368
:100D1000242F4A3038F552E0552A852D90E0AC0159
:100D20004870507052FE06C0452B11F50894C11C46
:100D3000D11C1EC0452B19F00894C108D108C5016B
:100D4000B40140E20E9490044B015C0188E98816DE
:100D500089E9980689E9A80689E1B80648F094E08F
:100D6000592A06C04E3F81F453FC0EC0E8E05E2ACB
:100D70000894E108F108E114F10431F0C3010E9484
:100D80001135EC0197FFC2CF51FE91C0C53619F065
:100D9000C53409F046C00894E108F108E114F104F3
:100DA00009F485C0C3010E941135EC0197FD7FC095
:100DB0008B3221F08D3269F4F0E15F2A0894E1086A
:100DC000F108E114F10409F472C0C3010E94113565
:100DD000EC01CE01C0970A9708F069C000E010E06E
:100DE000B801882777FD8095982FAE014053242FB6
:100DF00040E20E9490048B010894E108F108E1149C
:100E0000F10439F0C3010E941135EC01C0970A9733
:100E100038F3B80154FE03C0709561957F4FC60E3C
:100E2000D71EEF2831F0D7FD04C0CE01B3010E94D8
:100E30007F35C501B4010E94F735D7FE0DC0A1EA88
:100E4000EA2EA0E0FA2ED094C194D108D394C0E247
:100E5000D0E000E010E00EC0F9EBEF2EF0E0FF2E46
:100E6000F6CFF70125913591459154910E94343682
:100E7000CC1ADD0ACC16DD06A0F7D695C7950F5F14
:100E80001F4F0630110529F0ECEFFFEFEE0EFF1EAD
:100E9000F1CFDC01CB0157FCB0582114310429F00B
:100EA000F10180839183A283B38381E001C080E05C
:100EB000DF91CF911F910F91FF90EF90DF90CF9036
:100EC000BF90AF909F908F907F906F905F903F907A
:100ED0002F900895A0E0B0E0E0E7F7E00C94FF3633
:100EE0004C015B013A01FC0117821682552404C1B2
:100EF000812F90E00E943337892B21F0C4010E949A
:100F0000BE04FAC0153249F4F501F3FC6591F3FE15
:100F100061915F01653269F415E2C4010E941135E7
:100F200097FDF6C0181709F4E7C0B4010E947F3599
:100F3000F4C06A3219F0162F00E006C0F3FC1591D8
:100F4000F3FE11915F0101E0CC24DD240EC00260AC
:100F5000B60180E090E040E20E9490046B01F50150
:100F6000F3FC1591F3FE11915F01212F20532A30DC
:100F700070F301FD04C0CC24CA94DC2C04C0C1145D
:100F8000D10409F4CAC0183621F01C3699F4F501D1
:100F90000BC0F501F3FC6591F3FE6191683619F021
:100FA0005F01162F07C008600460F3FC1591F3FE83
:100FB00011915F01112309F4B0C080E790E0612F27
:100FC00070E00E94E734892B09F4A7C0802F00FF4E
:100FD00003C0EE24FF2407C0F301E080F18022E08B
:100FE00030E0620E731E1E3651F4F40146815781C3
:100FF00060E070E0C701202F0E9484047DC013369A
:10100000B9F481FD03C081E0C82ED12CC4010E9437
:10101000113597FD7DC0E114F10419F0F7018193BA
:101020007F010894C108D108C114D10479F762C0C6
:101030001B3559F4C401B601A70195010E946B0547
:101040005C01009709F056C050C0C4010E94BE0464
:1010500097FD5EC01F36D1F1103738F41436A1F178
:101060001936A9F11835D1F52DC0133751F01437C1
:1010700018F4103799F526C0153731F1183771F586
:1010800021C0C4010E941135EC0197FD15C00E94DA
:101090003337892B29F0CE01B4010E947F350CC073
:1010A000E114F10419F0F701C1937F010894C1081C
:1010B000D108C114D10429F7E114F104D9F0F701E2
:1010C000108218C0006403C0006201C00061C40146
:1010D000B601A701202F0E94D70405C0C401B601A4
:1010E000A7010E941706882329F4F40183818073E5
:1010F00079F413C000FF5394F401F380F501F3FC7D
:101100001591F3FE11915F01112309F0F1CE05C095
:10111000552019F42FEF3FEF02C0252D30E0C90113
:10112000CDB7DEB7EFE00C941B37389A3A9A3C9A69
:101130003D9A579A569A399A539A549A559A219A9F
:1011400008955E9A5F9808955E985F9808955E98F6
:101150005F9A0895409A5D98089540985D98089523
:1011600040985D9A0895419A42980895419842980E
:1011700008954198429A08955C9A5B9808955C9806
:101180005B9808955C985B9A0895449A45980895F1
:101190004498459808954498459A0895449A4598E6
:1011A00088EE93E00E94B70F4498459A88EE93E04A
:1011B0000E94B70F4498459808955C9A5B9880EB1D
:1011C00094E00E94B70F5C985B9A80EB94E00E94D9
:1011D000B70F5C985B980895419A429880ED97E02C
:1011E0000E94B70F4198429A88EB9BE00E94B70F8C
:1011F000419842980895409A5D9880EB94E00E944F
:10120000B70F40985D9A80EB94E00E94B70F40982A
:101210005D9808955E9A5F9880EB94E00E94B70F06
:101220005E985F9A80EB94E00E94B70F5E985F989B
:1012300008950E9495080E946C0E0E94D80E892B7A
:1012400009F45CC088E293E065E070E00E94730FEF
:101250008530910509F04DC0809128038B3211F43F
:101260005E9A03C0803319F45E985F9804C08D3293
:1012700011F45E985F9A809129038B3211F4409AA1
:1012800003C0803319F440985D9804C08D3211F486
:1012900040985D9A80912A038B3211F4419A03C0E1
:1012A000803319F44198429804C08D3211F441986A
:1012B000429A80912B038B3211F45C9A03C08033E5
:1012C00019F45C985B9804C08D3211F45C985B9AB9
:1012D00080912C038B3211F4449A03C0803319F4AB
:1012E00044984598AFCF8D3209F0ACCF4498459AD9
:1012F000A9CF97FFA7CF0E94C60E9FCF449A4598CB
:10130000FDCF1092C6031092C7031092C80310922B
:10131000C9039093C1038093C0031092C30310923A
:10132000C2031092CB031092CA038DE393E0909313
:10133000CD038093CC031092C5031092C4038EEDAD
:101340008093BF0380935104E0913F05F0914005E5
:1013500009950895FC01209151049091BF030FC09D
:1013600080812E3D09F0FFCF9E3D09F0FFCF8EBD5D
:101370000DB407FEFDCF8EB56150704031966115FA
:10138000710571F70895982F809151048E3D09F0F1
:10139000FFCF8091BF038E3D09F0FFCF9EBD0DB4FE
:1013A00007FEFDCF8EB50895EF92FF920F931F9326
:1013B000DC016115710509F466C0809151048E3D10
:1013C00009F0FFCF8091BF038E3D09F0FFCF83E08E
:1013D0008EBD0DB407FEFDCF8EB58C9362307105C6
:1013E00008F451C0809151048E3D09F0FFCF8091E7
:1013F000BF038E3D09F0FFCF1EBC0DB407FEFDCF2D
:101400008EB511968C93119762307105E1F1809140
:1014100051048E3D09F0FFCF8091BF038E3D09F04E
:10142000FFCF1EBC0DB407FEFDCF8EB512968C9378
:1014300012976330710539F1809151048E3D09F0A6
:10144000FFCF8091BF038E3D09F0FFCF1EBC0DB4CE
:1014500007FEFDCF8EB513968C93139764307105FC
:1014600091F0809151048E3D09F0FFCF8091BF0330
:101470008E3D09F0FFCF1EBC0DB407FEFDCF8EB52B
:1014800014968C93149725E030E040E050E07B0107
:1014900000E010E017C0809151048E3D09F0FFCFAD
:1014A0008091BF038E3D09F0FFCF1EBC0DB407FE37
:1014B000FDCF8EB5FD01E20FF31F80832F5F3F4FFD
:1014C0004F4F5F4F2E153F054007510724F31F91E3
:1014D0000F91FF90EF9008958091CC039091CD03F0
:1014E0006AE070E00E94D4090895809168008B7FC3
:1014F000809368002A9A8091BF038E3D09F0FFCF48
:1015000082E090E0A0E0B0E08093C6039093C70330
:10151000A093C803B093C9038091CC039091CD03ED
:10152000E091C003F091C103059609950895E4E6A2
:10153000F0E080818B7F8083259A239A229A80E530
:101540008CBD2A9A8CB58F7D8CBD8CB5877F8CBD68
:101550008CB584608CBD8CB582608CBD8CB581608F
:101560008CBD8DB58E7F8DBD3B9A52985A9AE8E618
:10157000F0E0808184608083EDE6F0E0808184602B
:101580008083789408950895E8E6F0E080818B7F69
:1015900080830895E8E6F0E0808184608083089588
:1015A000EF92FF920F931F93CF93DF93C091CC03E1
:1015B000D091CD03CE0105962D81223021F024302B
:1015C00009F056C024C063E070E00E94531A9C01E9
:1015D00040E050E0265F3F4F4F4F5F4FC9018170A1
:1015E00090702A50304040405040892B29F42F5FA2
:1015F0003F4F4F4F5F4F05C0211531054105510544
:10160000B9F1CE010A96B9010E94D40931C088858A
:10161000282F30E040E050E079018A010894E10889
:10162000F10801091109275F3F4F4F4F5F4FC90173
:10163000817090702950304040405040892B11F00B
:1016400079018A01E114F1040105110529F0CE01A7
:101650000A96B7010E94D40988E090E0A0E0B0E0CB
:101660008093C6039093C703A093C803B093C903A4
:1016700060E070E080E090E0DF91CF911F910F91EA
:10168000FF90EF9008951F920F920FB60F921124C2
:101690002F933F934F935F936F937F938F939F937A
:1016A000AF93BF93EF93FF934A9971C08091C603A4
:1016B0009091C703A091C803B091C9030097A105F9
:1016C000B10569F481E090E0A0E0B0E08093C6034A
:1016D0009093C703A093C803B093C90358C0833045
:1016E0009105A105B10559F5E091CA03F091CB032D
:1016F0008091C2039091C303409151043091BF0384
:101700000EC020814E3D09F0FFCF3E3D09F0FFCFD6
:101710002EBD0DB407FEFDCF2EB501973196009773
:1017200081F782E090E0A0E0B0E08093C603909360
:10173000C703A093C803B093C9032A9A28C002978D
:10174000A105B10521F586E090E0A0E0B0E080932E
:10175000C6039093C703A093C803B093C9032A9804
:101760000E946C0A88E090E0A0E0B0E08093C6039D
:101770009093C703A093C803B093C9030E94D00AF3
:10178000611571058105910511F40E94750AFF919B
:10179000EF91BF91AF919F918F917F916F915F91E9
:1017A0004F913F912F910F900FBE0F901F90189562
:1017B0000F931F939C01162F072F4FEC53E0241714
:1017C000350731F0CA01B901412F502F0E94FD3475
:1017D00010933B0300933C0387E090E00E94B70F17
:1017E0002A9882E390E00E94A50F9091CF03809108
:1017F00051048E3D09F0FFCF8091BF038E3D09F06B
:10180000FFCF9EBD0DB407FEFDCF8EB58091D003F6
:101810008EBD0DB407FEFDCF8EB58091D1038EBD78
:101820000DB407FEFDCF8EB58091D2038EBD0DB4F1
:1018300007FEFDCF8EB582E390E00E94A50F909148
:10184000D303809151048E3D09F0FFCF8091BF03F7
:101850008E3D09F0FFCF9EBD0DB407FEFDCF8EB5C6
:1018600040913B0350913C0325E030E00BC0F9016F
:10187000E153FC4F80818EBD0DB407FEFDCF8EB5C8
:101880002F5F3F4F2417350790F382E090E0A0E0F0
:10189000B0E08093C6039093C703A093C803B093AE
:1018A000C9032A9A60E070E080E090E01F910F91F8
:1018B00008950F931F93CF93DF93EC01862F8095AC
:1018C000817091E098839B01280F311D3983860F29
:1018D0008A831B821C82809151048E3D09F0FFCFC8
:1018E0008091C6039091C703A091C803B091C9032A
:1018F0000097A105B10509F4FFCF89010B5F1F4FC8
:101900000197A105B10529F4CE01B8010E94D80BB9
:101910002BC0E0914105F091420509958091C603E5
:101920009091C703A091C803B091C9030297A10584
:10193000B10581F583E090E0A0E0B0E08093C603BC
:101940009093C703A093C803B093C903D093CB036C
:10195000C093CA031093C3030093C2032A98E09173
:101960003F05F091400509958091C6039091C7030A
:10197000A091C803B091C9030297A105B10549F42C
:1019800060E070E080E090E0DF91CF911F910F91D7
:101990000895FFCFFFCF9B01AC01203880E83807C6
:1019A00080E0480780E0580769F481E090E0A0E01B
:1019B000B0E08093520490935304A0935404B093E6
:1019C00055043BC0213080E8380780E0480780E0BC
:1019D000580769F481E090E0A0E0B0E080935A04F9
:1019E00090935B04A0935C04B0935D04089522304F
:1019F00080E8380780E0480780E0580749F41092F3
:101A00005A0410925B0410925C0410925D040895D5
:101A1000203180E8380780E0480780E0580769F403
:101A200081E090E0A0E0B0E08093560490935704EA
:101A3000A0935804B09359040895293931054105FC
:101A4000510561F481E090E0A0E0B0E080935E0495
:101A500090935F04A0936004B09361040895FC0127
:101A6000108211821282138280E090E00895FC01BE
:101A7000108211821282138280E090E00895FC01AE
:101A8000108211821282138280E090E0089529B1C1
:101A900030E040E050E02470307040705070B90188
:101AA000CA010895E8E6F0E08081846080830895AB
:101AB000E8E6F0E080818B7F80830895882311F031
:101AC000439A089543980895EF92FF920F931F93BE
:101AD000DF93CF9300D000D0CDB7DEB71092520481
:101AE00010925304109254041092550410925A0408
:101AF00010925B0410925C0410925D0410925604E4
:101B000010925704109258041092590410925E04D7
:101B100010925F04109260041092610484E589833E
:101B20008A838B831C8260E070E080E090E020E09C
:101B300030E040E050E0EE24FF2487010E941F15B2
:101B40006FEF70E080E090E00E94EB1406C088EE3A
:101B500093E00E94B70F0E94311D80915A0490912A
:101B60005B04A0915C04B0915D040197A105B105EF
:101B700071F3CE0101960E94D71261E070E080E01F
:101B800090E00E949A1304C084EF91E00E94B70F86
:101B90008091520490915304A0915404B091550443
:101BA0000097A105B10581F36CE070E080E090E062
:101BB00020E130E040E050E00E94D10F80E091E071
:101BC0000E94492A0E946A1760E070E080E090E07D
:101BD00020E030E040E050E0E1E0EE2EF12C012D7D
:101BE000112D0E941F150E94651988EE93E00E9436
:101BF000B70F80E090E06FEC73E00E94821964E41C
:101C000072E880E090E00E94DA130F900F900F903E
:101C10000F90CF91DF911F910F91FF90EF9008955A
:101C2000AF92BF92CF92DF92EF92FF920F931F93EA
:101C300088EE93E00E94B70F0E94970A8BEC9CE01D
:101C40006FE27DE047E35DE02FE33DE007E41DE068
:101C5000B2E5EB2EBDE0FB2EA8E5CA2EADE0DA2EF4
:101C6000FEE5AF2EFDE0BF2E0E94A31280E090E0C3
:101C70006FEC73E00E94821964E472E880E090E007
:101C80000E94DA130E94640D06C00E94311D88EE86
:101C900093E00E94B70F8091560490915704A09151
:101CA0005804B09159040097A105B10571F38091D2
:101CB0005A0490915B04A0915C04B0915D0400977C
:101CC000A105B10511F31F910F91FF90EF90DF90E7
:101CD000CF90BF90AF900895AF92BF92CF92DF9216
:101CE000EF92FF920F931F9388EE93E00E94B70F3D
:101CF0000E94970A8BEC9CE06FE27DE047E35DE099
:101D00002FE33DE007E41DE0A2E5EA2EADE0FA2E68
:101D1000F8E5CF2EFDE0DF2EEEE5AE2EEDE0BE2E97
:101D20000E94A31280E090E06FEC73E00E948219A1
:101D300064E472E880E090E00E94DA1306C00E943A
:101D4000311D88EE93E00E94B70F80915604909168
:101D50005704A0915804B09159040097A105B1050A
:101D600071F380915A0490915B04A0915C04B0914E
:101D70005D040097A105B10511F31F910F91FF902C
:101D8000EF90DF90CF90BF90AF90089560911001D9
:101D900070911101882777FD8095982F0E94562F0A
:101DA0008FEF9FEF9093110180931001CB01089565
:101DB0002F923F924F925F926F927F928F929F925B
:101DC000AF92BF92CF92DF92EF92FF920F931F9349
:101DD000DF93CF93CDB7DEB764970FB6F894DEBF2D
:101DE0000FBECDBF80911001909111018F5F9F4F69
:101DF00009F05AC062E070E080E090E022E030E05C
:101E000040E050E0A1E1EA2EF12C012D112D0E94BD
:101E1000A22F2B013C0177FD4AC080E69AEEA0E09C
:101E2000B0E089839A83AB83BC8360911001709189
:101E30001101882777FD8095982F2FEF3FEF40E025
:101E400050E0F1E0EF2EF12C012D112D6E010894E0
:101E5000C11CD11CE4E08E2E912CA12CB12C0E942F
:101E6000FB2A82E090E09E838D8385E18F838EE460
:101E7000888780EE89871A8681E08B878BEB8C8739
:101E8000B201882777FD8095982FAE014B5F5F4F99
:101E900000E110E020E030E00E94A42C97FD07C094
:101EA000509211014092100121E030E002C020E088
:101EB00030E0C90164960FB6F894DEBF0FBECDBF07
:101EC000CF91DF911F910F91FF90EF90DF90CF9016
:101ED000BF90AF909F908F907F906F905F904F904A
:101EE0003F902F900895CF92DF92EF92FF920F9341
:101EF0001F936C017B0180911001909111018F5F04
:101F00009F4F39F40E94D80E892B19F42FEF3FEF21
:101F100014C06091100170911101882777FD8095A0
:101F2000982F8701222717FD2095322FA601CC2458
:101F3000DD2476010E94AF2D9C01C9011F910F91F4
:101F4000FF90EF90DF90CF90089520E030E00BC03D
:101F50000000000000000000000000000000000081
:101F600000002F5F3F4F2817390790F3089540E096
:101F700050E013C020E030E000000000000000004E
:101F8000000000000000000000002F5F3F4F63E0F2
:101F9000283E360789F74F5F5F4F4817590750F3C0
:101FA00008958F929F92AF92BF92CF92DF92EF925D
:101FB000FF920F931F93DF93CF930F92CDB7DEB7AE
:101FC0007B018C0159016A018090330590903405A2
:101FD000C4010996B801A7010E942F1AB601A501F4
:101FE0000E942F1A83E092E0B40148E00E94801220
:101FF00083E092E0BE016F5F7F4F0E9423216981E1
:1020000070E080E090E00F90CF91DF911F910F91F1
:10201000FF90EF90DF90CF90BF90AF909F908F9008
:1020200008950F931F93DF93CF9300D000D00F92AA
:10203000CDB7DEB78C01609133057091340587E030
:1020400092E040E00E94801287E092E0BE016F5F64
:102050007F4F0E9423218C81F80180838D818183B1
:1020600089810F900F900F900F900F90CF91DF917B
:102070001F910F9108952F923F924F925F926F920E
:102080007F928F929F92AF92BF92CF92DF92EF9208
:10209000FF920F931F93DF93CF9300D000D0CDB763
:1020A000DEB74B015C01522E432E342E252E8FEFCE
:1020B0009FEFAFEFBFEF89839A83AB83BC836090C0
:1020C000330570903405C3010A96B501A4010E943E
:1020D0002F1A4CE050E060E070E00E942F1A452D6E
:1020E000542D632D722D0E942F1AB801A7010E9452
:1020F0002F1A9301265E3F4FC901B601452D542D7D
:102100000E94FD3482E092E090932E0580932D058D
:1021100080E990E0B30140E1252D342D0E943C126E
:1021200082E092E0BE016F5F7F4F0E9423216981B0
:102130007A818B819C810F900F900F900F90CF919F
:10214000DF911F910F91FF90EF90DF90CF90BF90A4
:10215000AF909F908F907F906F905F904F903F9047
:102160002F9008952F923F924F925F926F927F929D
:102170008F929F92AF92BF92CF92DF92EF92FF9297
:102180000F931F93CF93DF931B012C0149015A0139
:10219000E8016624772419C0730100E010E0C20151
:1021A000B10120E230E040E050E00E943B106623A5
:1021B00029F580E290E0680E791E80EE9FEFAFEF88
:1021C000BFEF880E991EAA1EBB1E6E01C60CD71C3F
:1021D00090E289169104A104B104F0F681149104EF
:1021E000A104B10411F460E009C0730100E010E043
:1021F000C201B101A50194010E943B10862FDF911D
:10220000CF911F910F91FF90EF90DF90CF90BF90F3
:10221000AF909F908F907F906F905F904F903F9086
:102220002F900895CF92DF92EF92FF920F931F931A
:102230006C0166E070E080E090E026E030E040E095
:1022400050E0EE24FF2487010E943B10862F1F914F
:102250000F91FF90EF90DF90CF9008952F923F92D3
:102260004F925F926F927F928F929F92AF92BF92A6
:10227000CF92DF92EF92FF920F931F93DF93CF9352
:102280000F92CDB7DEB74B015C0129013A018FEF08
:1022900089832090330530903405C1010996B5013A
:1022A000A4010E942F1AB301A2010E942F1AB801A3
:1022B000A7010E942F1A81E092E0B1014CE00E9438
:1022C000801281E092E0BE016F5F7F4F0E94232168
:1022D000C60160E070E040E050E00E941A21698190
:1022E00070E080E090E00F90CF91DF911F910F910F
:1022F000FF90EF90DF90CF90BF90AF909F908F9026
:102300007F906F905F904F903F902F900895CF9265
:10231000DF92EF92FF920F931F936C0166E070E0E3
:1023200080E090E026E030E040E050E0EE24FF2442
:1023300087010E942E11862F1F910F91FF90EF9021
:10234000DF90CF9008956F927F928F929F92AF927D
:10235000BF92CF92DF92EF92FF920F931F93CF9392
:10236000DF936B014A01E90145E0642E712C660E92
:10237000771E93E0FB019583868389010E5F1F4FD3
:10238000CB010796B8010E944B1A7C013BE0A32EBB
:10239000B12CAC0CBD1CF3E0C93EDF0790F4BE01CC
:1023A0000E944B1AC701BE010E944B1AC501B4011D
:1023B000AE010E94FD342696C601BE010E94590C52
:1023C0004CC0CE0168EE73E00E94E836660F771FBE
:1023D000060F171FC701B8010E944B1AC70168EE0C
:1023E00073E00E944B1AD501F40188EE93E001904E
:1023F0000D920197E1F78E01085E134098EEE92EE9
:1024000093E0F92EE80CF91CC6016EEE73E00E9411
:10241000590C82E0C82ED12CC60CD71C1BC083E0FF
:10242000093E180720F4E80100E010E004C0085E4F
:102430001340C8EED3E0F301D183C083C601B701D6
:10244000AE010E94FD34EC0EFD1E2296C301BE01BA
:102450000E94590C0115110511F7DF91CF911F91C1
:102460000F91FF90EF90DF90CF90BF90AF909F9033
:102470008F907F906F900895EF92FF920F931F932C
:102480007B01890192E0FB01958386834783040FDA
:10249000111DCB010896B8010E944B1A0B5F1F4F0C
:1024A000C701B8010E94590C1F910F91FF90EF9046
:1024B0000895CF92DF92EF92FF920F931F936B01DB
:1024C000890192E0FB01958386834783040F151FE2
:1024D0000E0D1F1DCB010896B8010E944B1A0B5F11
:1024E0001F4FC601B8010E94590C60E070E080E007
:1024F00090E01F910F91FF90EF90DF90CF900895A3
:10250000EF92FF920F931F939C017B01042F9093F6
:102510002E0580932D0581E0FB018583CB01069676
:10252000B9010E944B1AFC01008310E00C5F1F4FA1
:10253000C701B8010E94590C80E090E01F910F91F3
:10254000FF90EF900895AF92BF92CF92DF92EF92FB
:10255000FF920F931F937093360560933505509348
:1025600038054093370530933A0520933905109389
:102570003E0500933D05F0924005E0923F05D09264
:102580004205C0924105B0924405A0924305909344
:102590003C0580933B0581E0809359051F910F9185
:1025A000FF90EF90DF90CF90BF90AF900895DF93B2
:1025B000CF9300D000D0CDB7DEB7FC01209133051A
:1025C00030913405009729F42FEF3FEF4FEF5FEF85
:1025D00028C08FEF9FEFAFEFBFEF89839A83AB8364
:1025E000BC8384E5808381838283D90119968C938F
:1025F000199781811A968C931A9782811B968C93D6
:102600008CE090E0B90143E00E9480128CE090E001
:10261000BE016F5F7F4F0E94232129813A814B8148
:102620005C81B901CA010F900F900F900F90CF916C
:10263000DF910895DF93CF9300D000D0CDB7DEB700
:102640008FEF9FEFAFEFBFEF89839A83AB83BC839C
:1026500060913305709134058BE090E040E00E947A
:1026600080128BE090E0BE016F5F7F4F0E942321BC
:1026700069817A818B819C810F900F900F900F90D0
:10268000CF91DF910895DF93CF9300D000D0CDB7E5
:10269000DEB78FEF9FEFAFEFBFEF89839A83AB83F6
:1026A000BC83609133057091340589E090E040E08F
:1026B0000E94801289E090E0BE016F5F7F4F0E9410
:1026C000232169817A818B819C810F900F900F90DB
:1026D0000F90CF91DF910895DF93CF9300D000D07A
:1026E000CDB7DEB78FEF9FEFAFEFBFEF89839A8350
:1026F000AB83BC83609133057091340582E090E038
:1027000040E00E94801282E090E0BE016F5F7F4F48
:102710000E94232169817A818B819C819B01209376
:102720001A0630931B060F900F900F900F90CF91C9
:10273000DF910895CF92DF92EF92FF920F931F9354
:10274000DF93CF9300D000D0CDB7DEB7AB01BC0193
:10275000EE24EA94FE2C8701E982FA820B831C8323
:10276000C0903305D0903405C60109960E942F1AF7
:10277000E982FA820B831C838AE090E0B60144E090
:102780000E9480128AE090E0BE016F5F7F4F0E943E
:10279000232169817A818B819C810F900F900F900A
:1027A0000F90CF91DF911F910F91FF90EF90DF90ED
:1027B000CF9008950F931F93DF93CF9300D000D055
:1027C000CDB7DEB7AB01BC01DB01CA0188709078E0
:1027D000A070B07088509048A040B040A9F410920A
:1027E0005905483080E8580780E0680780E078079E
:1027F00029F420E030E040E050E02AC0477F5F77D6
:1028000060707070506803C081E0809359058FEF4D
:102810009FEFAFEFBFEF89839A83AB83BC830091B7
:10282000330510913405C80109960E942F1A88E0DB
:1028300090E0B80144E00E94801288E090E0BE0180
:102840006F5F7F4F0E94232129813A814B815C81F8
:10285000B901CA010F900F900F900F90CF91DF91A7
:102860001F910F9108952F923F924F925F926F9216
:102870007F928F929F92AF92BF92CF92DF92EF9210
:10288000FF920F931F93DF93CF93CDB7DEB72897B7
:102890000FB6F894DEBF0FBECDBF3B014C0119014E
:1028A0002A018DA58F839EA59887809133059091ED
:1028B00034059E838D83099644E250E060E070E029
:1028C0000E942F1AB401A3010E942F1AB201A10184
:1028D0000E942F1AB801A7010E942F1AB601A50164
:1028E0000E942F1A4D8D5E8D6F8D78A10E942F1A38
:1028F00049A15AA16BA17CA10E942F1A4DA15EA1F2
:102900006FA178A50E942F1A49A55AA56BA57CA591
:102910000E942F1ADC018F819885FC019F01205CA9
:102920003F4F02C081918D93E217F307D9F783E0FF
:1029300090E06D817E8144E60E94801283E090E009
:10294000BE016F5F7F4F0E94232169817A818B8155
:102950009C8128960FB6F894DEBF0FBECDBFCF91F5
:10296000DF911F910F91FF90EF90DF90CF90BF907C
:10297000AF909F908F907F906F905F904F903F901F
:102980002F900895CF92DF92EF92FF920F931F93B3
:102990008B019C016A01E0903305F0903405C7017A
:1029A0000996B901A8010E942F1A87E090E0B701AB
:1029B00044E00E94801287E090E0B6010E9423214B
:1029C00060E070E080E090E01F910F91FF90EF9049
:1029D000DF90CF9008950F931F93DF93CF9300D094
:1029E00000D0CDB7DEB7AB01BC010091330510912B
:1029F0003405C80109960E942F1A8FEF9FEFAFEFA1
:102A0000BFEF89839A83AB83BC8386E090E0B801F3
:102A100044E00E94801286E090E0BE016F5F7F4F2D
:102A20000E94232169817A818B819C810F900F9074
:102A30000F900F90CF91DF911F910F9108954F92BA
:102A40005F926F927F928F929F92AF92BF92CF923E
:102A5000DF92EF92FF920F931F93DF93CF9300D0FB
:102A600000D0CDB7DEB75B016C0139014A018FEFB1
:102A70009FEFAFEFBFEF89839A83AB83BC83409016
:102A8000330550903405C2010996B601A5010E9494
:102A90002F1AB401A3010E942F1AB801A7010E94A6
:102AA0002F1A84E090E0B2014CE00E94801284E092
:102AB00090E0BE016F5F7F4F0E94232169817A8180
:102AC0008B819C810F900F900F900F90CF91DF9191
:102AD0001F910F91FF90EF90DF90CF90BF90AF903C
:102AE0009F908F907F906F905F904F9008952F925E
:102AF0003F924F925F926F927F928F929F92AF928E
:102B0000BF92CF92DF92EF92FF920F931F93DF93CA
:102B1000CF93CDB7DEB764970FB6F894DEBF0FBE84
:102B2000CDBF3B014C01588B4F871801290187010C
:102B3000A98ABA8ACB8ADC8AC9A4DAA4EBA4FCA449
:102B400095E0A92EB12CAC0EBD1E86E0D5011D92DC
:102B50008A95E9F7E0913305F0913405FE87ED871A
:102B6000CF010996B401A3010E942F1AF1E06F165C
:102B700071048104910409F45DC021E062167104BE
:102B80008104910440F0A4E06A1671048104910468
:102B900008F075C1E8C044E150E060E070E00E94D8
:102BA0002F1AB201A1010E942F1A60E070E00E946A
:102BB0004B1AAC010115110571F0DC0120E030E089
:102BC000F801E20FF31F80818D932F5F3F4F263076
:102BD0003105B1F70AC0F501DC019E01255F3F4FC9
:102BE00081918D93E217F307D9F7CA0106964989B7
:102BF0005A896B897C890E942F1ABC0120E030E041
:102C000040E050E00EC0F901DB01A20FB31F8F8539
:102C10009889E80FF91F80818C932F5F3F4F4F4FAA
:102C20005F4F221533054405550568F38101085EA1
:102C30001F4F25C140E250E060E070E00E942F1A73
:102C4000B201A1010E942F1A60E070E00E944B1AAD
:102C5000AC010115110571F0DC0120E030E0F80154
:102C6000E20FF31F80818D932F5F3F4F2630310598
:102C7000B1F70AC0F501DC019E01255F3F4F81914C
:102C80008D93E217F307D9F7CA01069649895A8945
:102C90006B897C890E942F1AB201A101445F5F4FAA
:102CA0006F4F7F4F0E942F1AB701A6010E942F1A63
:102CB0004DA55EA56FA578A90E942F1ABC0120E042
:102CC00030E040E050E00EC0F901DB01A20FB31F7D
:102CD0008F859889E80FF91F80818C932F5F3F4F74
:102CE0004F4F5F4F221533054405550568F3DB014F
:102CF000A20DB31DBC87AB87360100E010E060E099
:102D000070E08B849C84860E971EADA8BEA8A60E8C
:102D1000B71E20E030E040E050E00CC0F901D401E3
:102D2000A20FB31FEA0DFB1D80818C932F5F3F4FD5
:102D30004F4F5F4F2C153D054E055F0578F30F5F34
:102D40001F4F660D771D04301105D9F681010C5D0A
:102D50001F4F82E0CC0CDD1CEE1CFF1C8A95D1F7C6
:102D60000C0D1D1D8CC048E250E060E070E00E9438
:102D70002F1AB201A1010E942F1A60E070E00E9498
:102D80004B1AAC010115110571F0DC0120E030E0B7
:102D9000F801E20FF31F80818D932F5F3F4F2630A4
:102DA0003105B1F70AC0F501DC019E01255F3F4FF7
:102DB00081918D93E217F307D9F7CA0106964989E5
:102DC0005A896B897C890E942F1AB701A6010E943B
:102DD0002F1A4DA55EA56FA578A90E942F1A49A9A3
:102DE0005AA96BA97CA90E942F1AB201A101485FC0
:102DF0005F4F6F4F7F4F0E942F1A4FA958AD69AD9B
:102E00007AAD0E942F1ABC0120E030E040E050E093
:102E10000EC0F901DB01A20FB31F8F859889E80F5F
:102E2000F91F80818C932F5F3F4F4F4F5F4F2215CB
:102E300033054405550568F3620D731D20E030E04D
:102E400040E050E00EC0F901DB01A20FB31F8DA9D5
:102E50009EA9E80FF91F80818C932F5F3F4F4F4F42
:102E60005F4F8FA998ADA9ADBAAD281739074A07AA
:102E70005B0748F38101045D1F4F080F191F85E0B0
:102E800090E06D857E85402F0E94801285E090E065
:102E9000BE016F5F7F4F0E94232169817A818B8100
:102EA0009C8164960FB6F894DEBF0FBECDBFCF9164
:102EB000DF911F910F91FF90EF90DF90CF90BF9027
:102EC000AF909F908F907F906F905F904F903F90CA
:102ED0002F9008958F929F92AF92BF92CF92DF92E0
:102EE000EF92FF920F931F93CF93DF938AE595E0C4
:102EF0000E94642A6B017C016115710581059105B1
:102F000009F0EBC06DE070E080E090E023E430E099
:102F100040E050E0EE24FF248701EAEECE2EE4E00C
:102F2000DE2E0E942E116B017C0161157105810559
:102F3000910509F0D2C08091EA04882E9924AA2430
:102F4000BB24C82FD0E0C351DB4FCE016AE575E04A
:102F50000E94342AE091EA04F0E0E651FB4F8181BF
:102F6000813130F0CE0140966AE575E00E94342A46
:102F70008F8D9881882369F09F3129F020E230E01D
:102F800040E050E00BC021962FE130E040E050E0FF
:102F900005C0292F30E040E050E02196E091EA049E
:102FA000F0E0E651FB4F8281813061F1813020F009
:102FB000843008F092C04AC08DB79EB742970FB6D2
:102FC000F8949EBF0FBE8DBFEDB7FEB73196ADB77B
:102FD000BEB711961D921D921D921C9214971482D9
:102FE0001582168217821086118612861386158620
:102FF000148616861786108A118A60E070E080E0D9
:1030000090E054C0ADB7BEB752970FB6F894BEBFAC
:103010000FBEADBFEDB7FEB7319611962D933D9320
:103020004D935C9314971482158216821782108632
:10303000118612861386D587C48716861786108A4E
:10304000118A61E070E080E090E030C0ADB7BEB7BB
:1030500052970FB6F894BEBF0FBEADBFEDB7FEB727
:10306000319618E1C12ED12CE12CF12C1196CD9284
:10307000DD92ED92FC9214978EE190E0A0E0B0E03A
:1030800084839583A683B78382E090E0A0E0B0E0DC
:1030900080879187A287B387D587C487268737879C
:1030A000408B518B63E070E080E090E04BEE54E0A9
:1030B00095018401EE24FF24E1E0AE2EB12CC12C59
:1030C000D12C0E9477156B017C018DB79EB742967B
:1030D0000FB6F8949EBF0FBE8DBFB601C701DF913A
:1030E000CF911F910F91FF90EF90DF90CF90BF9005
:1030F000AF909F908F9008952F923F924F925F9242
:103100006F927F928F929F92AF92BF92CF92DF92F7
:10311000EF92FF920F931F93DF93CF93CDB7DEB75C
:1031200060970FB6F894DEBF0FBECDBF2B013C01F8
:103130005C874B870D871E872F87388B16018E0182
:103140000B5F1F4F86E0D8011D928A95E9F78FEF3C
:103150009FEFAFEFBFEF89839A83AB83BC83C090AF
:103160003305D0903405C60109964CE150E060E08B
:1031700070E00E942F1A4D855E856F8578890E94C8
:103180002F1AB301A2010E942F1A4D855E856F850B
:103190007889405F5F4F6F4F7F4F0E942F1AB501B4
:1031A000A4010E942F1A60E070E00E944B1ADC011B
:1031B000E114F10481F0AC0120E030E0F701E20F0E
:1031C000F31F8081FA018193AF012F5F3F4F2630BB
:1031D0003105A1F70EC0B8019C01AE01455F5F4FFC
:1031E000FB018191BF01F90181939F01641775076C
:1031F000B9F7BD016A5F7F4F20E030E040E050E06A
:103200000CC0EB85FC85E20FF31F8081DB018D9301
:10321000BD012F5F3F4F4F4F5F4F8D859E85AF851F
:10322000B889281739074A075B075CF381149104B2
:10323000A104B104C9F021143104B1F020E030E060
:1032400040E050E00CC0F901DB01A20FB31FE20D1A
:10325000F31D80818C932F5F3F4F4F4F5F4F281599
:1032600039054A055B057CF34D85445E480D81E0D8
:1032700090E0B6010E94801281E090E0BE016F5F95
:103280007F4F0E94232169817A818B819C819B01E0
:1032900020931A0630931B0660960FB6F894DEBF93
:1032A0000FBECDBFCF91DF911F910F91FF90EF9097
:1032B000DF90CF90BF90AF909F908F907F906F9056
:1032C0005F904F903F902F900895E0914305F091CB
:1032D000440580E00995E0913D05F0913E05099592
:1032E0006115710581059105B1F3809133059091C8
:1032F0003405892B21F010923405109233050E9479
:10330000C30A0895EF92FF920F931F93CF93DF9319
:10331000EC01109251051092520510925305109233
:1033200054051092550510925605109257051092AB
:10333000580510922E0510922D0510924A051092F4
:10334000490510924C0510924B0510924E051092B3
:103350004D051092500510924F05109245051092A0
:1033600046051092470510924805109230051092BC
:103370002F05109232051092310570933405609339
:10338000330581E29AE10E948109E0913D05F091C7
:103390003E0509957B018C01E0914305F0914405C0
:1033A00081E00995E114F1040105110559F0E0915E
:1033B0003D05F0913E050995611571058105910561
:1033C000B1F714C0E0913D05F0913E0509956115F6
:1033D000710581059105B1F3E0913D05F0913E0540
:1033E00009956115710581059105B1F7E0913305E6
:1033F000F09134051186CD2B11F081E0818780E0BA
:1034000090E4BF0141E00E94801280E090E460E01F
:1034100070E00E94232160913305709134058BE0A8
:1034200090E440E00E9480128BE090E460E070E065
:103430000E942321DF91CF911F910F91FF90EF9078
:10344000089521E030E03093300520932F059093CC
:103450003205809331050E94311D08950895CF9360
:10346000DF93FC01DC014D939D01BB27A72F962F15
:10347000852F8183F9013196CB01AA27BB27E9016A
:103480008983472F55276627772741833296CF01B7
:10349000DF91CF910895DC01FC01619311967C933B
:1034A0003196CF010895FB01E80FF91F318120E02B
:1034B0008081280F311DC9010895FB01E80FF91F14
:1034C0002381332727FD3095432F532F522F442735
:1034D000332722278281992787FD9095A92FB92F1D
:1034E000DC0199278827280F391F4A1F5B1F80811D
:1034F000992787FD9095A92FB92F280F391F4A1FAB
:103500005B1F8181992787FD9095A92FB92FBA2F2D
:10351000A92F982F8827280F391F4A1F5B1FB90131
:10352000CA010895AF92BF92CF92DF92EF92FF92BD
:103530000F931F9359016A01683071058105910548
:10354000A0F522E0A216B104C104D10470F521E077
:1035500030E0062E02C0220F331F0A94E2F72095B6
:103560003095442737FD4095542FE0901201F0909C
:10357000130100911401109115012E213F214023C8
:103580005123062E04C0AA0CBB1CCC1CDD1C0A94C3
:10359000D2F72A293B294C295D2920931201309327
:1035A000130140931401509315011F910F91FF9047
:1035B000EF90DF90CF90BF90AF9008959B01AC014A
:1035C0006830710581059105E8F481E090E002C062
:1035D000880F991F2A95E2F79C01442737FD4095F3
:1035E000542F8091120190911301A0911401B09178
:1035F0001501282339234A235B2321153105410571
:10360000510521F021E030E040E050E0B901CA016D
:1036100008958F929F92AF92BF92CF92DF92EF92D6
:10362000FF920F931F93DF93CF93CDB7DEB7A99788
:103630000FB6F894DEBF0FBECDBF8C0161E070E025
:103640000E94531ABC0196FF6DC021E4803092079E
:1036500009F068C0C80165E070E00E94531A4C018F
:1036600097E0A92EB12CA00EB11ECC24DD24EE24AF
:10367000FF24870112C0C50162E070E00E94531A66
:10368000A0E0B0E0E80EF91E0A1F1B1F84E090E0E6
:10369000A80EB91E0894C11CD11CC814D90458F333
:1036A0008091490590914A058E0D9F1D90934A0582
:1036B000809349058091550590915605A091570535
:1036C000B0915805E80EF91E0A1F1B1FE092550520
:1036D000F092560500935705109358052091550513
:1036E00030915605409157055091580580915105EC
:1036F00090915205A0915305B091540528173907B0
:103700004A075B0709F0ADC080915905882309F489
:10371000A8C0E0913B05F0913C0569E970E080E0CC
:1037200090E048C077FFFAC090E86034790709F468
:103730009DC0A0E861347A07A0F4B0E864307B074C
:1037400061F1E0E865307E0738F4CB0181509048A4
:10375000029708F06DC121C06051704809F068C13E
:103760002DC024E860307207C1F084E8613078072A
:1037700050F490E86038790781F0A2E860307A0769
:1037800009F056C10AC0B8E860307B0709F4B2C03E
:10379000E9E860307E0709F04BC180913B059091CC
:1037A0003C05892B09F45DC0E0913B05F0913C0597
:1037B00080E090E040E050E020E052C0F801359613
:1037C000D80115968C9115978D8B81818E8B828176
:1037D0008F8B8381888FF801399619968C91199770
:1037E000898F81818A8F82818B8F83818C8FF80171
:1037F0003D961D968C911D978D8F81818E8F828134
:103800008F8F838188A3F801719651968C9151977F
:1038100089A381818AA382818BA383818CA3F801F0
:10382000759655968C9155978DA381818EA3828133
:103830008FA3838188A714968C9189A780913B05DB
:1038400090913C05892B69F0E0913B05F0913C0596
:1038500060E170E880E090E0AE014B5E5F4F25E1F3
:10386000099521E030E040E050E0E6C00B5F1F4FDB
:10387000C80160E070E00E945D1A69837A838B83DF
:103880009C83C80164E070E00E945D1A6D837E83B2
:103890008F839887C80168E070E00E945D1A69878D
:1038A0007A878B879C87C8016CE070E00E945D1A64
:1038B0006D877E878F87988BC80160E170E00E94DA
:1038C0005D1A9B01AC0180913B0590913C05892BD1
:1038D00041F2E0913B05F0913C05298B3A8B4B8BF3
:1038E0005C8B60E470E880E090E0AE014F5F5F4F7A
:1038F00024E1B6CF80913B0590913C05892B09F4DA
:10390000B0CFE0913B05F0913C050B5F1F4F60E0AD
:1039100078E880E090E0A80121E0A2CFB0E1633038
:103920007B0749F0E0E16F307E0729F0F0E16E306F
:103930007F0709F06AC085E0C82ED12CC00ED11EC9
:10394000C60164E070E00E945D1A675C7F4F8F4F94
:103950009F4F09F06DC0D80114968C9190E0A0E0C3
:10396000B0E08093450590934605A0934705B0933A
:103970004805C60160E070E00E945D1A7B018C0181
:10398000C60164E070E00E945D1A675C7F4F8F4F54
:103990009F4F09F066CFE8E0EE16F104010511052E
:1039A00008F05FCF81E090E00E2C02C0880F991FD5
:1039B0000A94E2F780959095AA2797FDA095BA2FD3
:1039C0002091120130911301409114015091150181
:1039D00082239323A423B52321E030E040E050E08C
:1039E0000E2C04C0220F331F441F551F0A94D2F718
:1039F000822B932BA42BB52B809312019093130150
:103A0000A0931401B09315012CCF80912D059091B6
:103A10002E056817790761F090E06050704109F455
:103A200091E081E09827292F30E040E050E004C089
:103A300020E030E040E050E0B901CA01A9960FB69D
:103A4000F894DEBF0FBECDBFCF91DF911F910F91D4
:103A5000FF90EF90DF90CF90BF90AF909F908F90AE
:103A6000089580912F0590913005892BD1F0E09138
:103A70003105F09132058081843099F4CF010E94A4
:103A8000091B613071058105910559F410923005CB
:103A900010922F050E94CA0A21E030E040E050E079
:103AA00004C020E030E040E050E0B901CA010895D0
:103AB000DF93CF9300D000D0CDB7DEB719821A8242
:103AC0001B821C82FC018581823021F1833009F444
:103AD0003FC0813009F05FC0809137059091380573
:103AE000892B91F0E0913705F0913805CE010196D0
:103AF0000995AC01009741F0609133057091340550
:103B000029813A8181E045C0609133057091340587
:103B100081E03BC08091350590913605892B91F06D
:103B2000E0913505F0913605CE0101960995AC017D
:103B3000009741F0609133057091340529813A81F5
:103B400082E027C0609133057091340582E01DC08A
:103B50008091390590913A05892B91F0E0913905D2
:103B6000F0913A05CE0101960995AC01009741F01C
:103B7000609133057091340529813A8183E009C051
:103B8000609133057091340583E040E050E020E01F
:103B900030E00E94A3110F900F900F900F90CF91E3
:103BA000DF9108954F925F926F927F928F929F92D2
:103BB000AF92BF92CF92DF92EF92FF920F931F933B
:103BC000CF93DF936C012B013A01AA24BB2480918F
:103BD0002F0590913005892BD1F38090310590907D
:103BE0003205D4018C91843009F0BFC2C40161E078
:103BF00070E00E94531A5C01C4010E94091B611508
:103C000071058105910509F0A4C2E4012596B8E08B
:103C1000AB16B0E1BB0608F056C0E6E0AE16E0E138
:103C2000BE0608F0CCC0F2E0AF16F2E0BF0609F421
:103C3000C6C003E0A01602E0B00600F51DE0A11624
:103C4000B10480F468E0A616B10408F0B8C081E0C1
:103C5000A816B10408F47DC297E0A916B10408F4CF
:103C6000AEC0D4C1ADE0AA16B10409F4A3C0B1E05E
:103C7000AB16B2E0BB0609F06CC29CC0E3E0AE1626
:103C8000E0E1BE0698F4F1E0AF16F0E1BF0608F0FF
:103C900096C005E0A01602E0B00608F48BC017E05D
:103CA000A11612E0B10609F054C28DC064E0A61658
:103CB00060E1B60609F4DCC085E0A81680E1B8062C
:103CC00008F0B1C042C191E1A91690E1B90609F42A
:103CD00071C0A2E1AA16A0E1BA0658F5BBE0AB1686
:103CE000B0E1BB0609F46BC0ECE0AE16E0E1BE0645
:103CF00068F4F9E0AF16F0E1BF0609F460C00AE02D
:103D0000A01600E1B00608F073C13AC11FE0A11689
:103D100010E1B10609F419C160E1A61660E1B6062A
:103D200008F061C08DE0A81680E1B80609F011C264
:103D30009FC095E0A91690E2B90609F4A4C1A6E0D7
:103D4000AA16A0E2BA0668F4B2E1AB16B0E1BB066F
:103D500009F460C0E1E0AE16E0E2BE0608F4F9C185
:103D600029C0FAE0AF16F0E2BF0660F408E0A01642
:103D700000E2B006F8F416E0A11610E2B10609F070
:103D8000E8C118C06BE0A61660E4B60609F0E1C110
:103D9000D40115968C9190E090934A058093490543
:103DA000CE0161E070E00E94531A90934C0580931D
:103DB0004B05CFC1E4018C81F6018083CAC1CE01DD
:103DC00060E070E01EC0F4018481D6018D936D0126
:103DD000CE0160E070E00E945D1AAB01BC01C6013B
:103DE0000E942F1AB6C1CE0160E070E00E945D1AF9
:103DF000F60161937193819391936F01CE0164E019
:103E000070E00E945D1AD6016D937D938D939C9313
:103E100013979FC1CE0160E070E00E94531AE60143
:103E20009983888396C1CE0160E070E00E945D1A9C
:103E3000F60161937193819391938F01CE0164E0B8
:103E400070E00E945D1AD60114966D937D938D9358
:103E50009C931797E4E0CE2ED12CC00ED11ED60134
:103E6000FE01389680E101900D928150E1F771C119
:103E7000CE0160E070E00E945D1AF60161937193DB
:103E8000819391938F01CE0164E070E00E945D1AEE
:103E9000D60114966D937D938D939C93179774E040
:103EA000C72ED12CC00ED11ECE0168E070E00E945A
:103EB0005D1A9B01AC01E8016C837D838E839F8337
:103EC000F60184819581A681B781875C9F4FAF4FB2
:103ED000BF4F09F03EC1283031054105510508F0BA
:103EE00038C1822F21E030E0082E02C0220F331F9C
:103EF0000A94E2F720953095442737FD4095542FDA
:103F0000E0901201F090130100911401109115013D
:103F10002E213F214023512361E0E62EF12C012D7B
:103F2000112D04C0EE0CFF1C001F111F8A95D2F743
:103F30002E293F29402B512B20931201309313013E
:103F4000409314015093150104C1CE0160E070E06C
:103F50000E945D1AD6016D937D938D939D938D0183
:103F6000CE0164E070E00E945D1AE6016C837D83FF
:103F70008E839F8354E0C52ED12CC00ED11EE9C084
:103F8000CE0160E070E00E945D1AF60161937193CA
:103F9000819391938F01CE0164E070E00E945D1ADD
:103FA000D60114966D937D938D939C93179744E05F
:103FB000E42EF12CE00EF11ECE0168E070E00E94CC
:103FC0005D1AF801648375838683978334E0C32E7A
:103FD000D12CCE0CDF1CCE016CE070E00E945D1A8B
:103FE000D70114966D937D938D939C931797B1C0D1
:103FF000E4018C81F60184838D819E81AF81B88537
:10400000E60188839983AA83BB83A3C0CE0160E0C5
:1040100070E00E945D1AF601619371938193919310
:104020008F01CE0164E070E00E945D1AD601149603
:104030006D937D938D939C931797CE0168E070E00C
:104040000E94531AA0E0B0E0F80184839583A68310
:10405000B783CE016AE070E00E94531AA0E0B0E09E
:10406000F60182879387A487B5872CE0E22EF12C96
:10407000CE0CDF1CD601FE013C9686E201900D922B
:104080008150E1F766C0D40115968C91F6018193B9
:104090008981D60111968C9311978A8181838B81B6
:1040A00082831496F4013996E4018985E6018C83B4
:1040B00081818D8382818E8383818F839D012C5F9B
:1040C0003F4FF4013D96E4018D8514968C9314972F
:1040D0008181E601898782818A8783818B87F401C8
:1040E0007196E4018989E9018C838181E6018D87DC
:1040F00082818E8783818F87F4017596E4018D8993
:10410000E901888781811D968C931D9782811E9677
:104110008C931E9783811F968C93E4019601F40182
:10412000D601A4014A5F5F4F818D54968C935497BA
:1041300031961196E417F507B9F7A401405E5F4F79
:104140008F8DF901828F21962F5F3F4FC417D507BE
:10415000B9F780912D0590912E05A816B906B9F5ED
:1041600010922E0510922D0532C0D40112960C919A
:10417000C40163E070E00E94531AEC014114510441
:10418000A1F0C401059664E070E00E945D1A462F1C
:10419000F301608371838283938394012B5E3F4F8D
:1041A000C201B90150E00E94FD34202F30E0FE0131
:1041B000E21BF30B2B5F3F4F280D391DC601B901E0
:1041C000AF010E94FD341092500510924F051092DD
:1041D000300510922F050E94CA0AD4018C918430B8
:1041E00041F4B0E0AB16B0E1BB0619F4C4010E9483
:1041F000581D80912D0590912E05892B09F0E7CC53
:1042000080914F0590915005892B09F0E0CC80E01A
:1042100090E0DF91CF911F910F91FF90EF90DF9091
:10422000CF90BF90AF909F908F907F906F905F9056
:104230004F90089521E030E03093500520934F05D2
:104240000E94D21D0895CB0160E070E040E050E094
:104250000E94D21D0895EF92FF920F931F93CF9368
:10426000DF93AC0120E030E0FA01E20FF31FDB0145
:10427000A20FB31F8C9180832F5F3F4F20313105F8
:1042800099F7EA0181E0E82EF12C0C85A02FB0E02F
:10429000F701EA5EFC4F9081888198271D85E12F08
:1042A000F0E0EA5EFE4F80819827988B7E85E72FAD
:1042B000F0E0EA5EFE4F408189814827498B6F8597
:1042C000E62FF0E0EA5EFE4F30818A8138273A8B94
:1042D000AA5EBE4F2C918B8128272B8B8C8189273E
:1042E0008C8B9D8194279D8B4E8143274E8B5F81C4
:1042F00052275F8B38853827388F29852927298FC2
:104300009A8594279A8F8B8585278B8F30273C8FB2
:1043100021272D8F97279E8F86278F8F0894E11C4A
:10432000F11C60968BE0E816F10409F0AECFDF9146
:10433000CF911F910F91FF90EF900895982F990FB3
:1043400087FF03C08BE189270895892F08952F9255
:104350003F924F925F926F927F928F929F92AF9215
:10436000BF92CF92DF92EF92FF920F931F93DF9352
:10437000CF93CDB7DEB762970FB6F894DEBF0FBE0E
:10438000CDBF9A8B898B9B0100E004969A83898329
:1043900089899A8908969C838B83A989BA891C96F6
:1043A000BE83AD83E989FA893196F887EF838989DD
:1043B0009A8905969A878987A989BA891996BC87A7
:1043C000AB87E989FA893D96FE87ED8712E0212EB9
:1043D000312C89899A89280E391EB6E04B2E512C32
:1043E000480E591EAAE06A2E712C680E791EFEE056
:1043F0008F2E912C880E991EEFE0AE2EB12CA80EB8
:10440000B91E5BE0C52ED12CC80ED91E47E0E42EA4
:10441000F12CE80EF91E0396988B8F871BE1A98972
:10442000BA89EC91DB018C91E827F0E0EA5EFE4F5F
:104430008081E989FA898083A981BA81EC91DB01C5
:1044400014968C91E827F0E0EA5EFE4F8081E981C6
:10445000FA818083AB81BC81EC91DB0118968C9151
:10446000E827F0E0EA5EFE4F8081EB81FC818083EB
:10447000AD81BE81EC91DB011C968C91E827F0E0C8
:10448000EA5EFE4F8081ED81FE818083EF81F885B9
:10449000A081FB018181A827E985FA859081FB0134
:1044A00085819827E92FF0E0EA5EFE4F8081EF8159
:1044B000F8858083EB85FC859081FB0181859827B9
:1044C000E92FF0E0EA5EFE4F8081E985FA8580837E
:1044D000ED85FE859081FB0185859827E92FF0E029
:1044E000EA5EFE4F8081EB85FC858083B0E0AA5EAA
:1044F000BE4F8C91AD85BE858C93F101A081FB01EF
:104500008281A827F2019081FB0186819827F3011F
:104510004081FB0182854827E42FF0E0EA5EFE4FF0
:104520008081F1018083F4014081FB018685482769
:10453000E42FF0E0EA5EFE4F8081F2018083B0E07C
:10454000AA5EBE4F8C91D3018C93E92FF0E0EA5E16
:10455000FE4F8081F4018083F501A081FB018785F6
:10456000A827F6019081FB0183859827E92FF0E0C9
:10457000EA5EFE4F8081F5018083F7019081FB01A7
:1045800087819827E92FF0E0EA5EFE4F8081F601EF
:104590008083EF85F8899081FB0183819827E92F3B
:1045A000F0E0EA5EFE4F8081F7018083B0E0AA5E12
:1045B000BE4F9C91AF85B8899C93A989BA89EC912B
:1045C000AF81B8858C918E27D1014C91482749271E
:1045D000982F990F87FD9127842F8E278927A989E6
:1045E000BA898C93AF81B8859C91D1018C91892730
:1045F000582F550F87FF03C0852F812701C0852FB6
:1046000094279827AF81B8859C93D1019C91AF8561
:10461000B8898C918927582F550F87FF03C0852FA4
:10462000812701C0852F94279827D1019C93AF85BE
:10463000B8895C91852F8E27982F990F87FF03C02B
:10464000892F812701C0892F45274827EF85F889C1
:104650004083A981BA81EC91A985BA859C919E2756
:10466000D7014C91D2018C9148274927892F880F77
:1046700097FF03C0982F912701C0982F842F8E2772
:104680008927A981BA818C93A985BA859C91D20189
:104690008C918927582F550F87FF03C0852F8127BD
:1046A00001C0852F94279827A985BA859C93D201AC
:1046B0009C91D7018C918927582F550F87FF03C0F4
:1046C000852F812701C0852F94279827D2019C939D
:1046D000D7015C91852F8E27982F990F87FF03C0F4
:1046E000892F812701C0892F45274827F70140835B
:1046F000AB81BC81EC91AB85BC859C919E27D6019A
:104700004C91D3018C9148274927892F880F97FF17
:1047100003C0982F912701C0982F842F8E278927B7
:10472000AB81BC818C93AB85BC859C91D3018C9172
:104730008927582F550F87FF03C0852F812701C078
:10474000852F94279827AB85BC859C93D3019C919A
:10475000D6018C918927582F550F87FF03C0852FCD
:10476000812701C0852F94279827D3019C93D601D8
:104770005C91852F8E27982F990F87FF03C0892F73
:10478000812701C0892F45274827F6014083AD8145
:10479000BE81EC91AD85BE859C919E27D5014C9143
:1047A000D4018C9148274927892F880F97FF03C090
:1047B000982F912701C0982F842F8E278927AD81AC
:1047C000BE818C93AD85BE859C91D4018C91892747
:1047D000582F550F87FF03C0852F812701C0852FD4
:1047E00094279827AD85BE859C93D4019C91D501D3
:1047F0008C918927582F550F87FF03C0852F81275C
:1048000001C0852F94279827D4019C93D5015C91F2
:10481000852F8E27982F990F87FF03C0892F812717
:1048200001C0892F45274827F50140830F5F605F4E
:104830007F4F093009F0F3CD20573F4FD901EC915C
:10484000A989BA898C91E827F0E0EA5EFE4F808161
:104850008C932C5F3F4FD901EC91A989BA891496AA
:104860008C911497E827F0E0EA5EFE4F8081149661
:104870008C932C5F3F4FD901EC91A989BA89189686
:104880008C911897E827F0E0EA5EFE4F8081189639
:104890008C932C5F3F4FD901EC91A989BA891C9662
:1048A0008C911C97E827F0E0EA5EFE4F80811C9611
:1048B0008C932B503040F901A081E989FA898181DC
:1048C000A8272C5F3F4FF9019081E989FA898581FA
:1048D0009827E92FF0E0EA5EFE4F8081E989FA89A6
:1048E00081832C5F3F4FF9019081E989FA898185A5
:1048F0009827E92FF0E0EA5EFE4F8081E989FA8986
:1049000085832C5F3F4FF9019081E989FA8985857C
:104910009827E92FF0E0EA5EFE4F8081E989FA8965
:104920008187B0E0AA5EBE4F8C9185872B503040C6
:10493000F901A081E989FA898281A8272C5F3F4F7C
:10494000F9019081E989FA89868198272C5F3F4F88
:10495000F9014081E989FA8982854827E42FF0E04E
:10496000EA5EFE4F8081E989FA8982832C5F3F4F9E
:10497000F90141919F01E989FA8986854827E42F49
:10498000F0E0EA5EFE4F8081E989FA898683B0E033
:10499000AA5EBE4F8C918287E92FF0E0EA5EFE4F5F
:1049A0008081A989BA891E968C93F901A081E98931
:1049B000FA898785A82724503040F9019081E98938
:1049C000FA8983859827E92FF0E0EA5EFE4F80811F
:1049D000E989FA89878724503040F9019081E98973
:1049E000FA8987819827E92FF0E0EA5EFE4F8081FF
:1049F000E989FA89838724503040F9019081E98957
:104A0000FA8983819827E92FF0E0EA5EFE4F8081E2
:104A1000E989FA898783B0E0AA5EBE4F8C918383CF
:104A2000235F3F4F8081D9019D91892780838181B8
:104A3000FD0191918927A989BA8911968C931197C3
:104A400012968C9112979191892712968C931297B6
:104A500013968C91DF019D918927E989FA898383D7
:104A600084819D91892784838581FD019191892786
:104A7000A989BA8915968C93159716968C911697D5
:104A80009191892716968C93169717968C91DF0132
:104A90009D918927E989FA89878380859D91892756
:104AA00080878185FD0191918927A989BA89199605
:104AB0008C9319971A968C911A97919189271A9627
:104AC0008C931A971B968C91DF019D918927E98918
:104AD000FA89838784859D91892784878585FD014F
:104AE00091918927A989BA891D968C931D971E9645
:104AF0008C911E97919189271E968C931E971F96D5
:104B00008C911F97908189271F968C9362960FB680
:104B1000F894DEBF0FBECDBFCF91DF911F910F91F3
:104B2000FF90EF90DF90CF90BF90AF909F908F90CD
:104B30007F906F905F904F903F902F9008952F92AD
:104B40003F924F925F926F927F928F929F92AF921D
:104B5000BF92CF92DF92EF92FF920F931F93DF935A
:104B6000CF93CDB7DEB72F970FB6F894DEBF0FBE49
:104B7000CDBF9F878E87DB01A056BF4FFC01808190
:104B80009D91892781937F01EE85FF8581819D918C
:104B90008927818342E0242E312C2E0E3F1E8281F4
:104BA0009D918927828333E0432E512C4E0E5F1E48
:104BB00083819D91892783833496FD87EC87EE85D9
:104BC000FF8584819D91892784833596FB87EA87B9
:104BD000EE85FF8585819D918927858326E0622E5C
:104BE000712C6E0E7F1E86819D918927868397E0AA
:104BF000892E912C8E0E9F1E87819D9189278783F8
:104C00003896F987E887EE85FF8580859D9189270D
:104C100080873996FF83EE83EE85FF8581859D91A0
:104C2000892781878AE0A82EB12CAE0EBF1E82850F
:104C30009D91892782870BE0C02ED12CCE0EDF1EDE
:104C400083859D91892783873C96FD83EC83EE8540
:104C5000FF8584859D91892784873D96FB83EA8320
:104C6000EE85FF8585859D91892785878F01025F68
:104C70001F4F86859D9189278687BF01615F7F4F82
:104C800087859C91892787875F978081E82FF0E04F
:104C9000EA5EFD4F8C9190818927EE85FF858083A8
:104CA0008481E82FF0E0EA5EFD4F149680819C91AC
:104CB0008927EE85FF8584838085E82FF0E0EA5E12
:104CC000FD4F149680819C918927EE85FF85808712
:104CD0008485E82FF0E0EA5EFD4F149680819C9178
:104CE0008927EE85FF8584878585E82FF0E0EA5ED9
:104CF000FD4F1B9720818C912827EE85FF858185AC
:104D0000E82FF0E0EA5EFD4F1C9680819C91892798
:104D1000EE85FF8585878581E82FF0E0EA5EFD4F0F
:104D2000149780819C918927EE85FF8581878181F9
:104D3000E82FF0E0EA5EFD4F149780819C9189276F
:104D4000EE85FF85858321838281E82FF0E0EA5E8E
:104D5000FD4F159630818C913827EE85FF85868131
:104D6000E82FF0E0EA5EFD4F149620818C91282711
:104D7000EE85FF858285E82FF0E0EA5EFD4F1C9707
:104D800080819C918927EE85FF8582838685E82F27
:104D9000F0E0EA5EFD4F149680819C918927EE85B4
:104DA000FF858683328726878381E82FF0E0EA5EDD
:104DB000FD4F199620818C912827EE85FF858781EC
:104DC000E82FF0E0EA5EFD4F1C9780819C918927D7
:104DD000EE85FF8583838385E82FF0E0EA5EFD4F53
:104DE000149680819C918927EE85FF85878387852E
:104DF000E82FF0E0EA5EFD4F149680819C918927B0
:104E0000EE85FF85838727875B97F8E0F9835BE171
:104E1000EE85FF853081F10180818327982F990FDE
:104E200087FF03C0892F852701C0892F982F990FED
:104E300087FF03C0292F252701C0292FF201808178
:104E4000F70190818927982F990F87FF03C0892F39
:104E5000852701C0892F982F990F87FD9527322725
:104E6000EE85FF853083F701808189278083F101FA
:104E7000808182278083F201808189278083EC856D
:104E8000FD853081F30180818327982F990F87FF5B
:104E900003C0892F852701C0892F982F990F87FF7D
:104EA00003C0292F252701C0292FF4018081EA851D
:104EB000FB8590818927982F990F87FF03C0892F41
:104EC000852701C0892F982F990F87FD95273227B5
:104ED000EC85FD853083EA85FB8580818927808389
:104EE000F301808182278083F40180818927808378
:104EF000E885F9853081F50180818327982F990F06
:104F000087FF03C0892F852701C0892F982F990F0C
:104F100087FF03C0292F252701C0292FF601808193
:104F2000EE81FF8190818927982F990F87FF03C019
:104F3000892F852701C0892F982F990F87FD9527E5
:104F40003227E885F9853083EE81FF8180818927CA
:104F50008083F501808182278083F6018081892703
:104F60008083EC81FD813081F80180818327982F37
:104F7000990F87FF03C0892F852701C0892F982F9C
:104F8000990F87FF03C0292F252701C0292FFB0177
:104F90008081EA81FB8190818927982F990F87FF73
:104FA00003C0892F852701C0892F982F990F87FD6E
:104FB00095273227EC81FD813083EA81FB81808156
:104FC00089278083F801808182278083FB0180818B
:104FD00089278083EE85FF854081F70190819427A2
:104FE000F2012081F101808128272927892F880F4C
:104FF00097FF03C0982F952701C0982F822F8427F1
:105000008927EE85FF858083F7019081F1018081FA
:105010008927382F330F87FF03C0832F852701C0CF
:10502000832F92279827F7019083F1019081F20155
:1050300080818927382F330F87FF03C0832F85276F
:1050400001C0832F92279827F1019083F2013081CC
:10505000832F8427982F990F87FF03C0892F8527D7
:1050600001C0892F23272827F2012083EC85FD85A5
:105070004081EA85FB8590819427F4012081F3012A
:10508000808128272927892F880F97FF03C0982F11
:10509000952701C0982F822F84278927EC85FD85CD
:1050A0008083EA85FB859081F30180818927382FF1
:1050B000330F87FF03C0832F852701C0832F9227DB
:1050C0009827EA85FB859083F3019081F401808124
:1050D0008927382F330F87FF03C0832F852701C00F
:1050E000832F92279827F3019083F4013081832F37
:1050F0008427982F990F87FF03C0892F852701C028
:10510000892F23272827F4012083E885F98540810A
:10511000EE81FF8190819427F6012081F501808145
:1051200028272927892F880F97FF03C0982F9527B5
:1051300001C0982F822F84278927E885F9858083ED
:10514000EE81FF819081F50180818927382F330F0F
:1051500087FF03C0832F852701C0832F92279827BD
:10516000EE81FF819083F5019081F601808189278E
:10517000382F330F87FF03C0832F852701C0832F6C
:1051800092279827F5019083F6013081832F842799
:10519000982F990F87FF03C0892F852701C0892F7A
:1051A00023272827F6012083EC81FD814081EA81B5
:1051B000FB8190819427FB012081F80180812827C1
:1051C0002927892F880F97FF03C0982F952701C0A3
:1051D000982F822F84278927EC81FD818083EA81A3
:1051E000FB819081F80180818927382F330F87FF59
:1051F00003C0832F852701C0832F92279827EA8138
:10520000FB819083F8019081FB0180818927382FF1
:10521000330F87FF03C0832F852701C0832F922779
:105220009827F8019083FB013081832F8427982FE2
:10523000990F87FF03C0892F852701C0892F232756
:105240002827FB012083EE85FF858081E82FF0E091
:10525000EA5EFD4F80819C918927EE85FF858083E2
:10526000EC85FD858081E82FF0E0EA5EFD4F8081CE
:1052700014969C9114978927EC85FD858083E88599
:10528000F9858081E82FF0E0EA5EFD4F8081189675
:105290009C9118978927E885F9858083EC81FD81A9
:1052A0008081E82FF0E0EA5EFD4F80811C969C91A2
:1052B0001C978927EC81FD818083EA81FB818081B5
:1052C000E82FF0E0EA5EFD4F208111968C91119756
:1052D0002827EE81FF818081E82FF0E0EA5EFD4F14
:1052E00080811D969C911D978927EA81FB8180838F
:1052F000EA85FB858081E82FF0E0EA5EFD4F808142
:1053000019969C9119978927EE81FF818083F70177
:105310008081E82FF0E0EA5EFD4F808115969C9138
:1053200015978927EA85FB858083F7012083F101A2
:105330008081E82FF0E0EA5EFD4F30811A968C9173
:105340001A973827F3018081E82FF0E0EA5EFD4FDD
:1053500020811E968C911E972827F5018081E82FC9
:10536000F0E0EA5EFD4F808112969C9112978927AA
:10537000F1018083F8018081E82FF0E0EA5EFD4FC3
:10538000808116969C9116978927F3018083F501F9
:105390003083F8012083F2018081E82FF0E0EA5E9B
:1053A000FD4F20811F968C911F972827F401808143
:1053B000E82FF0E0EA5EFD4F808113969C911397F1
:1053C0008927F2018083F6018081E82FF0E0EA5E10
:1053D000FD4F808117969C9117978927F401808350
:1053E000FB018081E82FF0E0EA5EFD4F80811B9693
:1053F0009C911B978927F6018083FB012083F9810B
:10540000F150F9835097FF3F09F002CD2F960FB668
:10541000F894DEBF0FBECDBFCF91DF911F910F91EA
:10542000FF90EF90DF90CF90BF90AF909F908F90C4
:105430007F906F905F904F903F902F900895EF92E4
:10544000FF920F931F938C015AE6E52E55E0F52E3F
:10545000C7010E942B21C801B7010E94A7211F91FB
:105460000F91FF90EF900895EF92FF920F931F938B
:105470008C01EAE6EE2EE5E0FE2EC7010E942B210C
:10548000C801B7010E949F251F910F91FF90EF90D7
:105490000895CF92DF92EF92FF920F931F936C01CA
:1054A0006CE070E080E090E020E130E040E050E02F
:1054B000EE24FF2487010E943B101F910F91FF9063
:1054C000EF90DF90CF900895CF92DF92EF92FF920E
:1054D0000F931F936C016CE070E080E090E020E19E
:1054E00030E040E050E0EE24FF2487010E942E11BE
:1054F0001F910F91FF90EF90DF90CF9008950F9341
:105500001F93DF93CF9300D0CDB7DEB7AB01BC01C3
:105510000091330510913405C80109960E942F1A95
:1055200082E190E1B80144E00E94801282E190E1C2
:10553000BE016F5F7F4F0E94232189819A810F9066
:105540000F90CF91DF911F910F910895CF92DF922D
:10555000EF92FF920F931F93DF93CF930F92CDB7EC
:10556000DEB7D62EC72E8A014132510518F02FEF33
:105570003FEF36C0E0903305F0903405AC0160E0B9
:1055800070E0C70109960E942F1A48E050E060E0E1
:1055900070E00E942F1AA80160E070E00E942F1AAC
:1055A000DC018D2D9C2DFC019F01200F311F02C0BD
:1055B00081918D93E217F307D9F7402F445F81E182
:1055C00090E1B7010E94801281E190E1BE016F5F1E
:1055D0007F4F0E9423218981282F332727FD309573
:1055E000C9010F90CF91DF911F910F91FF90EF9024
:1055F000DF90CF9008952F923F924F925F926F92DB
:105600007F928F929F92AF92BF92CF92DF92EF9252
:10561000FF920F931F93DF93CF93CDB7DEB72897F9
:105620000FB6F894DEBF0FBECDBF2B013C012D831A
:105630003E834F8358871601C0903305D0903405C0
:10564000C6010996B301A2010E942F1A4D815E8105
:105650006F8178850E942F1AB801A7010E942F1A26
:1056600048E050E060E070E00E942F1AB501A4010C
:105670000E942F1ABC0120E030E040E050E00CC056
:10568000F901DB01A20FB31FE20DF31D80818C93A2
:105690002F5F3F4F4F4F5F4F281539054A055B0578
:1056A00078F3482D4C5E89E090E1B6010E948012AB
:1056B00089E090E1BE016F5F7F4F0E942321298125
:1056C0003A814B815C8157FD03C060E070E005C00A
:1056D000B90130931B0620931A06CB0128960FB60A
:1056E000F894DEBF0FBECDBFCF91DF911F910F9118
:1056F000FF90EF90DF90CF90BF90AF909F908F90F2
:105700007F906F905F904F903F902F900895CF9231
:10571000DF92EF92FF920F931F93DF93CF9300D00E
:1057200000D0CDB7DEB78B019C01F42EE52E8FEFB4
:105730009FEFAFEFBFEF89839A83AB83BC83C090A9
:105740003305D0903405C6010996B901A8010E941D
:105750002F1A48E050E060E070E00E942F1A48E005
:1057600050E060E070E00E942F1ADC018F2D9E2D2A
:10577000FC019F01285F3F4F81918D93E217F30752
:10578000D9F787E090E1B60144E10E94801287E0FA
:1057900090E1BE016F5F7F4F0E94232169817A8172
:1057A0008B819C819B0120931A0630931B060F90DE
:1057B0000F900F900F90CF91DF911F910F91FF905D
:1057C000EF90DF90CF900895AF92BF92CF92DF928B
:1057D000EF92FF920F931F93DF93CF93CDB7DEB776
:1057E00028970FB6F894DEBF0FBECDBFB82EA92EF6
:1057F0008B016A018FEF9FEF90931B0680931A062F
:10580000673E710518F02FEF3FEF3BC0E090330586
:10581000F0903405C701099648E050E060E070E080
:105820000E942F1AA80160E070E00E942F1ADC018C
:105830008B2D9A2DFC019F01200F311F02C08191F9
:105840008D93E217F307D9F7402F485F80E190E18D
:10585000B7010E94801280E190E1BE016F5F7F4F2F
:105860000E94232129813A8130931B0620931A0636
:105870008D819E81AF81B885F60180839183A2835B
:10588000B383C90128960FB6F894DEBF0FBECDBF13
:10589000CF91DF911F910F91FF90EF90DF90CF900C
:1058A000BF90AF9008958F929F92AF92BF92CF9288
:1058B000DF92EF92FF920F931F93DF93CF9300D06D
:1058C00000D0CDB7DEB77B018C0159016A018FEFA3
:1058D0009FEFAFEFBFEF89839A83AB83BC83809048
:1058E000330590903405C4010996B801A7010E94C0
:1058F0002F1AB601A5010E942F1A86E090E1B4018B
:1059000048E00E94801286E090E1BE016F5F7F4F09
:105910000E94232169817A818B819C819B01209344
:105920001A0630931B060F900F900F900F90CF9197
:10593000DF911F910F91FF90EF90DF90CF90BF907C
:10594000AF909F908F900895CF92DF92EF92FF9249
:105950000F931F93DF93CF9300D000D0CDB7DEB766
:105960008B019C01F42EE52E8FEF9FEFAFEFBFEF81
:1059700089839A83AB83BC83C0903305D090340570
:10598000C6010996B901A8010E942F1A48E050E00B
:1059900060E070E00E942F1A48E050E060E070E0A4
:1059A0000E942F1ADC018F2D9E2DFC019F01285F84
:1059B0003F4F81918D93E217F307D9F782E090E191
:1059C000B60144E10E94801282E090E1BE016F5F67
:1059D0007F4F0E94232169817A818B819C819B0169
:1059E00020931A0630931B060F900F900F900F9084
:1059F000CF91DF911F910F91FF90EF90DF90CF90AB
:105A000008952F923F924F925F926F927F928F9262
:105A10009F92AF92BF92CF92DF92EF92FF920F933D
:105A20001F93DF93CF93CDB7DEB764970FB6F8948B
:105A3000DEBF0FBECDBF2B013C015E874D870F87B8
:105A4000188B298B3A8B15019C8A8B8A89A49AA47E
:105A5000ABA4BCA40091330510913405C80109968C
:105A6000B301A2010E942F1A4F85588969897A894A
:105A70000E942F1AB701A6010E942F1AC401B80173
:105A80004CE00E948012C401BE016F5F7F4F0E94F4
:105A900023218D819E81AF81B885181619061A06BB
:105AA0001B063CF48D859E85B1014B895C890E9463
:105AB0001A218D819E8180931A0690931B0664960D
:105AC0000FB6F894DEBF0FBECDBFCF91DF911F910F
:105AD0000F91FF90EF90DF90CF90BF90AF909F908D
