:100000000C94DC000C94F9000C94F9000C94F900A9
:100010000C94F9000C94F9000C94F9000C94F9007C
:100020000C94F9000C94F9000C94F9000C94F9006C
:100030000C94F9000C94F9000C94F9000C94F9005C
:100040000C94F9000C94F9000C94F9000C94F9004C
:100050000C94F9000C94F9000C94F9000C94F9003C
:100060000C94F9000C94F9006E616E00696E6600E4
:100070006364696E6F70737578585B656667454633
:100080004700616E006E66696E69747900CDCCCCF4
:100090003D0AD7233C17B7D13877CC2B329595E65C
:1000A000241FB14F0A000020410000C84200401C3C
:1000B0004620BCBE4CCA1B0E5AAEC59D7400407A89
:1000C00010F35A00A0724E18090010A5D4E80000E1
:1000D000E87648170000E40B54020000CA9A3B007F
:1000E0000000E1F505000080969800000040420FF6
:1000F000000000A08601000000102700000000E8BA
:1001000003000000006400000000000A000000007E
:10011000000100000000002C76D888DC674F08231F
:10012000DFC1DFAE59E1B1B796E5E3E453C63AE685
:1001300051997696E8E6C28426EB898C9B62ED4065
:100140007C6FFCEFBC9C9F40F2BAA56FA5F49005B4
:100150005A2AF75C936B6CF9676DC11BFCE0E40DE8
:1001600047FEF520E6B500D0ED902E0300943577DC
:10017000050080841E080000204E0A000000C80C04
:10018000333333330F986E12831141EF8D2114896D
:100190003BE65516CFFEE6DB18D1844B381BF77CC7
:1001A0001D901DA4BBE424203284725E228100C90C
:1001B000F124ECA1E53D270011241FBECFEFD4E0D0
:1001C000DEBFCDBF11E0A6E0B1E001C01D92AE31AF
:1001D000B107E1F711E0A0E0B1E0E8E6FEE102C01E
:1001E00005900D92A630B107D9F70E94B5080C947E
:1001F000320F0C940000A1E1B0E0E1E0F1E00C94DA
:10020000E80E3C017F876E876A01FC011782168227
:10021000838181FD03C06FEF7FEF71C39E012F5F6C
:100220003F4F398B288BF3012381EE85FF8523FD1A
:10023000859123FF8191FF87EE87882309F45CC3B2
:10024000853251F4EE85FF8523FD859123FF819151
:10025000FF87EE87853229F490E0B3010E94170CE6
:10026000E2CF982F10E0882499241032B0F49B320A
:1002700069F09C3228F4903251F0933271F40BC043
:100280009D3239F0903349F4116028C01260146037
:1002900025C0186023C0106121C017FD2AC0892F16
:1002A00080538A3078F416FF06C0FAE09F9E902CA7
:1002B0001124980E13C03AE0839E802C1124880EDE
:1002C00010620CC09E3221F416FD16C3106406C0E5
:1002D0009C3611F4106802C0983659F4EE85FF85FB
:1002E00023FD959123FF9191FF87EE87992309F0D4
:1002F000BCCF892F8554833020F4812F8061905E9C
:1003000007C0892F8556833008F0A1C1812F8F7EC9
:1003100086FD02C076E0972E6FE3F62EF822953622
:1003200019F4F0E4FF2A07C0963619F420E8F22AFF
:1003300002C091109A94F7FE0BC03BE3391520F4EC
:1003400027E05CE3B52E0EC0B92CB39427E00AC0B9
:1003500047E0491528F427E0BB2447E0942E02C06B
:10036000292DBB24C60104969D878C87F6016081E8
:10037000718182819381AE014F5F5F4F0B2D0E948F
:10038000900A6C010981202E332400FF04C003FD74
:1003900002C01DE209C0F1FE02C01BE205C0F2FC72
:1003A00002C010E001C010E2C1018C709070892B76
:1003B000B9F1112311F483E001C084E0881510F035
:1003C00088240AC0881AF3FC07C080E290E0B301D9
:1003D0000E94170C8A94C9F7112329F0812F90E00D
:1003E000B3010E94170C23FE03C008E610E00EC004
:1003F0000CE610E00BC0E114F10409F0805290E02B
:10040000B3010E94170C0F5F1F4F05C0EF2CFF2494
:10041000F0E1EF22FF24F8018491882361F714C1F1
:10042000F7FE12C0BC0C24FE04C08A81813309F49B
:10043000BA941B141CF0BB24B3942DC0F8E0FB1538
:1004400050F538E0B32E27C0F6FC25C0892D90E08A
:100450008C159D054CF02CEFC2162FEFD20624F020
:1004600030E8F32A01C09A94992049F0E2E0F0E0E4
:10047000EC0FFD1FE90DF11D80818033A1F3F7FE24
:100480000AC0B92CB394892D90E0C816D90614F08F
:10049000992401C09C18F7FC03C025E030E009C096
:1004A0001C141D041CF021E030E003C096012F5FF6
:1004B0003F4F112311F02F5F3F4F992029F0892DD5
:1004C00090E00196280F391F882D90E028173907F2
:1004D00014F0882401C0821A4F2C5524C20189705F
:1004E0009070892B39F008C080E290E0B3010E943F
:1004F000170C8A948820C1F7112329F0812F90E0EE
:10050000B3010E94170C43FE07C008C080E390E0CF
:10051000B3010E94170C8A948820C1F7F7FE46C0E9
:100520008601D7FE02C000E010E076010894E11CCD
:10053000F11CE01AF10A41E050E04C0F5D1FE40E9F
:10054000F51E26014B185108892D90E0AA24BB24E2
:10055000A81AB90A5FEF0F3F150729F48EE290E061
:10056000B3010E94170CC016D10634F04016510694
:100570001CF4F701808101C080E301501040089411
:10058000E11CF11C0A151B052CF090E0B3010E9440
:10059000170CE0CF0C151D0539F49A81963318F429
:1005A000953311F424FE81E390E04BC08A818133BE
:1005B00009F00F7E90E0B3010E94170C9920A1F082
:1005C0008EE290E0B3010E94170C12E0E1E0F0E04F
:1005D000EC0FFD1FE10FF11D1F5F808190E0B30163
:1005E0000E94170C9A9491F744FC03C085E690E0B2
:1005F00002C085E490E0B3010E94170CD7FC05C04F
:10060000C114D10441F404FF06C0D094C194D108B0
:10061000D3948DE201C08BE290E0B3010E94170CED
:1006200080E305C08F5F26EF3FEFC20ED31E3AE096
:10063000C316D104BCF790E0B3010E94170CC601A9
:10064000C096B3010E94170CCC84DD8452C193364E
:1006500031F0933799F0933509F059C023C0F60172
:10066000808189835E010894A11CB11C22E030E0E6
:10067000C20ED31E21E0E22EF12C12C0F601A080A2
:10068000B18016FD03C06FEF7FEF02C0692D70E0EF
:1006900022E030E0C20ED31EC5010E947E0B7C0119
:1006A0001F7713C0F601A080B18016FD03C06FEF65
:1006B0007FEF02C0692D70E022E030E0C20ED31E51
:1006C000C5010E94730B7C01106813FF07C01BC09B
:1006D00080E290E0B3010E94170C8A94882D90E08C
:1006E000E816F906A8F30FC0F50117FD859117FF6D
:1006F00081915F0190E0B3010E94170C81108A94F0
:100700000894E108F108E114F10471F7F2C094369D
:1007100011F0993689F517FF08C0F6012081318163
:100720004281538184E090E00AC0F601808191818A
:100730009C01442737FD4095542F82E090E0C80E7D
:10074000D91E9FE6F92EF12257FF09C0509540951A
:10075000309521953F4F4F4F5F4F90E8F92ACA01DE
:10076000B901AE014F5F5F4F2AE030E00E945D0C9F
:10077000E82EE889EE1A41C0953721F41F7E2AE061
:1007800030E01CC0197F9F3661F0903720F4983517
:1007900009F0B2C00FC0903739F0983709F0ACC0FB
:1007A00004C028E030E00AC0106114FD146020E1AC
:1007B00030E004C014FD166020E132E017FF08C0ED
:1007C000F601608171818281938144E050E008C02C
:1007D000F60180819181BC0180E090E042E050E030
:1007E000C40ED51EAE014F5F5F4F0E945D0CE82E18
:1007F0005889E51A8FE7F82EF122F6FE0BC08EEF2E
:10080000F822E91438F4F4FE07C0F2FC05C09FEEAC
:10081000F92202C01E2D01C0192DF4FE0DC0FE01EB
:10082000EE0DF11D8081803319F4E9EEFE2208C03F
:100830001F5FF2FE05C003C08F2D867809F01F5F91
:100840000F2DF3FC14C0F0FE0FC0181510F09E2CF5
:100850000BC09E2C980C911A182D06C080E290E0D7
:10086000B3010E94170C1F5F1815C0F304C01815C0
:1008700010F4811A01C0882404FF0FC080E390E0C7
:10088000B3010E94170C02FF1DC001FD03C088E7E1
:1008900090E00EC088E590E00BC0802F867891F044
:1008A00001FF02C08BE201C080E2F7FC8DE290E024
:1008B000B3010E94170C06C080E390E0B3010E94D0
:1008C000170C9A94E914C0F3EA94E1E0F0E0EC0F1D
:1008D000FD1FEE0DF11D808190E0B3010E94170C09
:1008E000EE2091F706C080E290E0B3010E94170C61
:1008F0008A948820C1F797CCF30166817781CB0178
:100900006196E2E10C94040FFC0120FD08C023FD78
:1009100005C022FF02C07383628351834083089520
:10092000EF92FF920F931F9344FF02C033E011C078
:1009300046FF02C034E00DC0DB01FC01AA0FBB1F63
:10094000EE1FFF1F1094D1F76A0F7B1F8E1F9F1F92
:1009500031E0660F771F881F991F3150D1F77B0157
:100960008C01E20EF11C011D111DA8019701B701B8
:10097000CA011F910F91FF90EF9008950F931F935D
:10098000CF93DF938C01C8010E94D50BEC0197FD3A
:1009900008C00E941F0F892BB1F7CE01B8010E9439
:1009A000430CCE01DF91CF911F910F9108958F924B
:1009B0009F92AF92BF92DF92EF92FF920F931F939D
:1009C000CF93DF935C01EB014A01122F0E94D50BFC
:1009D000AC018B3219F08D3251F41068219709F473
:1009E0006DC0C5010E94D50BAC0197FD67C06DEFCE
:1009F000D62ED1228D2D807301F54033F1F421974D
:100A000009F447C0C5010E94D50BAC0197FD41C058
:100A100082E0D82A483711F0483559F480E4D82AC2
:100A20002197B9F1C5010E94D50BAC0199232CF493
:100A300030C0D6FC02C080E1D82AEE24FF24870112
:100A4000242F2053283088F0D4FC09C02A3068F0C5
:100A5000D6FE05C02F7D822F8151863028F0CA0135
:100A6000B5010E94430C12C02750C801B7014D2D9B
:100A70000E9490047B018C0182E0D82A219761F0CA
:100A8000C5010E94D50BAC0197FFDACFD1FC04C0A1
:100A900015C0EE24FF248701D7FE08C010950095ED
:100AA000F094E094E11CF11C011D111DC401B8017A
:100AB000A7012D2D0E94840481E001C080E0DF9118
:100AC000CF911F910F91FF90EF90DF90BF90AF906B
:100AD0009F908F900895A0E2B0E0E1E7F5E00C94DC
:100AE000EC0E5C016B018A017901FE01319680E216
:100AF000DF011D928A95E9F770E030E060E040E0A8
:100B000050E03F01A1E0B0E0F5018381F70183FDF2
:100B1000259183FF21917F01222309F481C02E3585
:100B200019F44115510569F1872F90E08417950755
:100B300044F42D3551F12D3221F4332329F431E0E1
:100B400021C0332309F4622F322F832F8695869597
:100B50008695F301E80FF11D832F87704D0102C0C8
:100B6000880C991C8A95E2F7208128292083361762
:100B700011F430E007C0361710F43F5FE6CF315074
:100B8000E4CF71E04F5F5F4FBFCF332319F08E8109
:100B900080628E83772359F0FE0131969E012F5D8E
:100BA0003F4F808180958193E217F307D1F7992415
:100BB00093943E010894611C711CC5010E94D50BE1
:100BC000AC0197FD25C0869586958695F301E80FC3
:100BD000F11D808190E09A012770307002C09595D8
:100BE00087952A95E2F780FD05C0CA01B5010E94EC
:100BF000430C0EC00115110519F0D8014D938D015C
:100C00000894C108D1089924C114D104B1F602C0D6
:100C1000992031F40115110529F0F801108202C064
:100C2000EE24FF24C701A096EEE00C94080F2F924B
:100C30003F925F926F927F928F929F92AF92BF92FC
:100C4000CF92DF92EF92FF920F931F93CF93DF9398
:100C50003C017B011A010E94D50BEC018B3239F06B
:100C60008D3211F0552411C0B0E85B2E01C055241F
:100C70000894E108F108E114F10409F418C1C30172
:100C80000E94D50BEC0197FD12C1CE010E94270FE7
:100C90008936910521F08E36910599F51DC005E83C
:100CA00010E01CC00894E108F108E114F10471F0AF
:100CB000C3010E94D50BEC0197FD08C00E94270FCD
:100CC000D81661F0CE01B3010E94430C20E0083831
:100CD000120709F0ECC008C002E810E0F8010F5F4D
:100CE0001F4FD490DD20F1F60558104029F080E028
:100CF00090E0A0E8BFE7CFC080E090E0A0ECBFE7C5
:100D0000CAC0CC24DD24882499245401AE01405368
:100D1000242F4A3038F552E0552A852D90E0AC0159
:100D20004870507052FE06C0452B11F50894C11C46
:100D3000D11C1EC0452B19F00894C108D108C5016B
:100D4000B40140E20E9490044B015C0188E98816DE
:100D500089E9980689E9A80689E1B80648F094E08F
:100D6000592A06C04E3F81F453FC0EC0E8E05E2ACB
:100D70000894E108F108E114F10431F0C3010E9484
:100D8000D50BEC0197FFC2CF51FE91C0C53619F0CB
:100D9000C53409F046C00894E108F108E114F104F3
:100DA00009F485C0C3010E94D50BEC0197FD7FC0FB
:100DB0008B3221F08D3269F4F0E15F2A0894E1086A
:100DC000F108E114F10409F472C0C3010E94D50BCB
:100DD000EC01CE01C0970A9708F069C000E010E06E
:100DE000B801882777FD8095982FAE014053242FB6
:100DF00040E20E9490048B010894E108F108E1149C
:100E0000F10439F0C3010E94D50BEC01C0970A9799
:100E100038F3B80154FE03C0709561957F4FC60E3C
:100E2000D71EEF2831F0D7FD04C0CE01B3010E94D8
:100E3000430CC501B4010E94E30DD7FE0DC0A1EA29
:100E4000EA2EA0E0FA2ED094C194D108D394C0E247
:100E5000D0E000E010E00EC0F9EBEF2EF0E0FF2E46
:100E6000F6CFF70125913591459154910E94200EBE
:100E7000CC1ADD0ACC16DD06A0F7D695C7950F5F14
:100E80001F4F0630110529F0ECEFFFEFEE0EFF1EAD
:100E9000F1CFDC01CB0157FCB0582114310429F00B
:100EA000F10180839183A283B38381E001C080E05C
:100EB000DF91CF911F910F91FF90EF90DF90CF9036
:100EC000BF90AF909F908F907F906F905F903F907A
:100ED0002F900895A0E0B0E0E0E7F7E00C94EB0E6F
:100EE0004C015B013A01FC0117821682552404C1B2
:100EF000812F90E00E941F0F892B21F0C4010E94D6
:100F0000BE04FAC0153249F4F501F3FC6591F3FE15
:100F100061915F01653269F415E2C4010E94D50B4D
:100F200097FDF6C0181709F4E7C0B4010E94430CFE
:100F3000F4C06A3219F0162F00E006C0F3FC1591D8
:100F4000F3FE11915F0101E0CC24DD240EC00260AC
:100F5000B60180E090E040E20E9490046B01F50150
:100F6000F3FC1591F3FE11915F01212F20532A30DC
:100F700070F301FD04C0CC24CA94DC2C04C0C1145D
:100F8000D10409F4CAC0183621F01C3699F4F501D1
:100F90000BC0F501F3FC6591F3FE6191683619F021
:100FA0005F01162F07C008600460F3FC1591F3FE83
:100FB00011915F01112309F4B0C080E790E0612F27
:100FC00070E00E94680B892B09F4A7C0802F00FFF6
:100FD00003C0EE24FF2407C0F301E080F18022E08B
:100FE00030E0620E731E1E3651F4F40146815781C3
:100FF00060E070E0C701202F0E9484047DC013369A
:10100000B9F481FD03C081E0C82ED12CC4010E9437
:10101000D50B97FD7DC0E114F10419F0F701819320
:101020007F010894C108D108C114D10479F762C0C6
:101030001B3559F4C401B601A70195010E946B0547
:101040005C01009709F056C050C0C4010E94BE0464
:1010500097FD5EC01F36D1F1103738F41436A1F178
:101060001936A9F11835D1F52DC0133751F01437C1
:1010700018F4103799F526C0153731F1183771F586
:1010800021C0C4010E94D50BEC0197FD15C00E9440
:101090001F0F892B29F0CE01B4010E94430C0CC014
:1010A000E114F10419F0F701C1937F010894C1081C
:1010B000D108C114D10429F7E114F104D9F0F701E2
:1010C000108218C0006403C0006201C00061C40146
:1010D000B601A701202F0E94D70405C0C401B601A4
:1010E000A7010E941706882329F4F40183818073E5
:1010F00079F413C000FF5394F401F380F501F3FC7D
:101100001591F3FE11915F01112309F0F1CE05C095
:10111000552019F42FEF3FEF02C0252D30E0C90113
:10112000CDB7DEB7EFE00C94070F449A459880EDF9
:1011300097E00E94DC084498459A80ED97E00E9471
:10114000DC0808951F938EBD0E9495080DB407FE1C
:10115000FDCF0E9495081EB52A9A81E090E00E947A
:10116000CA082A98812F1F9108953C9A8FEF8AB957
:101170001BB88CE284B92A9880E58CBD81E08DBDD6
:1011800080ED97E00E94DC0880E00E94A20880E0E9
:1011900090E0089520E030E00BC000000000000067
:1011A0000000000000000000000000002F5F3F4F23
:1011B0002817390790F3089540E050E013C020E06D
:1011C00030E000000000000000000000000000000F
:1011D000000000002F5F3F4F63E0283E360789F78D
:1011E0004F5F5F4F4817590750F308955F9A08956E
:1011F0005F980895992787FD909580FF02C0419AD6
:1012000001C0419881FF02C05B9A01C05B9882FFD8
:1012100002C05C9A01C05C9883FF02C05D9A01C065
:101220005D985E9A81E090E00E94CA085E9881E035
:1012300090E00E94CA0808951F93182F82958F701E
:101240000E94FA08812F8F700E94FA0880E590E0D2
:101250000E94CA081F9108955F98823041F0833040
:1012600041F0813011F480E405C080E003C084E1E6
:1012700001C084E5860F80680E941C09089583E000
:1012800060E00E942C09089582E060E00E942C0931
:10129000089581E060E00E942C09089580E060E0FC
:1012A0000E942C0908955F9A0E941C0908950E94CB
:1012B000530980E090E00895CF93DF93EC0105C0DF
:1012C0002196F90184910E9453099E01FE018491A7
:1012D0008823B1F7DF91CF910895CF92DF92EF92FB
:1012E000FF920F931F93CF93DF93EC0197FF06C0FC
:1012F0008DE20E945309D095C195DF4F40E000E197
:1013000017E2EE24FF24DC2ECD2ECE01B8010E9480
:10131000D40ECB016115710529F4442319F4013071
:10132000110551F4805D0E9453098D2D9C2DB8014B
:101330000E94D40EEC0141E00436110549F4442327
:1013400019F480E30E9453098EE20E94530941E0A0
:10135000C8016AE070E00E94D40E8B010894E11C81
:10136000F11C85E0E816F10471F6DF91CF911F9131
:101370000F91FF90EF90DF90CF900895CF92DF9282
:10138000EF92FF920F931F93CF93DF93EC0197FFA0
:1013900006C08DE20E945309D095C195DF4F40E011
:1013A00000E117E2EE24FF24DC2ECD2ECE01B801A1
:1013B0000E94D40ECB016115710529F4442319F460
:1013C0000130110551F4805D0E9453098D2D9C2D33
:1013D000B8010E94D40EEC0141E0C8016AE070E05F
:1013E0000E94D40E8B010894E11CF11C85E0E816E4
:1013F000F104D1F6DF91CF911F910F91FF90EF9003
:10140000DF90CF9008955F9882E00E941C0982E3EC
:1014100090E00E94DC0808955F9881E00E941C091A
:1014200082E390E00E94DC0882E00E941C0982E3D3
:1014300090E00E94DC0808958AB1886F8AB9399AD1
:1014400084E690E00E94DC085F9883E00E94FA083E
:1014500086E090E00E94DC0883E00E94FA088AEFB0
:1014600090E00E94CA0883E00E94FA088AEF90E0A8
:101470000E94CA0882E00E94FA0888E20E941C09C1
:101480008CE00E941C0981E00E941C0985E090E02C
:101490000E94DC088CE00E941C0986E00E941C0966
:1014A00084E10E941C090E940C0A0895982F8091E3
:1014B000C00085FFFCCF9093C60008958091C000C6
:1014C000807808958091C00087FFFCCF8091C6008E
:1014D0000895982F8091C00085FFFCCF9093C6009F
:1014E00080E090E008958091C00087FFFCCF2091BC
:1014F000C600332727FD3095C90108951092C50015
:1015000087E08093C40088E18093C10086E08093E7
:10151000C20089E69AE063E77AE00E94890B0895A9
:10152000283008F027E03327DA01990F311D87FDB5
:10153000916000966105710539F432602E5F3D932C
:1015400030E32A95E1F708959F3F30F08038710528
:10155000610509F03C5F3C5F3D93913008F0806885
:10156000911DDF93CF931F930F93FF92EF92192F4B
:10157000987F9695E92F96959695E90FFF27E95E56
:10158000FE4F99273327EE24FF24A701E70105909A
:101590000894079428F4360FE71EF81E491F511DC2
:1015A000660F771F881F991F0694A1F7059007946F
:1015B00028F4E70EF81E491F561FC11D770F881F1C
:1015C000991F661F0694A1F70590079428F4F80E5A
:1015D000491F561FC71FD11D880F991F661F771FF0
:1015E0000694A1F70590079420F4490F561FC71FD2
:1015F000D81F990F661F771F881F0694A9F784913B
:101600001095177041F0D695C79557954795F79463
:10161000E7941A95C1F7EDEBF0E0689415901591F9
:1016200035916591959105907FE27395E118F10AE6
:10163000430B560BC90BD009C0F7E10CF11E431F39
:10164000561FC91FD01D7EF4703311F48A95E6CF62
:10165000E894015030F0080F0AF40027021708F44C
:10166000202F2395022F7A3328F079E37D932A9552
:10167000E9F710C07D932A9589F6069497956795AA
:10168000379517951794E118F10A430B560BC90BC0
:10169000D00998F023957E9173957A3308F070E322
:1016A0007C932013B8F77E9170617D9330F0839521
:1016B00071E37D9370E32A95E1F71124EF90FF9099
:1016C0000F911F91CF91DF91992787FD90950895F4
:1016D000FC010590061621F00020D9F7C0010895FD
:1016E0003197CF010895FC010590615070400110C1
:1016F000D8F7809590958E0F9F1F0895FC0161503B
:10170000704001900110D8F7809590958E0F9F1F23
:1017100008950F931F93CF93DF938C01EB010097F4
:1017200031F46115710519F420E030E038C081E032
:1017300090E06EE070E00E94BB0CFC019C01009701
:1017400071F180E88383209771F0D387C28781E8A5
:1017500083838091140190911501892B21F4F093DA
:101760001501E093140101151105C9F011870087D7
:101770008381826083838091160190911701892B68
:1017800071F4F0931701E093160180911801909184
:101790001901892B21F4F0931901E0931801C90173
:1017A000DF91CF911F910F910895CF93DF93EC01BB
:1017B0004B8140FF1AC046FF0AC04F7B4B838E818E
:1017C0009F8101969F838E838A81282F2BC042FFA1
:1017D00013C0E881F9818081282F332727FD3095B8
:1017E0002115310529F440624B832FEF3FEF1BC0D9
:1017F0003196F983E88311C0EA85FB85CE0109950E
:101800009C0197FF0AC09B812F5F3F4F11F080E240
:1018100001C080E1892B8B83E8CF8E819F81019667
:101820009F838E8330E0C901DF91CF9108950F939C
:101830001F93CF93DF938C01EB018B8181FF1BC042
:1018400082FF0DC02E813F818C819D812817390731
:1018500064F4E881F9810193F983E88306C0E8859F
:10186000F985802F0995892B31F48E819F8101960E
:101870009F838E8302C00FEF1FEFC801DF91CF91CE
:101880001F910F9108959C01FB01838180FF11C07E
:1018900086FD0FC09FEF2F3F390759F022838064E8
:1018A0008F7D83838681978101979783868330E03C
:1018B00002C02FEF3FEFC9010895FA01AA2728308F
:1018C00051F1203181F1E8946F936E7F6E5F7F4F0D
:1018D0008F4F9F4FAF4FB1E03ED0B4E03CD0670F89
:1018E000781F891F9A1FA11D680F791F8A1F911DDC
:1018F000A11D6A0F711D811D911DA11D20D009F42C
:1019000068943F912AE0269F11243019305D31936D
:10191000DEF6CF010895462F4770405D4193B3E056
:101920000FD0C9F7F6CF462F4F70405D4A3318F0FD
:10193000495D31FD4052419302D0A9F7EACFB4E0AE
:10194000A6959795879577956795BA95C9F7009766
:101950006105710508959B01AC010A2E0694579507
:10196000479537952795BA95C9F7620F731F841F5E
:10197000951FA01D08950F931F93CF93DF93689F2A
:101980008001699F100D789F100D1124C8010E94DD
:10199000D70CEC01009729F060E070E0A8010E94EC
:1019A000DC0DCE01DF91CF911F910F910895CF9360
:1019B000DF93BC018230910510F462E070E0A091E9
:1019C0001C01B0911D01ED01E0E0F0E040E050E0CD
:1019D00021C0888199818617970769F48A819B8144
:1019E000309719F09383828304C090931D018093F4
:1019F0001C01FE0134C06817790738F44115510500
:101A000019F08417950708F4AC01FE018A819B81C7
:101A10009C01E9012097E9F641155105A9F1CA0198
:101A2000861B970B049708F4BA01E0E0F0E02AC0A7
:101A30008D919C91119784179507F9F46417750798
:101A400081F412968D919C911397309719F093839E
:101A5000828304C090931D0180931C01FD01329686
:101A60004FC0CA01861B970BFD01E80FF91F619358
:101A7000719302978D939C9343C0FD018281938162
:101A80009C01D9011097A1F680911A0190911B0138
:101A9000892B41F4809102019091030190931B01E5
:101AA00080931A014091040150910501411551059F
:101AB00041F44DB75EB78091000190910101481B40
:101AC000590B20911A0130911B0124173507B0F4EE
:101AD000CA01821B930B8617970780F0AB014E5FFC
:101AE0005F4F8417950750F0420F531F50931B010F
:101AF00040931A01F9016193719302C0E0E0F0E0B4
:101B0000CF01DF91CF910895CF93DF93009709F430
:101B100050C0EC0122971B821A82A0911C01B09147
:101B20001D01109709F140E050E0AC17BD0708F126
:101B3000BB83AA83FE0121913191E20FF31FAE17FF
:101B4000BF0779F48D919C911197280F391F2E5F53
:101B50003F4F3983288312968D919C9113979B83D5
:101B60008A834115510571F4D0931D01C0931C0166
:101B700020C012968D919C911397AD01009711F0A2
:101B8000DC01D3CFFA01D383C28321913191E20FDB
:101B9000F31FCE17DF0769F488819981280F391F59
:101BA0002E5F3F4FFA01318320838A819B8193838B
:101BB0008283DF91CF910895DC0101C06D93415084
:101BC0005040E0F70895E89409C097FB3EF49095E3
:101BD0008095709561957F4F8F4F9F4F9923A9F006
:101BE000F92F96E9BB279395F69587957795679595
:101BF000B795F111F8CFFAF4BB0F11F460FF1BC0D9
:101C00006F5F7F4F8F4F9F4F16C0882311F096E96B
:101C100011C0772321F09EE8872F762F05C0662319
:101C200071F096E8862F70E060E02AF09A95660FD2
:101C3000771F881FDAF7880F9695879597F908958B
:101C40000BD078C069D028F06ED018F0952309F039
:101C50005AC05FC01124A2C07ED0A0F3959FD1F3DB
:101C6000950F50E0551F629FF001729FBB27F00D4A
:101C7000B11D639FAA27F00DB11DAA1F649F66279F
:101C8000B00DA11D661F829F2227B00DA11D621FEE
:101C9000739FB00DA11D621F839FA00D611D221FA8
:101CA000749F3327A00D611D231F849F600D211D8C
:101CB000822F762F6A2F11249F5750408AF0E1F02F
:101CC00088234AF0EE0FFF1FBB1F661F771F881F78
:101CD00091505040A9F79E3F510570F014C05EC06E
:101CE0005F3FECF3983EDCF3869577956795B79563
:101CF000F795E7959F5FC1F7FE2B880F911D96958D
:101D0000879597F9089597F99F6780E870E060E0FC
:101D100008959FEF80EC089500240A941616170684
:101D200018060906089500240A94121613061406CC
:101D300005060895092E0394000C11F4882352F02F
:101D4000BB0F40F4BF2B11F460FF04C06F5F7F4FE7
:101D50008F4F9F4F089557FD9058440F551F59F0CE
:101D60005F3F71F04795880F97FB991F61F09F3F88
:101D700079F087950895121613061406551FF2CFB1
:101D80004695F1DF08C0161617061806991FF1CF01
:101D900086957105610508940895E894BB27662728
:101DA0007727CB0197F90895AA1BBB1B51E107C008
:101DB000AA1FBB1FA617B70710F0A61BB70B881FDB
:101DC000991F5A95A9F780959095BC01CD0108956A
:101DD0002F923F924F925F926F927F928F929F923B
:101DE000AF92BF92CF92DF92EF92FF920F931F9329
:101DF000CF93DF93CDB7DEB7CA1BDB0B0FB6F894DA
:101E0000DEBF0FBECDBF09942A88398848885F8419
:101E10006E847D848C849B84AA84B984C884DF808A
:101E2000EE80FD800C811B81AA81B981CE0FD11D6E
:101E30000FB6F894DEBF0FBECDBFED01089591112E
:101E40000EC0803219F089508550D0F70895911155
:101E5000089581548A5108F4805E855A089599271F
:081E600088270895F894FFCFD4
:00000001FF
