:100000000C947B010C9498010C9498010C94980129
:100010000C9498010C9413100C9498010C94980172
:100020000C9498010C9498010C9498010C949801EC
:100030000C9498010C9498010C9498010C949801DC
:100040000C9498010C9498010C9498010C949801CC
:100050000C9498010C9498010C9498010C949801BC
:100060000C9498010C9498016E616E00696E6600A4
:100070006364696E6F70737578585B656667454633
:100080004700616E006E66696E69747900CDCCCCF4
:100090003D0AD7233C17B7D13877CC2B329595E65C
:1000A000241FB14F0A000020410000C84200401C3C
:1000B0004620BCBE4CCA1B0E5AAEC59D74737461FB
:1000C00074653D25640073746174653D65535049E2
:1000D0005F53544154455F524541445F454F54007E
:1000E00073746174653D655350495F535441544581
:1000F0005F524541445F46495253545F504F5254FA
:10010000494F4E0073746174653D655350495F53A8
:10011000544154455F524541445F49525100737404
:100120006174653D655350495F53544154455F5771
:10013000524954455F454F540073746174653D6581
:100140005350495F53544154455F57524954455F9A
:1001500046495253545F504F5254494F4E007374A6
:100160006174653D655350495F53544154455F5731
:10017000524954455F4952510073746174653D653D
:100180005350495F53544154455F49444C450073B3
:10019000746174653D655350495F53544154455FE4
:1001A000494E495449414C495A454400737461745D
:1001B000653D655350495F53544154455F504F5717
:1001C00045525550004552524F523A205265616493
:1001D00020627566666572206F76657272756E0054
:1001E0004552524F523A20577269746520627566C3
:1001F000666572206F76657272756E0000407A10C7
:10020000F35A00A0724E18090010A5D4E80000E8C7
:100210007648170000E40B54020000CA9A3B000025
:1002200000E1F505000080969800000040420F00B4
:100230000000A08601000000102700000000E80375
:10024000000000006400000000000A000000000040
:100250000100000000002C76D888DC674F0823DFFF
:10026000C1DFAE59E1B1B796E5E3E453C63AE651D2
:10027000997696E8E6C28426EB898C9B62ED407CF9
:100280006FFCEFBC9C9F40F2BAA56FA5F490055A95
:100290002AF75C936B6CF9676DC11BFCE0E40D47BA
:1002A000FEF520E6B500D0ED902E030094357705DD
:1002B0000080841E080000204E0A000000C80C3395
:1002C0003333330F986E12831141EF8D2114893B24
:1002D000E65516CFFEE6DB18D1844B381BF77C1DA4
:1002E000901DA4BBE424203284725E228100C9F1F7
:1002F00024ECA1E53D2711241FBECFEFD8E0DEBFDF
:10030000CDBF13E0A0E0B1E0E2EAFEE602C0059056
:100310000D92AE33B107D9F716E0AEE3B3E001C0FA
:100320001D92A331B107E1F70E94850A0C944F3763
:100330000C940000A1E1B0E0E0EAF1E00C94053794
:100340003C017F876E876A01FC01178216828381D8
:1003500081FD03C06FEF7FEF71C39E012F5F3F4FA1
:10036000398B288BF3012381EE85FF8523FD859151
:1003700023FF8191FF87EE87882309F45CC38532D0
:1003800051F4EE85FF8523FD859123FF8191FF8741
:10039000EE87853229F490E0B3010E945C35E2CF0C
:1003A000982F10E0882499241032B0F49B3269F021
:1003B0009C3228F4903251F0933271F40BC09D328C
:1003C00039F0903349F4116028C01260146025C0E0
:1003D000186023C0106121C017FD2AC0892F8053E7
:1003E0008A3078F416FF06C0FAE09F9E902C112404
:1003F000980E13C03AE0839E802C1124880E106260
:100400000CC09E3221F416FD16C3106406C09C3643
:1004100011F4106802C0983659F4EE85FF8523FD6B
:10042000959123FF9191FF87EE87992309F0BCCF27
:10043000892F8554833020F4812F8061905E07C01E
:10044000892F8556833008F0A1C1812F8F7E86FDCC
:1004500002C076E0972E6FE3F62EF822953619F457
:10046000F0E4FF2A07C0963619F420E8F22A02C009
:1004700091109A94F7FE0BC03BE3391520F427E066
:100480005CE3B52E0EC0B92CB39427E00AC047E058
:10049000491528F427E0BB2447E0942E02C0292DFB
:1004A000BB24C60104969D878C87F601608171810B
:1004B00082819381AE014F5F5F4F0B2D0E94FB3312
:1004C0006C010981202E332400FF04C003FD02C00B
:1004D0001DE209C0F1FE02C01BE205C0F2FC02C031
:1004E00010E001C010E2C1018C709070892BB9F14D
:1004F000112311F483E001C084E0881510F08824F2
:100500000AC0881AF3FC07C080E290E0B3010E94A1
:100510005C358A94C9F7112329F0812F90E0B3014B
:100520000E945C3523FE03C008E610E00EC00CE616
:1005300010E00BC0E114F10409F0805290E0B30127
:100540000E945C350F5F1F4F05C0EF2CFF24F0E1C8
:10055000EF22FF24F8018491882361F714C1F7FE8C
:1005600012C0BC0C24FE04C08A81813309F4BA9401
:100570001B141CF0BB24B3942DC0F8E0FB1550F500
:1005800038E0B32E27C0F6FC25C0892D90E08C15ED
:100590009D054CF02CEFC2162FEFD20624F030E868
:1005A000F32A01C09A94992049F0E2E0F0E0EC0FC0
:1005B000FD1FE90DF11D80818033A1F3F7FE0AC014
:1005C000B92CB394892D90E0C816D90614F099245B
:1005D00001C09C18F7FC03C025E030E009C01C14E2
:1005E0001D041CF021E030E003C096012F5F3F4F57
:1005F000112311F02F5F3F4F992029F0892D90E0B2
:100600000196280F391F882D90E02817390714F01C
:10061000882401C0821A4F2C5524C2018970907021
:10062000892B39F008C080E290E0B3010E945C356C
:100630008A948820C1F7112329F0812F90E0B3011B
:100640000E945C3543FE07C008C080E390E0B30120
:100650000E945C358A948820C1F7F7FE46C0860167
:10066000D7FE02C000E010E076010894E11CF11C06
:10067000E01AF10A41E050E04C0F5D1FE40EF51E58
:1006800026014B185108892D90E0AA24BB24A81AF2
:10069000B90A5FEF0F3F150729F48EE290E0B3012E
:1006A0000E945C35C016D10634F0401651061CF489
:1006B000F701808101C080E3015010400894E11CE3
:1006C000F11C0A151B052CF090E0B3010E945C356B
:1006D000E0CF0C151D0539F49A81963318F4953343
:1006E00011F424FE81E390E04BC08A81813309F04C
:1006F0000F7E90E0B3010E945C359920A1F08EE25C
:1007000090E0B3010E945C3512E0E1E0F0E0EC0F14
:10071000FD1FE10FF11D1F5F808190E0B3010E947A
:100720005C359A9491F744FC03C085E690E002C0E2
:1007300085E490E0B3010E945C35D7FC05C0C1148C
:10074000D10441F404FF06C0D094C194D108D394DD
:100750008DE201C08BE290E0B3010E945C3580E342
:1007600005C08F5F26EF3FEFC20ED31E3AE0C316DF
:10077000D104BCF790E0B3010E945C35C601C0967D
:10078000B3010E945C35CC84DD8452C1933631F0D4
:10079000933799F0933509F059C023C0F601808151
:1007A00089835E010894A11CB11C22E030E0C20ED6
:1007B000D31E21E0E22EF12C12C0F601A080B18000
:1007C00016FD03C06FEF7FEF02C0692D70E022E0DD
:1007D00030E0C20ED31EC5010E94F2347C011F77A7
:1007E00013C0F601A080B18016FD03C06FEF7FEF4C
:1007F00002C0692D70E022E030E0C20ED31EC501B8
:100800000E94DE347C01106813FF07C01BC080E229
:1008100090E0B3010E945C358A94882D90E0E81640
:10082000F906A8F30FC0F50117FD859117FF819117
:100830005F0190E0B3010E945C3581108A940894B6
:10084000E108F108E114F10471F7F2C0943611F0F7
:10085000993689F517FF08C0F60120813181428160
:10086000538184E090E00AC0F601808191819C016F
:10087000442737FD4095542F82E090E0C80ED91EE2
:100880009FE6F92EF12257FF09C05095409530950B
:1008900021953F4F4F4F5F4F90E8F92ACA01B901A8
:1008A000AE014F5F5F4F2AE030E00E94A235E82E94
:1008B000E889EE1A41C0953721F41F7E2AE030E026
:1008C0001CC0197F9F3661F0903720F4983509F0ED
:1008D000B2C00FC0903739F0983709F0ACC004C0EF
:1008E00028E030E00AC0106114FD146020E130E01F
:1008F00004C014FD166020E132E017FF08C0F601C5
:10090000608171818281938144E050E008C0F601EA
:1009100080819181BC0180E090E042E050E0C40E13
:10092000D51EAE014F5F5F4F0E94A235E82E588959
:10093000E51A8FE7F82EF122F6FE0BC08EEFF822B3
:10094000E91438F4F4FE07C0F2FC05C09FEEF9226A
:1009500002C01E2D01C0192DF4FE0DC0FE01EE0DCA
:10096000F11D8081803319F4E9EEFE2208C01F5F7B
:10097000F2FE05C003C08F2D867809F01F5F0F2D92
:10098000F3FC14C0F0FE0FC0181510F09E2C0BC025
:100990009E2C980C911A182D06C080E290E0B301AD
:1009A0000E945C351F5F1815C0F304C0181510F4C1
:1009B000811A01C0882404FF0FC080E390E0B301D6
:1009C0000E945C3502FF1DC001FD03C088E790E076
:1009D0000EC088E590E00BC0802F867891F001FF73
:1009E00002C08BE201C080E2F7FC8DE290E0B3012F
:1009F0000E945C3506C080E390E0B3010E945C3544
:100A00009A94E914C0F3EA94E1E0F0E0EC0FFD1FE2
:100A1000EE0DF11D808190E0B3010E945C35EE2067
:100A200091F706C080E290E0B3010E945C358A94A1
:100A30008820C1F797CCF30166817781CB0161965D
:100A4000E2E10C942137FC0120FD08C023FD05C024
:100A500022FF02C073836283518340830895EF9223
:100A6000FF920F931F9344FF02C033E011C046FF73
:100A700002C034E00DC0DB01FC01AA0FBB1FEE1F5A
:100A8000FF1F1094D1F76A0F7B1F8E1F9F1F31E04D
:100A9000660F771F881F991F3150D1F77B018C019A
:100AA000E20EF11C011D111DA8019701B701CA0139
:100AB0001F910F91FF90EF9008950F931F93CF9385
:100AC000DF938C01C8010E94FD34EC0197FD08C042
:100AD0000E943C37892BB1F7CE01B8010E948835BE
:100AE000CE01DF91CF911F910F9108958F929F9228
:100AF000AF92BF92DF92EF92FF920F931F93CF932B
:100B0000DF935C01EB014A01122F0E94FD34AC011E
:100B10008B3219F08D3251F41068219709F46DC0B1
:100B2000C5010E94FD34AC0197FD67C06DEFD62E64
:100B3000D1228D2D807301F54033F1F4219709F412
:100B400047C0C5010E94FD34AC0197FD41C082E061
:100B5000D82A483711F0483559F480E4D82A21972B
:100B6000B9F1C5010E94FD34AC0199232CF430C0C9
:100B7000D6FC02C080E1D82AEE24FF248701242F6E
:100B80002053283088F0D4FC09C02A3068F0D6FE03
:100B900005C02F7D822F8151863028F0CA01B50112
:100BA0000E94883512C02750C801B7014D2D0E9400
:100BB0002F057B018C0182E0D82A219761F0C501C5
:100BC0000E94FD34AC0197FFDACFD1FC04C015C000
:100BD000EE24FF248701D7FE08C010950095F094FD
:100BE000E094E11CF11C011D111DC401B801A70115
:100BF0002D2D0E94230581E001C080E0DF91CF917F
:100C00001F910F91FF90EF90DF90BF90AF909F905A
:100C10008F900895A0E2B0E0E0E1F6E00C9409378F
:100C20005C016B018A017901FE01319680E2DF01EE
:100C30001D928A95E9F770E030E060E040E050E016
:100C40003F01A1E0B0E0F5018381F70183FD25912B
:100C500083FF21917F01222309F481C02E3519F4ED
:100C60004115510569F1872F90E08417950744F4E9
:100C70002D3551F12D3221F4332329F431E021C0F7
:100C8000332309F4622F322F832F8695869586951C
:100C9000F301E80FF11D832F87704D0102C0880C0E
:100CA000991C8A95E2F7208128292083361711F4B0
:100CB00030E007C0361710F43F5FE6CF3150E4CF85
:100CC00071E04F5F5F4FBFCF332319F08E81806299
:100CD0008E83772359F0FE0131969E012F5D3F4FA1
:100CE000808180958193E217F307D1F7992493943B
:100CF0003E010894611C711CC5010E94FD34AC01C9
:100D000097FD25C0869586958695F301E80FF11D20
:100D1000808190E09A012770307002C09595879588
:100D20002A95E2F780FD05C0CA01B5010E94883509
:100D30000EC00115110519F0D8014D938D010894CD
:100D4000C108D1089924C114D104B1F602C0992078
:100D500031F40115110529F0F801108202C0EE24CA
:100D6000FF24C701A096EEE00C9425372F923F9206
:100D70005F926F927F928F929F92AF92BF92CF922B
:100D8000DF92EF92FF920F931F93CF93DF933C017B
:100D90007B011A010E94FD34EC018B3239F08D3257
:100DA00011F0552411C0B0E85B2E01C05524089401
:100DB000E108F108E114F10409F418C1C3010E942B
:100DC000FD34EC0197FD12C1CE010E9444378936F3
:100DD000910521F08E36910599F51DC005E810E0CA
:100DE0001CC00894E108F108E114F10471F0C3019A
:100DF0000E94FD34EC0197FD08C00E944437D816CC
:100E000061F0CE01B3010E94883520E00838120756
:100E100009F0ECC008C002E810E0F8010F5F1F4FB6
:100E2000D490DD20F1F60558104029F080E090E0E4
:100E3000A0E8BFE7CFC080E090E0A0ECBFE7CAC069
:100E4000CC24DD24882499245401AE014053242F5E
:100E50004A3038F552E0552A852D90E0AC014870B3
:100E6000507052FE06C0452B11F50894C11CD11CD0
:100E70001EC0452B19F00894C108D108C501B40162
:100E800040E20E942F054B015C0188E9881689E940
:100E9000980689E9A80689E1B80648F094E0592A3D
:100EA00006C04E3F81F453FC0EC0E8E05E2A089471
:100EB000E108F108E114F10431F0C3010E94FD34AE
:100EC000EC0197FFC2CF51FE91C0C53619F0C53471
:100ED00009F046C00894E108F108E114F10409F4AE
:100EE00085C0C3010E94FD34EC0197FD7FC08B32A9
:100EF00021F08D3269F4F0E15F2A0894E108F108ED
:100F0000E114F10409F472C0C3010E94FD34EC0144
:100F1000CE01C0970A9708F069C000E010E0B80160
:100F2000882777FD8095982FAE014053242F40E20B
:100F30000E942F058B010894E108F108E114F104E7
:100F400039F0C3010E94FD34EC01C0970A9738F3D1
:100F5000B80154FE03C0709561957F4FC60ED71E31
:100F6000EF2831F0D7FD04C0CE01B3010E948835CF
:100F7000C501B4010E940036D7FE0DC0A1EAEA2ED9
:100F8000A0E0FA2ED094C194D108D394C0E2D0E06E
:100F900000E010E00EC0F9EBEF2EF0E0FF2EF6CFF0
:100FA000F70125913591459154910E943D36CC1A17
:100FB000DD0ACC16DD06A0F7D695C7950F5F1F4F4B
:100FC0000630110529F0ECEFFFEFEE0EFF1EF1CF1A
:100FD000DC01CB0157FCB0582114310429F0F10198
:100FE00080839183A283B38381E001C080E0DF919D
:100FF000CF911F910F91FF90EF90DF90CF90BF9016
:10100000AF909F908F907F906F905F903F902F90C8
:101010000895A0E0B0E0EFE0F8E00C9408374C0150
:101020005B013A01FC0117821682552404C1812F0D
:1010300090E00E943C37892B21F0C4010E945D059D
:10104000FAC0153249F4F501F3FC6591F3FE6191A4
:101050005F01653269F415E2C4010E94FD3497FD19
:10106000F6C0181709F4E7C0B4010E948835F4C02F
:101070006A3219F0162F00E006C0F3FC1591F3FE5A
:1010800011915F0101E0CC24DD240EC00260B601A5
:1010900080E090E040E20E942F056B01F501F3FC37
:1010A0001591F3FE11915F01212F20532A3070F327
:1010B00001FD04C0CC24CA94DC2C04C0C114D104AA
:1010C00009F4CAC0183621F01C3699F4F5010BC09A
:1010D000F501F3FC6591F3FE6191683619F05F014B
:1010E000162F07C008600460F3FC1591F3FE119100
:1010F0005F01112309F4B0C080E790E0612F70E038
:101100000E94D334892B09F4A7C0802F00FF03C0AD
:10111000EE24FF2407C0F301E080F18022E030E0FC
:10112000620E731E1E3651F4F4014681578160E051
:1011300070E0C701202F0E9423057DC01336B9F44B
:1011400081FD03C081E0C82ED12CC4010E94FD3472
:1011500097FD7DC0E114F10419F0F70181937F013F
:101160000894C108D108C114D10479F762C01B35B5
:1011700059F4C401B601A70195010E940A065C0159
:10118000009709F056C050C0C4010E945D0597FD4C
:101190005EC01F36D1F1103738F41436A1F119367C
:1011A000A9F11835D1F52DC0133751F0143718F4C3
:1011B000103799F526C0153731F1183771F521C070
:1011C000C4010E94FD34EC0197FD15C00E943C371C
:1011D000892B29F0CE01B4010E9488350CC0E1149E
:1011E000F10419F0F701C1937F010894C108D108F7
:1011F000C114D10429F7E114F104D9F0F7011082E8
:1012000018C0006403C0006201C00061C401B601DF
:10121000A701202F0E94760505C0C401B601A701D1
:101220000E94B606882329F4F4018381807379F43F
:1012300013C000FF5394F401F380F501F3FC159102
:10124000F3FE11915F01112309F0F1CE05C0552085
:1012500019F42FEF3FEF02C0252D30E0C901CDB7C3
:10126000DEB7EFE00C9424379B01AC01203880E816
:10127000380780E0480780E0580769F481E090E093
:10128000A0E0B0E08093440390934503A09346030D
:10129000B093470343C0213080E8380780E0480717
:1012A00080E0580769F481E090E0A0E0B0E080932E
:1012B000B4039093B503A093B603B093B703089516
:1012C000223080E8380780E0480780E0580789F43A
:1012D00010924C0310924D0310924E0310924F0344
:1012E0001092B4031092B5031092B6031092B70394
:1012F0000895203180E8380780E0480780E05807EB
:1013000069F481E090E0A0E0B0E080934C0390931A
:101310004D03A0934E03B0934F030895293931052F
:101320004105510561F481E090E0A0E0B0E08093D8
:10133000B8039093B903A093BA03B093BB03089585
:10134000FC01108211821282138280E090E00895E5
:10135000FC01108211821282138280E090E00895D5
:10136000FC01108211821282138280E090E00895C5
:1013700029B130E040E050E024703070407050708F
:10138000B901CA010895E8E6F0E0808184608083B5
:101390000895E8E6F0E080818B7F808308958823BC
:1013A00011F0439A089543980895EF92FF920F9396
:1013B0001F93DF93CF9300D000D0CDB7DEB710924C
:1013C0004403109245031092460310924703109273
:1013D000B4031092B5031092B6031092B7031092A3
:1013E0004C0310924D0310924E0310924F03109233
:1013F000B8031092B9031092BA031092BB0384E5AC
:1014000089838A838B831C8260E070E080E090E0B7
:1014100020E030E040E050E0EE24FF2487010E940D
:1014200034176FEF70E080E090E00E94001706C074
:1014300088EE93E00E94500B0E94461F8091B403F7
:101440009091B503A091B603B091B7030197A105A0
:10145000B10571F3CE0101960E94EC1461E070E0D9
:1014600080E090E00E94AF150E94D00C04C084EF91
:1014700091E00E94500B8091440390914503A0910C
:101480004603B09147030097A105B10581F30E947F
:10149000DA0C6CE070E080E090E020E130E040E0C9
:1014A00050E00E94E6118CE191E00E945E2C0E94C7
:1014B0007F1960E070E080E090E020E030E040E004
:1014C00050E0E1E0EE2EF12C012D112D0E94341799
:1014D0000E947A1B88EE93E00E94500B80E090E01F
:1014E0006EE574E00E94971B64E472E880E090E08F
:1014F0000E94EF150F900F900F900F90CF91DF91FA
:101500001F910F91FF90EF900895AF92BF92CF92ED
:10151000DF92EF92FF920F931F93DF93CF93CDB79C
:10152000DEB760970FB6F894DEBF0FBECDBF0E9446
:10153000DE0C88EE93E00E94500B0E943C0D84E389
:1015400099E060EA79E048EA59E020EB39E008EBFD
:1015500019E0E3ECEE2EE9E0FE2EB9ECCB2EB9E07B
:10156000DB2EAFECAA2EA9E0BA2E0E94B81480E0C0
:1015700090E06EE574E00E94971B64E472E880E0FE
:1015800090E00E94EF1580E091E00E9426120E94F8
:10159000F60C0E94D50906C00E94461F88EE93E013
:1015A0000E94500B80914C0390914D03A0914E03EB
:1015B000B0914F030097A105B10571F38091B40379
:1015C0009091B503A091B603B091B7030097A10520
:1015D000B10511F30E94F60C82E090E09A838983B2
:1015E00085E18B838EE48C8380EE8D831E8281E087
:1015F0008F838BEB888762E070E080E090E022E0F0
:1016000030E040E050E0F1E1EF2EF12C012D112D02
:101610000E94B731609348037093490380934A0353
:1016200090934B03609148037091490380914A0362
:1016300090914B0300D000D020E130E040E050E03A
:10164000EDB7FEB721833283438354834BE051E0EF
:1016500000E110E020E030E0CC24DD2476015E01E2
:101660000894A11CB11C0E9481330F900F900F9021
:101670000F9088EE93E00E94500BFBCF20E030E00B
:101680000BC000000000000000000000000000008F
:10169000000000002F5F3F4F2817390790F308958F
:1016A00040E050E013C020E030E000000000000007
:1016B0000000000000000000000000002F5F3F4F0E
:1016C00063E0283E360789F74F5F5F4F4817590799
:1016D00050F308955F9A08955F980895992787FDBC
:1016E000909580FF02C0419A01C0419881FF02C0DD
:1016F0005B9A01C05B9882FF02C05C9A01C05C9853
:1017000083FF02C05D9A01C05D985E9A81E090E01F
:101710000E943E0B5E9881E090E00E943E0B08958F
:101720001F93182F82958F700E946E0B812F8F70E0
:101730000E946E0B80E590E00E943E0B1F91089581
:101740005F98823041F0833041F0813011F480E4C1
:1017500005C080E003C084E101C084E5860F806895
:101760000E94900B089583E060E00E94A00B089512
:1017700082E060E00E94A00B089581E060E00E949A
:10178000A00B089580E060E00E94A00B08955F9A8E
:101790000E94900B08950E94C70B80E090E008958E
:1017A000CF93DF93EC0105C02196F90184910E944B
:1017B000C70B9E01FE0184918823B1F7DF91CF9181
:1017C0000895CF92DF92EF92FF920F931F93CF93E2
:1017D000DF93EC0197FF06C08DE20E94C70BD09506
:1017E000C195DF4F40E000E117E2EE24FF24DC2E3C
:1017F000CD2ECE01B8010E94F136CB0161157105E5
:1018000029F4442319F40130110551F4805D0E943C
:10181000C70B8D2D9C2DB8010E94F136EC0141E0E3
:101820000436110549F4442319F480E30E94C70BE0
:101830008EE20E94C70B41E0C8016AE070E00E949E
:10184000F1368B010894E11CF11C85E0E816F104E7
:1018500071F6DF91CF911F910F91FF90EF90DF9084
:10186000CF900895CF92DF92EF92FF920F931F9344
:10187000CF93DF93EC0197FF06C08DE20E94C70B68
:10188000D095C195DF4F40E000E117E2EE24FF2440
:10189000DC2ECD2ECE01B8010E94F136CB016115B0
:1018A000710529F4442319F40130110551F4805DC8
:1018B0000E94C70B8D2D9C2DB8010E94F136EC01C2
:1018C00041E0C8016AE070E00E94F1368B010894A3
:1018D000E11CF11C85E0E816F104D1F6DF91CF910F
:1018E0001F910F91FF90EF90DF90CF9008955F9838
:1018F00082E00E94900B82E390E00E94500B0895DA
:101900005F9881E00E94900B82E390E00E94500B70
:1019100082E00E94900B82E390E00E94500B0895B9
:101920008AB1886F8AB9399A84E690E00E94500B98
:101930005F9883E00E946E0B86E090E00E94500B5F
:1019400083E00E946E0B8AEF90E00E943E0B83E0E2
:101950000E946E0B8AEF90E00E943E0B82E00E9494
:101960006E0B88E20E94900B8CE00E94900B81E04D
:101970000E94900B85E090E00E94500B8CE00E944A
:10198000900B86E00E94900B84E10E94900B0E94D5
:10199000800C08955B9A08955C9A08955D9A089565
:1019A0005E9A08955F9A08955B9808955C980895EB
:1019B0005D9808954698089547980895539A549AC3
:1019C000559A569A579A08955F9A84EF91E00E942B
:1019D000500B479808955E9A84EF91E00E94500B57
:1019E000469884EF91E00E94500B08955D9A84EF31
:1019F00091E00E94500B5D9884EF91E00E94500BA3
:101A000008955C9A84EF91E00E94500B5C980895D1
:101A10005B9A84EF91E00E94500B5B988CE291E01E
:101A20000E94500B08951092550410925604109283
:101A30005704109258049093500480934F041092CE
:101A400052041092510410925A04109259048CECD2
:101A500093E090935C0480935B0410925404109282
:101A600053048EED80934E048093E004E09136059C
:101A7000F091370509950895E4E6F0E080818B7FC9
:101A80008083259A239A229A80E58CBD2A9A8CB568
:101A90008F7D8CBD8CB5877F8CBD8CB584608CBDF3
:101AA0008CB582608CBD8CB581608CBD8DB58E7F10
:101AB0008DBD3B9A52985A9AE8E6F0E080818460A6
:101AC0008083EDE6F0E080818460808378940895DF
:101AD0000895E8E6F0E080818B7F80830895E8E652
:101AE000F0E08081846080830895982F8091E004E5
:101AF0008E3D29F080EE91E00E94D00BFFCF8091C7
:101B00004E048E3D29F085EC91E00E94D00BFFCF72
:101B10009EBD0DB407FEFDCF8EB508958F929F92A6
:101B2000AF92BF92CF92DF92EF92FF920F931F93EB
:101B3000CF93DF934C01EB016115710529F183E02F
:101B40000E94750DF4018083C230D105E8F080E079
:101B50000E94750DF4018183C230D105A9F080E0A7
:101B60000E94750DF4018283C330D10569F080E0D5
:101B70000E94750DF4018383C430D10529F080E003
:101B80000E94750DF401848385E0E82EF12C012D6F
:101B9000112D5E01CC24DD240CC080E00E94750D67
:101BA000F401EE0DFF1D80830894E11CF11C011D62
:101BB000111DEA14FB040C051D057CF3DF91CF9188
:101BC0001F910F91FF90EF90DF90CF90BF90AF905B
:101BD0009F908F90089580915B0490915C046AE0DF
:101BE00070E00E948E0D08950F931F93CF93DF93A3
:101BF0008C01EB0106C0F80181918F010E94750DE7
:101C000021972097C1F7DF91CF911F910F910895F0
:101C1000DF93CF93CDB7DEB72E970FB6F894DEBF24
:101C20000FBECDBF0E94800CFE0131968EE0DF0119
:101C30001D928A95E9F782E08C838BEC9BE09A8772
:101C40008987209155043091560440915704509152
:101C500058042430310541055105E9F1253031059D
:101C600041055105A8F4213031054105510541F1E7
:101C7000213031054105510500F122303105410582
:101C8000510519F1233031054105510599F520C061
:101C9000263031054105510521F126303105410538
:101CA0005105E0F02730310541055105E9F02830B4
:101CB000310541055105F1F41AC08CEA91E002C0EA
:101CC0008FE891E00E94D00B3AC089E791E0FACF0B
:101CD0008EE591E0F7CF89E391E0F4CF8EE191E0DA
:101CE000F1CF84E091E0EECF80EE90E0EBCF86EC98
:101CF00090E0E8CF8DB79EB708970FB6F8949EBFD7
:101D00000FBE8DBFEDB7FEB73196CE010196ADB7D0
:101D1000BEB712969C938E9311978DEB90E09383B0
:101D2000828324833583468357830E943F358DB752
:101D30009EB708960FB6F8949EBF0FBE8DBF88EE73
:101D400093E00E94500B2E960FB6F894DEBF0FBEA4
:101D5000CDBFCF91DF910895809168008B7F8093F4
:101D600068002A9A80914E048E3D19F00E94CA0C98
:101D7000FDCF82E090E0A0E0B0E080935504909326
:101D80005604A0935704B093580480915B0490913B
:101D90005C04E0914F04F091500405960995089574
:101DA000EF92FF920F931F93CF93DF93C0915B0449
:101DB000D0915C04CE0105962D81223021F0243093
:101DC00009F056C024C063E070E00E94681C9C01CA
:101DD00040E050E0265F3F4F4F4F5F4FC901817099
:101DE00090702A50304040405040892B29F42F5F9A
:101DF0003F4F4F4F5F4F05C021153105410551053C
:101E0000B9F1CE010A96B9010E948E0D31C08885C4
:101E1000282F30E040E050E079018A010894E10881
:101E2000F10801091109275F3F4F4F4F5F4FC9016B
:101E3000817090702950304040405040892B11F003
:101E400079018A01E114F1040105110529F0CE019F
:101E50000A96B7010E948E0D88E090E0A0E0B0E005
:101E60008093550490935604A0935704B09358045C
:101E700060E070E080E090E0DF91CF911F910F91E2
:101E8000FF90EF9008950F931F93CF93DF939C01E2
:101E9000162F072F4EE554E02417350731F0CA01FD
:101EA000B901412F502F0E94E9341093CA030093C7
:101EB000CB0387E090E00E94500B2A9882E390E0E9
:101EC0000E943E0B80915E040E94750D80915F041C
:101ED0000E94750D809160040E94750D80916104CF
:101EE0000E94750D82E390E00E943E0B8091620497
:101EF0000E94750DC5E0D0E007C0FE01E25AFB4F1D
:101F000080810E94750D21968091CA039091CB0328
:101F1000C817D90790F382E090E0A0E0B0E080938A
:101F2000550490935604A0935704B09358042A9AEA
:101F300060E070E080E090E0DF91CF911F910F9121
:101F400008950F931F93CF93DF93EC01862F809515
:101F5000817091E098839B01280F311D3983860F92
:101F60008A831B821C828091E0048E3D09F0FFCFA2
:101F70008091550490915604A0915704B091580453
:101F80000097A105B10509F4FFCF89010B5F1F4F31
:101F90000197A105B10529F4CE01B8010E94430FB4
:101FA0002BC0E0913805F0913905099580915504D1
:101FB00090915604A0915704B09158040297A1053E
:101FC000B10581F583E090E0A0E0B0E08093550496
:101FD00090935604A0935704B0935804D0935A0496
:101FE000C093590410935204009351042A98E0912D
:101FF0003605F09137050995809155049091560466
:10200000A0915704B09158040297A105B10549F475
:1020100060E070E080E090E0DF91CF911F910F9140
:102020000895FFCFFFCF1F920F920FB60F9211248A
:102030002F933F934F935F936F937F938F939F93D0
:10204000AF93BF93EF93FF934A995FC0809155047C
:1020500090915604A0915704B09158040097A1059F
:10206000B10569F481E090E0A0E0B0E08093550410
:1020700090935604A0935704B093580448C08330FB
:102080009105A105B105C1F460915104709152040C
:102090008091590490915A040E94F40D82E090E0DE
:1020A000A0E0B0E08093550490935604A0935704A9
:1020B000B09358042A9A2BC00297A105B10539F5AF
:1020C00086E090E0A0E0B0E0809355049093560441
:1020D000A0935704B09358042A980E94EB0D88E00F
:1020E00090E0A0E0B0E08093550490935604A09354
:1020F0005704B09358040E94D00E611571058105F4
:10210000910529F40E94AC0E02C00E94010DFF91BE
:10211000EF91BF91AF919F918F917F916F915F915F
:102120004F913F912F910F900FBE0F901F901895D8
:1021300090934303809342038FEF9FEF90932D0181
:1021400080932C0108958F929F92AF92BF92CF926D
:10215000DF92EF92FF920F931F93DF93CF93CDB750
:10216000DEB764970FB6F894DEBF0FBECDBFAC01EB
:102170008B0160912C0170912D01882777FD80954E
:10218000982F222717FD2095322FCC24DD247601AD
:10219000E5E0AE2EB12CAC0EBD1E4E010894811CA4
:1021A000911C0E948D2F9C011816190624F00E9484
:1021B000CA0C2FEF3FEFC90164960FB6F894DEBF4B
:1021C0000FBECDBFCF91DF911F910F91FF90EF9088
:1021D000DF90CF90BF90AF909F908F900895CF9257
:1021E000DF92EF92FF920F931F93DF93CF93CDB7C0
:1021F000DEB72C970FB6F894DEBF0FBECDBF1D82A1
:102200001E821F82188688E893E1A0E0B0E08987EB
:102210009A87AB87BC8719821A821B821C826091C5
:102220002C0170912D01FB0185E0F695E7958A95CB
:10223000E1F7EE0FFF1FEE0FFF1F6E010894C11CA8
:10224000D11CEC0DFD1D9B012F71307011E0E12EB2
:10225000F12C012D112D04C0EE0CFF1C001F111FCD
:102260002A95D2F720813181428153812E293F293D
:10227000402B512B20833183428353836F5F7F4FE9
:10228000882777FD8095982FA60120E030E000E0B8
:1022900010E0B5E0EB2EF12CEC0EFD1E0E946B3031
:1022A00060912C0170912D01CB01A5E09695879549
:1022B000AA95E1F7880F991F880F991FC80ED91E9C
:1022C0006F717070F601208131814281538104C0A9
:1022D00055954795379527956A95D2F721703070B7
:1022E000C9012C960FB6F894DEBF0FBECDBFCF91BB
:1022F000DF911F910F91FF90EF90DF90CF900895A5
:10230000CF92DF92EF92FF920F931F93DF93CF93C1
:10231000CDB7DEB760970FB6F894DEBF0FBECDBF66
:1023200080912C0190912D018F5F9F4FE9F562E024
:1023300070E080E090E022E030E040E050E0E1E159
:10234000EE2EF12C012D112D0E94B7316B017C0175
:1023500077FF03C00E94CA0C1EC082E090E09A83FF
:1023600089838FE08B8385EB8C831D821E821F8285
:102370001886B601882777FD8095982FAE014F5FAC
:102380005F4F00E110E020E030E00E94B92E97FF9F
:1023900005C00E94D20C20E030E008C00E94CE0CA4
:1023A000D0922D01C0922C0121E030E0C90160964D
:1023B0000FB6F894DEBF0FBECDBFCF91DF911F9156
:1023C0000F91FF90EF90DF90CF9008958F929F92A2
:1023D000AF92BF92CF92DF92EF92FF920F931F9333
:1023E000DF93CF930F92CDB7DEB77B018C015901FC
:1023F0006A0180902A0590902B05C4010996B801C6
:10240000A7010E94441CB601A5010E94441C83E060
:1024100092E0B40148E00E94951483E092E0BE018E
:102420006F5F7F4F0E943823698170E080E090E009
:102430000F90CF91DF911F910F91FF90EF90DF9060
:10244000CF90BF90AF909F908F9008950F931F9360
:10245000DF93CF9300D000D00F92CDB7DEB78C01C1
:1024600060912A0570912B0587E092E040E00E9480
:10247000951487E092E0BE016F5F7F4F0E94382382
:102480008C81F80180838D81818389810F900F90E9
:102490000F900F900F90CF91DF911F910F910895A2
:1024A0002F923F924F925F926F927F928F929F9264
:1024B000AF92BF92CF92DF92EF92FF920F931F9352
:1024C000DF93CF9300D000D0CDB7DEB74B015C01D6
:1024D000522E432E342E252E8FEF9FEFAFEFBFEFFE
:1024E00089839A83AB83BC8360902A0570902B0507
:1024F000C3010A96B501A4010E94441C4CE050E0BF
:1025000060E070E00E94441C452D542D632D722D17
:102510000E94441CB801A7010E94441C9301265E3E
:102520003F4FC901B601452D542D0E94E93482E088
:1025300092E0909325058093240580E990E0B30113
:1025400040E1252D342D0E94511482E092E0BE011D
:102550006F5F7F4F0E94382369817A818B819C81D4
:102560000F900F900F900F90CF91DF911F910F91CF
:10257000FF90EF90DF90CF90BF90AF909F908F90A3
:102580007F906F905F904F903F902F9008952F9283
:102590003F924F925F926F927F928F929F92AF92F3
:1025A000BF92CF92DF92EF92FF920F931F93CF9340
:1025B000DF931B012C0149015A01E80166247724AD
:1025C00019C0730100E010E0C201B10120E230E067
:1025D00040E050E00E945012662329F580E290E02E
:1025E000680E791E80EE9FEFAFEFBFEF880E991E49
:1025F000AA1EBB1E6E01C60CD71C90E28916910460
:10260000A104B104F0F681149104A104B10411F401
:1026100060E009C0730100E010E0C201B101A50152
:1026200094010E945012862FDF91CF911F910F913C
:10263000FF90EF90DF90CF90BF90AF909F908F90E2
:102640007F906F905F904F903F902F900895CF9222
:10265000DF92EF92FF920F931F936C0166E070E0A0
:1026600080E090E026E030E040E050E0EE24FF24FF
:1026700087010E945012862F1F910F91FF90EF90BB
:10268000DF90CF9008952F923F924F925F926F927A
:102690007F928F929F92AF92BF92CF92DF92EF92F2
:1026A000FF920F931F93DF93CF930F92CDB7DEB7B7
:1026B0004B015C0129013A018FEF898320902A05A3
:1026C00030902B05C1010996B501A4010E94441C5C
:1026D000B301A2010E94441CB801A7010E94441C3E
:1026E00081E092E0B1014CE00E94951481E092E01B
:1026F000BE016F5F7F4F0E943823C60160E070E02B
:1027000040E050E00E942F23698170E080E090E07B
:102710000F90CF91DF911F910F91FF90EF90DF907D
:10272000CF90BF90AF909F908F907F906F905F9071
:102730004F903F902F900895CF92DF92EF92FF92AB
:102740000F931F936C0166E070E080E090E026E05C
:1027500030E040E050E0EE24FF2487010E94431364
:10276000862F1F910F91FF90EF90DF90CF900895EB
:102770006F927F928F929F92AF92BF92CF92DF9291
:10278000EF92FF920F931F93CF93DF936B014A0158
:10279000E90145E0642E712C660E771E93E0FB0183
:1027A0009583868389010E5F1F4FCB010796B80181
:1027B0000E94601C7C013BE0A32EB12CAC0CBD1C24
:1027C000F3E0C93EDF0790F4BE010E94601CC70120
:1027D000BE010E94601CC501B401AE010E94E93433
:1027E0002696C601BE010E94A10F4CC0CE0168EE24
:1027F00073E00E94F136660F771F060F171FC7019F
:10280000B8010E94601CC70168EE73E00E94601C62
:10281000D501F40188EE93E001900D920197E1F764
:102820008E01085E134098EEE92E93E0F92EE80C35
:10283000F91CC6016EEE73E00E94A10F82E0C82E63
:10284000D12CC60CD71C1BC083E0093E180720F40E
:10285000E80100E010E004C0085E1340C8EED3E0D9
:10286000F301D183C083C601B701AE010E94E934F0
:10287000EC0EFD1E2296C301BE010E94A10F0115A0
:10288000110511F7DF91CF911F910F91FF90EF90FC
:10289000DF90CF90BF90AF909F908F907F906F9080
:1028A0000895EF92FF920F931F937B01890192E0AD
:1028B000FB01958386834783040F111DCB01089686
:1028C000B8010E94601C0B5F1F4FC701B8010E9436
:1028D000A10F1F910F91FF90EF900895CF92DF927B
:1028E000EF92FF920F931F936B01890192E0FB011E
:1028F000958386834783040F151F0E0D1F1DCB0183
:102900000896B8010E94601C0B5F1F4FC601B801FA
:102910000E94A10F60E070E080E090E01F910F91B5
:10292000FF90EF90DF90CF900895EF92FF920F937A
:102930001F939C017B01042F909325058093240510
:1029400081E0FB018583CB010696B9010E94601CE2
:10295000FC01008310E00C5F1F4FC701B8010E940B
:10296000A10F80E090E01F910F91FF90EF900895EC
:10297000AF92BF92CF92DF92EF92FF920F931F938D
:1029800070932D0560932C0550932F0540932E05D1
:1029900030933105209330051093350500933405AD
:1029A000F0923705E0923605D0923905C09238058D
:1029B000B0923B05A0923A0590933305809332057F
:1029C00081E0809350051F910F91FF90EF90DF9071
:1029D000CF90BF90AF900895DF93CF9300D000D0F9
:1029E000CDB7DEB7FC0120912A0530912B05009769
:1029F00029F42FEF3FEF4FEF5FEF28C08FEF9FEFEE
:102A0000AFEFBFEF89839A83AB83BC8384E5808378
:102A100081838283D90119968C93199781811A96A3
:102A20008C931A9782811B968C938CE090E0B9016D
:102A300043E00E9495148CE090E0BE016F5F7F4FF1
:102A40000E94382329813A814B815C81B901CA01F6
:102A50000F900F900F900F90CF91DF910895DF931B
:102A6000CF9300D000D0CDB7DEB78FEF9FEFAFEFA1
:102A7000BFEF89839A83AB83BC8360912A057091F1
:102A80002B058BE090E040E00E9495148BE090E0F5
:102A9000BE016F5F7F4F0E94382369817A818B81ED
:102AA0009C810F900F900F900F90CF91DF91089520
:102AB000DF93CF9300D000D0CDB7DEB78FEF9FEF7D
:102AC000AFEFBFEF89839A83AB83BC8360912A0504
:102AD00070912B0589E090E040E00E94951489E018
:102AE00090E0BE016F5F7F4F0E94382369817A8139
:102AF0008B819C810F900F900F900F90CF91DF9161
:102B00000895DF93CF9300D000D0CDB7DEB78FEF1D
:102B10009FEFAFEFBFEF89839A83AB83BC83609154
:102B20002A0570912B0582E090E040E00E94951408
:102B300082E090E0BE016F5F7F4F0E943823698181
:102B40007A818B819C819B01209311063093120620
:102B50000F900F900F900F90CF91DF910895CF922B
:102B6000DF92EF92FF920F931F93DF93CF9300D0EA
:102B700000D0CDB7DEB7AB01BC01EE24EA94FE2C49
:102B80008701E982FA820B831C83C0902A05D090CA
:102B90002B05C60109960E94441CE982FA820B8328
:102BA0001C838AE090E0B60144E00E9495148AE01C
:102BB00090E0BE016F5F7F4F0E94382369817A8168
:102BC0008B819C810F900F900F900F90CF91DF9190
:102BD0001F910F91FF90EF90DF90CF9008950F938A
:102BE0001F93DF93CF9300D000D0CDB7DEB7AB01FA
:102BF000BC01DB01CA0188709078A070B070885069
:102C00009048A040B040A9F410925005483080E8A8
:102C1000580780E0680780E0780729F420E030E07A
:102C200040E050E02AC0477F5F7760707070506866
:102C300003C081E0809350058FEF9FEFAFEFBFEFB0
:102C400089839A83AB83BC8300912A0510912B055D
:102C5000C80109960E94441C88E090E0B80144E055
:102C60000E94951488E090E0BE016F5F7F4F0E9444
:102C7000382329813A814B815C81B901CA010F90C7
:102C80000F900F900F90CF91DF911F910F910895AA
:102C90002F923F924F925F926F927F928F929F926C
:102CA000AF92BF92CF92DF92EF92FF920F931F935A
:102CB000DF93CF93CDB7DEB728970FB6F894DEBF7A
:102CC0000FBECDBF3B014C0119012A018DA58F8399
:102CD0009EA5988780912A0590912B059E838D83D0
:102CE000099644E250E060E070E00E94441CB401A8
:102CF000A3010E94441CB201A1010E94441CB8011E
:102D0000A7010E94441CB601A5010E94441C4D8DE0
:102D10005E8D6F8D78A10E94441C49A15AA16BA1C0
:102D20007CA10E94441C4DA15EA16FA178A50E94C8
:102D3000441C49A55AA56BA57CA50E94441CDC0136
:102D40008F819885FC019F01205C3F4F02C08191DB
:102D50008D93E217F307D9F783E090E06D817E81D0
:102D600044E60E94951483E090E0BE016F5F7F4FC0
:102D70000E94382369817A818B819C8128960FB6C5
:102D8000F894DEBF0FBECDBFCF91DF911F910F91A1
:102D9000FF90EF90DF90CF90BF90AF909F908F907B
:102DA0007F906F905F904F903F902F900895CF92BB
:102DB000DF92EF92FF920F931F938B019C016A01A8
:102DC000E0902A05F0902B05C7010996B901A801EA
:102DD0000E94441C87E090E0B70144E00E949514F3
:102DE00087E090E0B6010E94382360E070E080E068
:102DF00090E01F910F91FF90EF90DF90CF9008959A
:102E00000F931F93DF93CF9300D000D0CDB7DEB7E1
:102E1000AB01BC0100912A0510912B05C801099650
:102E20000E94441C8FEF9FEFAFEFBFEF89839A831F
:102E3000AB83BC8386E090E0B80144E00E94951427
:102E400086E090E0BE016F5F7F4F0E94382369816A
:102E50007A818B819C810F900F900F900F90CF9172
:102E6000DF911F910F9108954F925F926F927F9221
:102E70008F929F92AF92BF92CF92DF92EF92FF928A
:102E80000F931F93DF93CF9300D000D0CDB7DEB761
:102E90005B016C0139014A018FEF9FEFAFEFBFEF8C
:102EA00089839A83AB83BC8340902A0550902B057D
:102EB000C2010996B601A5010E94441CB401A301F8
:102EC0000E94441CB801A7010E94441C84E090E0C9
:102ED000B2014CE00E94951484E090E0BE016F5F67
:102EE0007F4F0E94382369817A818B819C810F906A
:102EF0000F900F900F90CF91DF911F910F91FF9046
:102F0000EF90DF90CF90BF90AF909F908F907F9089
:102F10006F905F904F9008952F923F924F925F92E3
:102F20006F927F928F929F92AF92BF92CF92DF92D9
:102F3000EF92FF920F931F93DF93CF93CDB7DEB73E
:102F400064970FB6F894DEBF0FBECDBF3B014C01B6
:102F5000588B4F87180129018701A98ABA8ACB8A21
:102F6000DC8AC9A4DAA4EBA4FCA495E0A92EB12CB8
:102F7000AC0EBD1E86E0D5011D928A95E9F7E09161
:102F80002A05F0912B05FE87ED87CF010996B40144
:102F9000A3010E94441CF1E06F16710481049104A6
:102FA00009F45DC021E0621671048104910440F0CF
:102FB000A4E06A1671048104910408F075C1E8C0A8
:102FC00044E150E060E070E00E94441CB201A101C5
:102FD0000E94441C60E070E00E94601CAC0101157E
:102FE000110571F0DC0120E030E0F801E20FF31F81
:102FF00080818D932F5F3F4F26303105B1F70AC096
:10300000F501DC019E01255F3F4F81918D93E21711
:10301000F307D9F7CA01069649895A896B897C89D1
:103020000E94441CBC0120E030E040E050E00EC0B3
:10303000F901DB01A20FB31F8F859889E80FF91FF3
:1030400080818C932F5F3F4F4F4F5F4F2215330589
:103050004405550568F38101085E1F4F25C140E214
:1030600050E060E070E00E94441CB201A1010E94A7
:10307000441C60E070E00E94601CAC010115110569
:1030800071F0DC0120E030E0F801E20FF31F8081F5
:103090008D932F5F3F4F26303105B1F70AC0F50100
:1030A000DC019E01255F3F4F81918D93E217F3076D
:1030B000D9F7CA01069649895A896B897C890E9489
:1030C000441CB201A101445F5F4F6F4F7F4F0E94CC
:1030D000441CB701A6010E94441C4DA55EA56FA526
:1030E00078A90E94441CBC0120E030E040E050E0A0
:1030F0000EC0F901DB01A20FB31F8F859889E80F7D
:10310000F91F80818C932F5F3F4F4F4F5F4F2215E8
:1031100033054405550568F3DB01A20DB31DBC87DB
:10312000AB87360100E010E060E070E08B849C84A7
:10313000860E971EADA8BEA8A60EB71E20E030E0F2
:1031400040E050E00CC0F901D401A20FB31FEA0D1A
:10315000FB1D80818C932F5F3F4F4F4F5F4F2C158E
:103160003D054E055F0578F30F5F1F4F660D771D18
:1031700004301105D9F681010C5D1F4F82E0CC0CA3
:10318000DD1CEE1CFF1C8A95D1F70C0D1D1D8CC09B
:1031900048E250E060E070E00E94441CB201A101EE
:1031A0000E94441C60E070E00E94601CAC010115AC
:1031B000110571F0DC0120E030E0F801E20FF31FAF
:1031C00080818D932F5F3F4F26303105B1F70AC0C4
:1031D000F501DC019E01255F3F4F81918D93E21740
:1031E000F307D9F7CA01069649895A896B897C8900
:1031F0000E94441CB701A6010E94441C4DA55EA577
:103200006FA578A90E94441C49A95AA96BA97CA959
:103210000E94441CB201A101485F5F4F6F4F7F4F76
:103220000E94441C4FA958AD69AD7AAD0E94441C60
:10323000BC0120E030E040E050E00EC0F901DB01CD
:10324000A20FB31F8F859889E80FF91F80818C9397
:103250002F5F3F4F4F4F5F4F2215330544055505F4
:1032600068F3620D731D20E030E040E050E00EC0D6
:10327000F901DB01A20FB31F8DA99EA9E80FF91F69
:1032800080818C932F5F3F4F4F4F5F4F8FA998AD39
:10329000A9ADBAAD281739074A075B0748F3810182
:1032A000045D1F4F080F191F85E090E06D857E8536
:1032B000402F0E94951485E090E0BE016F5F7F4F24
:1032C0000E94382369817A818B819C8164960FB634
:1032D000F894DEBF0FBECDBFCF91DF911F910F914C
:1032E000FF90EF90DF90CF90BF90AF909F908F9026
:1032F0007F906F905F904F903F902F9008958F92A6
:103300009F92AF92BF92CF92DF92EF92FF920F9374
:103310001F93CF93DF9381E595E00E94792C6B0199
:103320007C01611571058105910509F0EBC06DE027
:1033300070E080E090E023E430E040E050E0EE24F4
:10334000FF248701E1EECE2EE4E0DE2E0E9443133F
:103350006B017C01611571058105910509F0D2C0F1
:103360008091E104882E9924AA24BB24C82FD0E0A0
:10337000CC51DB4FCE0161E575E00E94492CE09114
:10338000E104F0E0EF51FB4F8181813130F0CE015B
:10339000409661E575E00E94492C8F8D98818823C5
:1033A00069F09F3129F020E230E040E050E00BC0AE
:1033B00021962FE130E040E050E005C0292F30E0B9
:1033C00040E050E02196E091E104F0E0EF51FB4F46
:1033D0008281813061F1813020F0843008F092C028
:1033E0004AC08DB79EB742970FB6F8949EBF0FBEE6
:1033F0008DBFEDB7FEB73196ADB7BEB711961D9232
:103400001D921D921C9214971482158216821782A7
:1034100010861186128613861586148616861786E0
:10342000108A118A60E070E080E090E054C0ADB78F
:10343000BEB752970FB6F894BEBF0FBEADBFEDB783
:10344000FEB7319611962D933D934D935C9314974F
:1034500014821582168217821086118612861386B0
:10346000D587C48716861786108A118A61E070E0B6
:1034700080E090E030C0ADB7BEB752970FB6F89479
:10348000BEBF0FBEADBFEDB7FEB7319618E1C12E7E
:10349000D12CE12CF12C1196CD92DD92ED92FC9283
:1034A00014978EE190E0A0E0B0E084839583A6833A
:1034B000B78382E090E0A0E0B0E080879187A287A8
:1034C000B387D587C48726873787408B518B63E0C6
:1034D00070E080E090E042EE54E095018401EE243B
:1034E000FF24E1E0AE2EB12CC12CD12C0E948C1710
:1034F0006B017C018DB79EB742960FB6F8949EBFC4
:103500000FBE8DBFB601C701DF91CF911F910F9103
:10351000FF90EF90DF90CF90BF90AF909F908F90F3
:1035200008952F923F924F925F926F927F928F9267
:103530009F92AF92BF92CF92DF92EF92FF920F9342
:103540001F93DF93CF93CDB7DEB760970FB6F89494
:10355000DEBF0FBECDBF2B013C015C874B870D87C3
:103560001E872F87388B16018E010B5F1F4F86E059
:10357000D8011D928A95E9F78FEF9FEFAFEFBFEF6C
:1035800089839A83AB83BC83C0902A05D0902B0596
:10359000C60109964CE150E060E070E00E94441CD6
:1035A0004D855E856F8578890E94441CB301A20118
:1035B0000E94441C4D855E856F857889405F5F4F12
:1035C0006F4F7F4F0E94441CB501A4010E94441C10
:1035D00060E070E00E94601CDC01E114F10481F005
:1035E000AC0120E030E0F701E20FF31F8081FA0127
:1035F0008193AF012F5F3F4F26303105A1F70EC0F9
:10360000B8019C01AE01455F5F4FFB018191BF0195
:10361000F90181939F0164177507B9F7BD016A5FCE
:103620007F4F20E030E040E050E00CC0EB85FC85AF
:10363000E20FF31F8081DB018D93BD012F5F3F4FB0
:103640004F4F5F4F8D859E85AF85B8892817390705
:103650004A075B075CF381149104A104B104C9F02B
:1036600021143104B1F020E030E040E050E00CC023
:10367000F901DB01A20FB31FE20DF31D80818C93D2
:103680002F5F3F4F4F4F5F4F281539054A055B05A8
:103690007CF34D85445E480D81E090E0B6010E94C8
:1036A000951481E090E0BE016F5F7F4F0E94382348
:1036B00069817A818B819C819B01209311063093D3
:1036C000120660960FB6F894DEBF0FBECDBFCF9145
:1036D000DF911F910F91FF90EF90DF90CF90BF90FF
:1036E000AF909F908F907F906F905F904F903F90A2
:1036F0002F900895E0913A05F0913B0580E00995FF
:10370000E0913405F0913505099561157105810544
:103710009105B1F380912A0590912B05892B21F019
:1037200010922B0510922A050E94680D0895EF92C1
:10373000FF920F931F93CF93DF93EC0110924805F4
:103740001092490510924A0510924B0510924C05B3
:1037500010924D0510924E0510924F0510922505BE
:1037600010922405109241051092400510924305D5
:10377000109242051092450510924405109247059B
:103780001092460510923C0510923D0510923E05A0
:1037900010923F05109227051092260510922905D8
:1037A0001092280570932B0560932A0586E39CE10F
:1037B0000E94130DE0913405F091350509957B01C8
:1037C0008C01E0913A05F0913B0581E00995E11407
:1037D000F1040105110559F0E0913405F09135052A
:1037E00009956115710581059105B1F714C0E09146
:1037F0003405F0913505099561157105810591052F
:10380000B1F3E0913405F091350509956115710525
:1038100081059105B1F7E0912A05F0912B051186FC
:10382000CD2B11F081E0818780E090E4BF0141E081
:103830000E94951480E090E460E070E00E943823DC
:1038400060912A0570912B058BE090E440E00E9486
:1038500095148BE090E460E070E00E943823DF91E3
:10386000CF911F910F91FF90EF90089521E030E0EC
:1038700030932705209326059093290580932805EA
:103880000E94461F08950895CF93DF93FC01DC0149
:103890004D939D01BB27A72F962F852F8183F9017B
:1038A0003196CB01AA27BB27E9018983472F5527EA
:1038B0006627772741833296CF01DF91CF91089514
:1038C000DC01FC01619311967C933196CF01089540
:1038D000FB01E80FF91F318120E08081280F311DA5
:1038E000C9010895FB01E80FF91F2381332727FD44
:1038F0003095432F532F522F44273327222782817D
:10390000992787FD9095A92FB92FDC019927882742
:10391000280F391F4A1F5B1F8081992787FD9095CB
:10392000A92FB92F280F391F4A1F5B1F81819927A3
:1039300087FD9095A92FB92FBA2FA92F982F8827E7
:10394000280F391F4A1F5B1FB901CA010895AF92A2
:10395000BF92CF92DF92EF92FF920F931F93590184
:103960006A016830710581059105A0F522E0A21673
:10397000B104C104D10470F521E030E0062E02C08C
:10398000220F331F0A94E2F720953095442737FD24
:103990004095542FE0902E01F0902F0100913001BE
:1039A000109131012E213F2140235123062E04C0C6
:1039B000AA0CBB1CCC1CDD1C0A94D2F72A293B297B
:1039C0004C295D2920932E0130932F014093300123
:1039D000509331011F910F91FF90EF90DF90CF90A6
:1039E000BF90AF9008959B01AC01683071058105CF
:1039F0009105E8F481E090E002C0880F991F2A95B4
:103A0000E2F79C01442737FD4095542F80912E0109
:103A100090912F01A0913001B091310128233923D9
:103A20004A235B23211531054105510521F021E091
:103A300030E040E050E0B901CA0108958F929F92B2
:103A4000AF92BF92CF92DF92EF92FF920F931F93AC
:103A5000DF93CF93CDB7DEB7A9970FB6F894DEBF4B
:103A60000FBECDBF8C0161E070E00E94681CBC01FC
:103A700096FF6DC021E48030920709F068C0C8014C
:103A800065E070E00E94681C4C0197E0A92EB12C03
:103A9000A00EB11ECC24DD24EE24FF24870112C029
:103AA000C50162E070E00E94681CA0E0B0E0E80E92
:103AB000F91E0A1F1B1F84E090E0A80EB91E08948F
:103AC000C11CD11CC814D90458F3809140059091B1
:103AD00041058E0D9F1D9093410580934005809177
:103AE0004C0590914D05A0914E05B0914F05E80E03
:103AF000F91E0A1F1B1FE0924C05F0924D05009322
:103B00004E0510934F0520914C0530914D05409185
:103B10004E0550914F058091480590914905A0911F
:103B20004A05B0914B05281739074A075B0709F08A
:103B3000ADC080915005882309F4A8C0E0913205FA
:103B4000F091330569E970E080E090E048C077FFCC
:103B5000FAC090E86034790709F49DC0A0E86134A8
:103B60007A07A0F4B0E864307B0761F1E0E86530E3
:103B70007E0738F4CB0181509048029708F06DC160
:103B800021C06051704809F068C12DC024E8603040
:103B90007207C1F084E86130780750F490E860382B
:103BA000790781F0A2E860307A0709F056C10AC0AF
:103BB000B8E860307B0709F4B2C0E9E860307E07FE
:103BC00009F04BC18091320590913305892B09F49E
:103BD0005DC0E0913205F091330580E090E040E077
:103BE00050E020E052C0F8013596D80115968C912E
:103BF00015978D8B81818E8B82818F8B8381888FAE
:103C0000F801399619968C911997898F81818A8F3D
:103C100082818B8F83818C8FF8013D961D968C91CC
:103C20001D978D8F81818E8F82818F8F838188A355
:103C3000F801719651968C91519789A381818AA33D
:103C400082818BA383818CA3F801759655968C9104
:103C500055978DA381818EA382818FA3838188A7AD
:103C600014968C9189A78091320590913305892B08
:103C700069F0E0913205F091330560E170E880E091
:103C800090E0AE014B5E5F4F25E1099521E030E009
:103C900040E050E0E6C00B5F1F4FC80160E070E0FD
:103CA0000E94721C69837A838B839C83C80164E0C1
:103CB00070E00E94721C6D837E838F839887C80199
:103CC00068E070E00E94721C69877A878B879C8706
:103CD000C8016CE070E00E94721C6D877E878F8740
:103CE000988BC80160E170E00E94721C9B01AC01DE
:103CF0008091320590913305892B41F2E091320594
:103D0000F0913305298B3A8B4B8B5C8B60E470E828
:103D100080E090E0AE014F5F5F4F24E1B6CF80912D
:103D2000320590913305892B09F4B0CFE09132052B
:103D3000F09133050B5F1F4F60E078E880E090E082
:103D4000A80121E0A2CFB0E163307B0749F0E0E1B8
:103D50006F307E0729F0F0E16E307F0709F06AC00E
:103D600085E0C82ED12CC00ED11EC60164E070E0E3
:103D70000E94721C675C7F4F8F4F9F4F09F06DC090
:103D8000D80114968C9190E0A0E0B0E080933C05BF
:103D900090933D05A0933E05B0933F05C60160E0BA
:103DA00070E00E94721C7B018C01C60164E070E02F
:103DB0000E94721C675C7F4F8F4F9F4F09F066CF48
:103DC000E8E0EE16F1040105110508F05FCF81E08F
:103DD00090E00E2C02C0880F991F0A94E2F780959C
:103DE0009095AA2797FDA095BA2F20912E0130918A
:103DF0002F01409130015091310182239323A4235C
:103E0000B52321E030E040E050E00E2C04C0220F4A
:103E1000331F441F551F0A94D2F7822B932BA42BD8
:103E2000B52B80932E0190932F01A0933001B09376
:103E300031012CCF809124059091250568177907D1
:103E400061F090E06050704109F491E081E09827C2
:103E5000292F30E040E050E004C020E030E040E0B6
:103E600050E0B901CA01A9960FB6F894DEBF0FBEA3
:103E7000CDBFCF91DF911F910F91FF90EF90DF9019
:103E8000CF90BF90AF909F908F900895809126051E
:103E900090912705892BD1F0E0912805F091290513
:103EA0008081843099F4CF010E941E1D613071051C
:103EB0008105910559F410922705109226050E945C
:103EC0006F0D21E030E040E050E004C020E030E041
:103ED00040E050E0B901CA010895DF93CF9300D0CC
:103EE00000D0CDB7DEB719821A821B821C82FC017A
:103EF0008581823021F1833009F43FC0813009F09F
:103F00005FC080912E0590912F05892B91F0E09153
:103F10002E05F0912F05CE0101960995AC01009771
:103F200041F060912A0570912B0529813A8181E049
:103F300045C060912A0570912B0581E03BC08091BE
:103F40002C0590912D05892B91F0E0912C05F09195
:103F50002D05CE0101960995AC01009741F06091C5
:103F60002A0570912B0529813A8182E027C0609152
:103F70002A0570912B0582E01DC08091300590913B
:103F80003105892B91F0E0913005F0913105CE019A
:103F900001960995AC01009741F060912A05709156
:103FA0002B0529813A8183E009C060912A0570912F
:103FB0002B0583E040E050E020E030E00E94B813A1
:103FC0000F900F900F900F90CF91DF9108954F9227
:103FD0005F926F927F928F929F92AF92BF92CF9299
:103FE000DF92EF92FF920F931F93CF93DF936C01B9
:103FF0002B013A01AA24BB24809126059091270524
:10400000892BD1F38090280590902905D4018C91BB
:10401000843009F0BFC2C40161E070E00E94681CF6
:104020005C01C4010E941E1D611571058105910589
:1040300009F0A4C2E4012596B8E0AB16B0E1BB06D6
:1040400008F056C0E6E0AE16E0E1BE0608F0CCC0CF
:10405000F2E0AF16F2E0BF0609F4C6C003E0A01616
:1040600002E0B00600F51DE0A116B10480F468E09E
:10407000A616B10408F0B8C081E0A816B10408F48F
:104080007DC297E0A916B10408F4AEC0D4C1ADE07A
:10409000AA16B10409F4A3C0B1E0AB16B2E0BB06A6
:1040A00009F06CC29CC0E3E0AE16E0E1BE0698F4F5
:1040B000F1E0AF16F0E1BF0608F096C005E0A016EB
:1040C00002E0B00608F48BC017E0A11612E0B106BA
:1040D00009F054C28DC064E0A61660E1B60609F48A
:1040E000DCC085E0A81680E1B80608F0B1C042C186
:1040F00091E1A91690E1B90609F471C0A2E1AA16EE
:10410000A0E1BA0658F5BBE0AB16B0E1BB0609F476
:104110006BC0ECE0AE16E0E1BE0668F4F9E0AF1665
:10412000F0E1BF0609F460C00AE0A01600E1B006A5
:1041300008F073C13AC11FE0A11610E1B10609F4FD
:1041400019C160E1A61660E1B60608F061C08DE015
:10415000A81680E1B80609F011C29FC095E0A91623
:1041600090E2B90609F4A4C1A6E0AA16A0E2BA0634
:1041700068F4B2E1AB16B0E1BB0609F460C0E1E05F
:10418000AE16E0E2BE0608F4F9C129C0FAE0AF16A7
:10419000F0E2BF0660F408E0A01600E2B006F8F412
:1041A00016E0A11610E2B10609F0E8C118C06BE0F4
:1041B000A61660E4B60609F0E1C1D40115968C910B
:1041C00090E09093410580934005CE0161E070E05E
:1041D0000E94681C9093430580934205CFC1E4017F
:1041E0008C81F6018083CAC1CE0160E070E01EC000
:1041F000F4018481D6018D936D01CE0160E070E001
:104200000E94721CAB01BC01C6010E94441CB6C1D5
:10421000CE0160E070E00E94721CF6016193719320
:10422000819391936F01CE0164E070E00E94721C53
:10423000D6016D937D938D939C9313979FC1CE016F
:1042400060E070E00E94681CE6019983888396C153
:10425000CE0160E070E00E94721CF60161937193E0
:10426000819391938F01CE0164E070E00E94721CF3
:10427000D60114966D937D938D939C931797E4E0EC
:10428000CE2ED12CC00ED11ED601FE01389680E173
:1042900001900D928150E1F771C1CE0160E070E0B4
:1042A0000E94721CF60161937193819391938F0127
:1042B000CE0164E070E00E94721CD60114966D93EA
:1042C0007D938D939C93179774E0C72ED12CC00ECD
:1042D000D11ECE0168E070E00E94721C9B01AC010F
:1042E000E8016C837D838E839F83F60184819581B1
:1042F000A681B781875C9F4FAF4FBF4F09F03EC18A
:10430000283031054105510508F038C1822F21E0E0
:1043100030E0082E02C0220F331F0A94E2F72095E6
:104320003095442737FD4095542FE0902E01F090B2
:104330002F0100913001109131012E213F214023A6
:10434000512361E0E62EF12C012D112D04C0EE0C5D
:10435000FF1C001F111F8A95D2F72E293F29402BE1
:10436000512B20932E0130932F0140933001509315
:10437000310104C1CE0160E070E00E94721CD601E0
:104380006D937D938D939D938D01CE0164E070E0DC
:104390000E94721CE6016C837D838E839F8354E0B0
:1043A000C52ED12CC00ED11EE9C0CE0160E070E058
:1043B0000E94721CF60161937193819391938F0116
:1043C000CE0164E070E00E94721CD60114966D93D9
:1043D0007D938D939C93179744E0E42EF12CE00E8F
:1043E000F11ECE0168E070E00E94721CF801648347
:1043F00075838683978334E0C32ED12CCE0CDF1CCB
:10440000CE016CE070E00E94721CD70114966D938F
:104410007D938D939C931797B1C0E4018C81F60135
:1044200084838D819E81AF81B885E60188839983DD
:10443000AA83BB83A3C0CE0160E070E00E94721C1F
:10444000F60161937193819391938F01CE0164E0A2
:1044500070E00E94721CD60114966D937D938D932B
:104460009C931797CE0168E070E00E94681CA0E062
:10447000B0E0F80184839583A683B783CE016AE018
:1044800070E00E94681CA0E0B0E0F601828793878C
:10449000A487B5872CE0E22EF12CCE0CDF1CD601D0
:1044A000FE013C9686E201900D928150E1F766C0D4
:1044B000D40115968C91F60181938981D6011196CC
:1044C0008C9311978A8181838B8182831496F40166
:1044D0003996E4018985E6018C8381818D8382810F
:1044E0008E8383818F839D012C5F3F4FF4013D9626
:1044F000E4018D8514968C9314978181E601898758
:1045000082818A8783818B87F4017196E40189898E
:10451000E9018C838181E6018D8782818E87838189
:104520008F87F4017596E4018D89E901888781817F
:104530001D968C931D9782811E968C931E97838166
:104540001F968C93E4019601F401D601A4014A5F01
:104550005F4F818D54968C93549731961196E41742
:10456000F507B9F7A401405E5F4F8F8DF901828F87
:1045700021962F5F3F4FC417D507B9F780912405C7
:1045800090912505A816B906B9F510922505109247
:10459000240532C0D40112960C91C40163E070E08E
:1045A0000E94681CEC0141145104A1F0C40105965D
:1045B00064E070E00E94721C462FF30160837183F7
:1045C0008283938394012B5E3F4FC201B90150E077
:1045D0000E94E934202F30E0FE01E21BF30B2B5F39
:1045E0003F4F280D391DC601B901AF010E94E934C2
:1045F0001092470510924605109227051092260545
:104600000E946F0DD4018C91843041F4B0E0AB1660
:10461000B0E1BB0619F4C4010E946D1F809124050E
:1046200090912505892B09F0E7CC80914605909162
:104630004705892B09F0E0CC80E090E0DF91CF9135
:104640001F910F91FF90EF90DF90CF90BF90AF90B0
:104650009F908F907F906F905F904F90089521E092
:1046600030E030934705209346050E94E71F0895E8
:10467000CB0160E070E040E050E00E94E71F089549
:10468000EF92FF920F931F93CF93DF93AC0120E043
:1046900030E0FA01E20FF31FDB01A20FB31F8C9190
:1046A00080832F5F3F4F2031310599F7EA0181E088
:1046B000E82EF12C0C85A02FB0E0F701EE5CFC4F4A
:1046C0009081888198271D85E12FF0E0EE5CFE4FF8
:1046D00080819827988B7E85E72FF0E0EE5CFE4F77
:1046E000408189814827498B6F85E62FF0E0EE5C99
:1046F000FE4F30818A8138273A8BAE5CBE4F2C91B9
:104700008B8128272B8B8C8189278C8B9D819427EB
:104710009D8B4E8143274E8B5F8152275F8B38855F
:104720003827388F29852927298F9A8594279A8FAA
:104730008B8585278B8F30273C8F21272D8F9727BF
:104740009E8F86278F8F0894E11CF11C60968BE06A
:10475000E816F10409F0AECFDF91CF911F910F91D0
:10476000FF90EF900895982F990F87FF03C08BE17A
:1047700089270895892F08952F923F924F925F9233
:104780006F927F928F929F92AF92BF92CF92DF9261
:10479000EF92FF920F931F93DF93CF93CDB7DEB7C6
:1047A00062970FB6F894DEBF0FBECDBF9A8B898B90
:1047B0009B0100E004969A83898389899A890896E7
:1047C0009C838B83A989BA891C96BE83AD83E989B2
:1047D000FA893196F887EF8389899A8905969A87AD
:1047E0008987A989BA891996BC87AB87E989FA892B
:1047F0003D96FE87ED8712E0212E312C89899A891A
:10480000280E391EB6E04B2E512C480E591EAAE038
:104810006A2E712C680E791EFEE08F2E912C880E68
:10482000991EEFE0AE2EB12CA80EB91E5BE0C52E8E
:10483000D12CC80ED91E47E0E42EF12CE80EF91E4B
:104840000396988B8F871BE1A989BA89EC91DB01CC
:104850008C91E827F0E0EE5CFE4F8081E989FA89CF
:104860008083A981BA81EC91DB0114968C91E827B1
:10487000F0E0EE5CFE4F8081E981FA818083AB81BC
:10488000BC81EC91DB0118968C91E827F0E0EE5C9E
:10489000FE4F8081EB81FC818083AD81BE81EC91F4
:1048A000DB011C968C91E827F0E0EE5CFE4F8081E6
:1048B000ED81FE818083EF81F885A081FB018181FC
:1048C000A827E985FA859081FB0185819827E92F42
:1048D000F0E0EE5CFE4F8081EF81F8858083EB8510
:1048E000FC859081FB0181859827E92FF0E0EE5C43
:1048F000FE4F8081E985FA858083ED85FE85908174
:10490000FB0185859827E92FF0E0EE5CFE4F808162
:10491000EB85FC858083B0E0AE5CBE4F8C91AD85AD
:10492000BE858C93F101A081FB018281A827F20151
:104930009081FB0186819827F3014081FB018285EC
:104940004827E42FF0E0EE5CFE4F8081F101808388
:10495000F4014081FB0186854827E42FF0E0EE5CFE
:10496000FE4F8081F2018083B0E0AE5CBE4F8C913F
:10497000D3018C93E92FF0E0EE5CFE4F8081F401CF
:104980008083F501A081FB018785A827F60190812E
:10499000FB0183859827E92FF0E0EE5CFE4F8081D4
:1049A000F5018083F7019081FB0187819827E92F2A
:1049B000F0E0EE5CFE4F8081F6018083EF85F889A0
:1049C0009081FB0183819827E92FF0E0EE5CFE4F98
:1049D0008081F7018083B0E0AE5CBE4F9C91AF85D3
:1049E000B8899C93A989BA89EC91AF81B8858C91DB
:1049F0008E27D1014C9148274927982F990F87FD81
:104A00009127842F8E278927A989BA898C93AF8112
:104A1000B8859C91D1018C918927582F550F87FF1C
:104A200003C0852F812701C0852F94279827AF8148
:104A3000B8859C93D1019C91AF85B8898C918927C9
:104A4000582F550F87FF03C0852F812701C0852F61
:104A500094279827D1019C93AF85B8895C91852FC5
:104A60008E27982F990F87FF03C0892F812701C0B8
:104A7000892F45274827EF85F8894083A981BA8186
:104A8000EC91A985BA859C919E27D7014C91D201C2
:104A90008C9148274927892F880F97FF03C0982FAB
:104AA000912701C0982F842F8E278927A981BA8149
:104AB0008C93A985BA859C91D2018C918927582F16
:104AC000550F87FF03C0852F812701C0852F9427AD
:104AD0009827A985BA859C93D2019C91D7018C9186
:104AE0008927582F550F87FF03C0852F812701C0C5
:104AF000852F94279827D2019C93D7015C91852F0D
:104B00008E27982F990F87FF03C0892F812701C017
:104B1000892F45274827F7014083AB81BC81EC9161
:104B2000AB85BC859C919E27D6014C91D3018C917D
:104B300048274927892F880F97FF03C0982F91276F
:104B400001C0982F842F8E278927AB81BC818C933D
:104B5000AB85BC859C91D3018C918927582F550F2B
:104B600087FF03C0852F812701C0852F94279827B1
:104B7000AB85BC859C93D3019C91D6018C918927F0
:104B8000582F550F87FF03C0852F812701C0852F20
:104B900094279827D3019C93D6015C91852F8E276B
:104BA000982F990F87FF03C0892F812701C0892F74
:104BB00045274827F6014083AD81BE81EC91AD8544
:104BC000BE859C919E27D5014C91D4018C9148279C
:104BD0004927892F880F97FF03C0982F912701C07D
:104BE000982F842F8E278927AD81BE818C93AD8528
:104BF000BE859C91D4018C918927582F550F87FF32
:104C000003C0852F812701C0852F94279827AD8564
:104C1000BE859C93D4019C91D5018C918927582FF6
:104C2000550F87FF03C0852F812701C0852F94274B
:104C30009827D4019C93D5015C91852F8E27982FBE
:104C4000990F87FF03C0892F812701C0892F45272E
:104C50004827F50140830F5F605F7F4F093009F0FF
:104C6000F3CD20573F4FD901EC91A989BA898C9196
:104C7000E827F0E0EE5CFE4F80818C932C5F3F4F85
:104C8000D901EC91A989BA8914968C911497E827D7
:104C9000F0E0EE5CFE4F808114968C932C5F3F4FCA
:104CA000D901EC91A989BA8918968C911897E827AF
:104CB000F0E0EE5CFE4F808118968C932C5F3F4FA6
:104CC000D901EC91A989BA891C968C911C97E82787
:104CD000F0E0EE5CFE4F80811C968C932B503040B0
:104CE000F901A081E989FA898181A8272C5F3F4FCA
:104CF000F9019081E989FA8985819827E92FF0E007
:104D0000EE5CFE4F8081E989FA8981832C5F3F4FF9
:104D1000F9019081E989FA8981859827E92FF0E0E6
:104D2000EE5CFE4F8081E989FA8985832C5F3F4FD5
:104D3000F9019081E989FA8985859827E92FF0E0C2
:104D4000EE5CFE4F8081E989FA898187B0E0AE5C34
:104D5000BE4F8C9185872B503040F901A081E989A5
:104D6000FA898281A8272C5F3F4FF9019081E98958
:104D7000FA89868198272C5F3F4FF9014081E989A4
:104D8000FA8982854827E42FF0E0EE5CFE4F8081AF
:104D9000E989FA8982832C5F3F4FF90141919F0194
:104DA000E989FA8986854827E42FF0E0EE5CFE4F1A
:104DB0008081E989FA898683B0E0AE5CBE4F8C9130
:104DC0008287E92FF0E0EE5CFE4F8081A989BA89E5
:104DD0001E968C93F901A081E989FA898785A82715
:104DE00024503040F9019081E989FA898385982718
:104DF000E92FF0E0EE5CFE4F8081E989FA89878730
:104E000024503040F9019081E989FA8987819827F7
:104E1000E92FF0E0EE5CFE4F8081E989FA89838713
:104E200024503040F9019081E989FA8983819827DB
:104E3000E92FF0E0EE5CFE4F8081E989FA898783F3
:104E4000B0E0AE5CBE4F8C918383235F3F4F808187
:104E5000D9019D91892780838181FD0191918927C5
:104E6000A989BA8911968C93119712968C911297F1
:104E70009191892712968C93129713968C91DF014A
:104E80009D918927E989FA89838384819D91892766
:104E900084838581FD0191918927A989BA89159615
:104EA0008C93159716968C91169791918927169643
:104EB0008C93169717968C91DF019D918927E9892C
:104EC000FA89878380859D91892780878185FD0167
:104ED00091918927A989BA8919968C9319971A965D
:104EE0008C911A97919189271A968C931A971B96F1
:104EF0008C91DF019D918927E989FA8983878485CF
:104F00009D91892784878585FD0191918927A989AC
:104F1000BA891D968C931D971E968C911E97919120
:104F200089271E968C931E971F968C911F979081B0
:104F300089271F968C9362960FB6F894DEBF0FBE3A
:104F4000CDBFCF91DF911F910F91FF90EF90DF9038
:104F5000CF90BF90AF909F908F907F906F905F9019
:104F60004F903F902F9008952F923F924F925F92D3
:104F70006F927F928F929F92AF92BF92CF92DF9269
:104F8000EF92FF920F931F93DF93CF93CDB7DEB7CE
:104F90002F970FB6F894DEBF0FBECDBF9F878E87C9
:104FA000DB01A056BF4FFC0180819D918927819331
:104FB0007F01EE85FF8581819D918927818342E074
:104FC000242E312C2E0E3F1E82819D9189278283B3
:104FD00033E0432E512C4E0E5F1E83819D91892715
:104FE00083833496FD87EC87EE85FF8584819D91D0
:104FF000892784833596FB87EA87EE85FF8585813F
:105000009D918927858326E0622E712C6E0E7F1E6E
:1050100086819D918927868397E0892E912C8E0E1B
:105020009F1E87819D91892787833896F987E88716
:10503000EE85FF8580859D91892780873996FF833E
:10504000EE83EE85FF8581859D91892781878AE0A2
:10505000A82EB12CAE0EBF1E82859D918927828716
:105060000BE0C02ED12CCE0EDF1E83859D918927AB
:1050700083873C96FD83EC83EE85FF8584859D9137
:10508000892784873D96FB83EA83EE85FF858585A6
:105090009D91892785878F01025F1F4F86859D918E
:1050A00089278687BF01615F7F4F87859C9189270C
:1050B00087875F978081E82FF0E0EE5CFD4F8C9151
:1050C00090818927EE85FF8580838481E82FF0E039
:1050D000EE5CFD4F149680819C918927EE85FF85BB
:1050E00084838085E82FF0E0EE5CFD4F149680818C
:1050F0009C918927EE85FF8580878485E82FF0E0E5
:10510000EE5CFD4F149680819C918927EE85FF858A
:1051100084878585E82FF0E0EE5CFD4F1B972081AA
:105120008C912827EE85FF858185E82FF0E0EE5CE5
:10513000FD4F1C9680819C918927EE85FF85858790
:105140008581E82FF0E0EE5CFD4F149780819C9103
:105150008927EE85FF8581878181E82FF0E0EE5C6D
:10516000FD4F149780819C918927EE85FF8585836B
:1051700021838281E82FF0E0EE5CFD4F15963081AF
:105180008C913827EE85FF858681E82FF0E0EE5C74
:10519000FD4F149620818C912827EE85FF8582850E
:1051A000E82FF0E0EE5CFD4F1C9780819C918927F1
:1051B000EE85FF8582838685E82FF0E0EE5CFD4F6B
:1051C000149680819C918927EE85FF85868332879E
:1051D00026878381E82FF0E0EE5CFD4F1996208151
:1051E0008C912827EE85FF858781E82FF0E0EE5C23
:1051F000FD4F1C9780819C918927EE85FF858383D5
:105200008385E82FF0E0EE5CFD4F149680819C9141
:105210008927EE85FF8587838785E82FF0E0EE5CA0
:10522000FD4F149680819C918927EE85FF858387A9
:1052300027875B97F8E0F9835BE1EE85FF85308196
:10524000F10180818327982F990F87FF03C0892F51
:10525000852701C0892F982F990F87FF03C0292F19
:10526000252701C0292FF2018081F701908189272C
:10527000982F990F87FF03C0892F852701C0892F99
:10528000982F990F87FD95273227EE85FF8530836C
:10529000F701808189278083F101808182278083C3
:1052A000F201808189278083EC85FD853081F301BF
:1052B00080818327982F990F87FF03C0892F852727
:1052C00001C0892F982F990F87FF03C0292F252709
:1052D00001C0292FF4018081EA85FB85908189270F
:1052E000982F990F87FF03C0892F852701C0892F29
:1052F000982F990F87FD95273227EC85FD85308300
:10530000EA85FB85808189278083F301808182275C
:105310008083F401808189278083E885F985308145
:10532000F50180818327982F990F87FF03C0892F6C
:10533000852701C0892F982F990F87FF03C0292F38
:10534000252701C0292FF6018081EE81FF81908100
:105350008927982F990F87FF03C0892F852701C0C0
:10536000892F982F990F87FD95273227E885F98592
:105370003083EE81FF81808189278083F5018081E0
:1053800082278083F601808189278083EC81FD81DB
:105390003081F80180818327982F990F87FF03C000
:1053A000892F852701C0892F982F990F87FF03C068
:1053B000292F252701C0292FFB018081EA81FB814C
:1053C00090818927982F990F87FF03C0892F852700
:1053D00001C0892F982F990F87FD95273227EC81DF
:1053E000FD813083EA81FB81808189278083F801F8
:1053F000808182278083FB01808189278083EE85DD
:10540000FF854081F70190819427F2012081F1010D
:10541000808128272927892F880F97FF03C0982F7D
:10542000952701C0982F822F84278927EE85FF8535
:105430008083F7019081F10180818927382F330F14
:1054400087FF03C0832F852701C0832F92279827CA
:10545000F7019083F1019081F20180818927382F33
:10546000330F87FF03C0832F852701C0832F922727
:105470009827F1019083F2013081832F8427982FA0
:10548000990F87FF03C0892F852701C0892F232704
:105490002827F2012083EC85FD854081EA85FB8584
:1054A00090819427F4012081F30180812827292706
:1054B000892F880F97FF03C0982F952701C0982F39
:1054C000822F84278927EC85FD858083EA85FB85EB
:1054D0009081F30180818927382F330F87FF03C024
:1054E000832F852701C0832F92279827EA85FB8584
:1054F0009083F3019081F40180818927382F330F45
:1055000087FF03C0832F852701C0832F9227982709
:10551000F3019083F4013081832F8427982F990F12
:1055200087FF03C0892F852701C0892F23272827BC
:10553000F4012083E885F9854081EE81FF81908127
:105540009427F6012081F501808128272927892FBA
:10555000880F97FF03C0982F952701C0982F822F9F
:1055600084278927E885F9858083EE81FF819081F2
:10557000F50180818927382F330F87FF03C0832FE0
:10558000852701C0832F92279827EE81FF81908382
:10559000F5019081F60180818927382F330F87FF2D
:1055A00003C0832F852701C0832F92279827F501F9
:1055B0009083F6013081832F8427982F990F87FFDE
:1055C00003C0892F852701C0892F23272827F601AB
:1055D0002083EC81FD814081EA81FB8190819427C9
:1055E000FB012081F801808128272927892F880F36
:1055F00097FF03C0982F952701C0982F822F8427EB
:105600008927EC81FD818083EA81FB819081F8010B
:1056100080818927382F330F87FF03C0832F852789
:1056200001C0832F92279827EA81FB819083F8019C
:105630009081FB0180818927382F330F87FF03C0BA
:10564000832F852701C0832F92279827F801908305
:10565000FB013081832F8427982F990F87FF03C088
:10566000892F852701C0892F23272827FB01208325
:10567000EE85FF858081E82FF0E0EE5CFD4F8081B4
:105680009C918927EE85FF858083EC85FD8580814F
:10569000E82FF0E0EE5CFD4F808114969C9114970A
:1056A0008927EC85FD858083E885F9858081E82F51
:1056B000F0E0EE5CFD4F808118969C911897892749
:1056C000E885F9858083EC81FD818081E82FF0E019
:1056D000EE5CFD4F80811C969C911C978927EC8184
:1056E000FD818083EA81FB818081E82FF0E0EE5C20
:1056F000FD4F208111968C9111972827EE81FF8113
:105700008081E82FF0E0EE5CFD4F80811D969C913A
:105710001D978927EA81FB818083EA85FB8580814B
:10572000E82FF0E0EE5CFD4F808119969C9119976F
:105730008927EE81FF818083F7018081E82FF0E0E7
:10574000EE5CFD4F808115969C9115978927EA851F
:10575000FB858083F7012083F1018081E82FF0E051
:10576000EE5CFD4F30811A968C911A973827F30121
:105770008081E82FF0E0EE5CFD4F20811E968C9139
:105780001E972827F5018081E82FF0E0EE5CFD4FA1
:10579000808112969C9112978927F1018083F801EC
:1057A0008081E82FF0E0EE5CFD4F808116969C91A1
:1057B00016978927F3018083F5013083F801208350
:1057C000F2018081E82FF0E0EE5CFD4F20811F9612
:1057D0008C911F972827F4018081E82FF0E0EE5C80
:1057E000FD4F808113969C9113978927F201808346
:1057F000F6018081E82FF0E0EE5CFD4F8081179686
:105800009C9117978927F4018083FB018081E82F01
:10581000F0E0EE5CFD4F80811B969C911B978927E1
:10582000F6018083FB012083F981F150F9835097C1
:10583000FF3F09F002CD2F960FB6F894DEBF0FBEE2
:10584000CDBFCF91DF911F910F91FF90EF90DF902F
:10585000CF90BF90AF909F908F907F906F905F9010
:105860004F903F902F900895EF92FF920F931F93C8
:105870008C0151E6E52E55E0F52EC7010E9440232C
:10588000C801B7010E94BC231F910F91FF90EF90B8
:105890000895EF92FF920F931F938C01E1E6EE2E95
:1058A000E5E0FE2EC7010E944023C801B7010E9417
:1058B000B4271F910F91FF90EF900895CF92DF9240
:1058C000EF92FF920F931F936C016CE070E080E009
:1058D00090E020E130E040E050E0EE24FF2487013A
:1058E0000E9450121F910F91FF90EF90DF90CF9088
:1058F0000895CF92DF92EF92FF920F931F936C0166
:105900006CE070E080E090E020E130E040E050E0CA
:10591000EE24FF2487010E9443131F910F91FF90F3
:10592000EF90DF90CF9008950F931F93DF93CF9365
:1059300000D0CDB7DEB7AB01BC0100912A051091B4
:105940002B05C80109960E94441C82E190E1B80130
:1059500044E00E94951482E190E1BE016F5F7F4FA9
:105960000E94382389819A810F900F90CF91DF9107
:105970001F910F910895CF92DF92EF92FF920F93B4
:105980001F93DF93CF930F92CDB7DEB7D62EC72EDE
:105990008A014132510518F02FEF3FEF36C0E090F9
:1059A0002A05F0902B05AC0160E070E0C701099674
:1059B0000E94441C48E050E060E070E00E94441CFB
:1059C000A80160E070E00E94441CDC018D2D9C2D3C
:1059D000FC019F01200F311F02C081918D93E217BE
:1059E000F307D9F7402F445F81E190E1B7010E94AE
:1059F000951481E190E1BE016F5F7F4F0E943823D3
:105A00008981282F332727FD3095C9010F90CF9129
:105A1000DF911F910F91FF90EF90DF90CF9008954D
:105A20002F923F924F925F926F927F928F929F92AE
:105A3000AF92BF92CF92DF92EF92FF920F931F939C
:105A4000DF93CF93CDB7DEB728970FB6F894DEBFBC
:105A50000FBECDBF2B013C012D833E834F83588762
:105A60001601C0902A05D0902B05C6010996B301F6
:105A7000A2010E94441C4D815E816F8178850E9445
:105A8000441CB801A7010E94441C48E050E060E0BB
:105A900070E00E94441CB501A4010E94441CBC019A
:105AA00020E030E040E050E00CC0F901DB01A20F43
:105AB000B31FE20DF31D80818C932F5F3F4F4F4F3B
:105AC0005F4F281539054A055B0578F3482D4C5E74
:105AD00089E090E1B6010E94951489E090E1BE0151
